{
  "contractName": "NodePackages",
  "abi": [
    {
      "inputs": [
        {
          "internalType": "address",
          "name": "_nodeToken",
          "type": "address"
        }
      ],
      "stateMutability": "nonpayable",
      "type": "constructor"
    },
    {
      "anonymous": false,
      "inputs": [
        {
          "indexed": true,
          "internalType": "address",
          "name": "user",
          "type": "address"
        },
        {
          "indexed": false,
          "internalType": "uint256",
          "name": "rewardAmount",
          "type": "uint256"
        },
        {
          "indexed": false,
          "internalType": "uint256",
          "name": "salesTotal",
          "type": "uint256"
        },
        {
          "indexed": false,
          "internalType": "uint256",
          "name": "referralCount",
          "type": "uint256"
        }
      ],
      "name": "BulkReferralRewardEarned",
      "type": "event"
    },
    {
      "anonymous": false,
      "inputs": [
        {
          "indexed": true,
          "internalType": "address",
          "name": "user",
          "type": "address"
        },
        {
          "indexed": true,
          "internalType": "uint256",
          "name": "packageId",
          "type": "uint256"
        },
        {
          "indexed": false,
          "internalType": "uint256",
          "name": "originalPrice",
          "type": "uint256"
        },
        {
          "indexed": false,
          "internalType": "uint256",
          "name": "discountedPrice",
          "type": "uint256"
        },
        {
          "indexed": false,
          "internalType": "uint256",
          "name": "rewardsUsed",
          "type": "uint256"
        }
      ],
      "name": "DiscountedNodePurchased",
      "type": "event"
    },
    {
      "anonymous": false,
      "inputs": [
        {
          "indexed": false,
          "internalType": "uint256",
          "name": "oldValue",
          "type": "uint256"
        },
        {
          "indexed": false,
          "internalType": "uint256",
          "name": "newValue",
          "type": "uint256"
        }
      ],
      "name": "MinReferralsUpdated",
      "type": "event"
    },
    {
      "anonymous": false,
      "inputs": [
        {
          "indexed": true,
          "internalType": "uint256",
          "name": "id",
          "type": "uint256"
        },
        {
          "indexed": false,
          "internalType": "string",
          "name": "name",
          "type": "string"
        },
        {
          "indexed": false,
          "internalType": "uint256",
          "name": "price",
          "type": "uint256"
        },
        {
          "indexed": false,
          "internalType": "uint256",
          "name": "duration",
          "type": "uint256"
        },
        {
          "indexed": false,
          "internalType": "uint256",
          "name": "roiPercentage",
          "type": "uint256"
        }
      ],
      "name": "NodePackageAdded",
      "type": "event"
    },
    {
      "anonymous": false,
      "inputs": [
        {
          "indexed": true,
          "internalType": "uint256",
          "name": "id",
          "type": "uint256"
        },
        {
          "indexed": false,
          "internalType": "string",
          "name": "name",
          "type": "string"
        },
        {
          "indexed": false,
          "internalType": "uint256",
          "name": "price",
          "type": "uint256"
        },
        {
          "indexed": false,
          "internalType": "uint256",
          "name": "duration",
          "type": "uint256"
        },
        {
          "indexed": false,
          "internalType": "uint256",
          "name": "roiPercentage",
          "type": "uint256"
        },
        {
          "indexed": false,
          "internalType": "bool",
          "name": "isActive",
          "type": "bool"
        }
      ],
      "name": "NodePackageUpdated",
      "type": "event"
    },
    {
      "anonymous": false,
      "inputs": [
        {
          "indexed": true,
          "internalType": "address",
          "name": "user",
          "type": "address"
        },
        {
          "indexed": true,
          "internalType": "uint256",
          "name": "packageId",
          "type": "uint256"
        },
        {
          "indexed": false,
          "internalType": "uint256",
          "name": "purchaseTime",
          "type": "uint256"
        },
        {
          "indexed": false,
          "internalType": "uint256",
          "name": "expiryTime",
          "type": "uint256"
        }
      ],
      "name": "NodePurchased",
      "type": "event"
    },
    {
      "anonymous": false,
      "inputs": [
        {
          "indexed": true,
          "internalType": "address",
          "name": "previousOwner",
          "type": "address"
        },
        {
          "indexed": true,
          "internalType": "address",
          "name": "newOwner",
          "type": "address"
        }
      ],
      "name": "OwnershipTransferred",
      "type": "event"
    },
    {
      "anonymous": false,
      "inputs": [
        {
          "indexed": false,
          "internalType": "uint256",
          "name": "amount",
          "type": "uint256"
        },
        {
          "indexed": false,
          "internalType": "uint256",
          "name": "newBalance",
          "type": "uint256"
        }
      ],
      "name": "ProsperityFundContribution",
      "type": "event"
    },
    {
      "anonymous": false,
      "inputs": [
        {
          "indexed": false,
          "internalType": "uint256",
          "name": "amount",
          "type": "uint256"
        },
        {
          "indexed": false,
          "internalType": "address",
          "name": "recipient",
          "type": "address"
        }
      ],
      "name": "ProsperityFundDistributed",
      "type": "event"
    },
    {
      "anonymous": false,
      "inputs": [
        {
          "indexed": false,
          "internalType": "bool",
          "name": "enabled",
          "type": "bool"
        },
        {
          "indexed": false,
          "internalType": "uint256",
          "name": "percentage",
          "type": "uint256"
        },
        {
          "indexed": false,
          "internalType": "uint256",
          "name": "distributionDays",
          "type": "uint256"
        }
      ],
      "name": "ProsperityFundSettingsUpdated",
      "type": "event"
    },
    {
      "anonymous": false,
      "inputs": [
        {
          "indexed": true,
          "internalType": "address",
          "name": "user",
          "type": "address"
        },
        {
          "indexed": true,
          "internalType": "address",
          "name": "referrer",
          "type": "address"
        },
        {
          "indexed": true,
          "internalType": "uint256",
          "name": "packageId",
          "type": "uint256"
        },
        {
          "indexed": false,
          "internalType": "uint256",
          "name": "packageReferralCount",
          "type": "uint256"
        },
        {
          "indexed": false,
          "internalType": "uint256",
          "name": "totalReferralCount",
          "type": "uint256"
        }
      ],
      "name": "ReferralRegistered",
      "type": "event"
    },
    {
      "anonymous": false,
      "inputs": [
        {
          "indexed": true,
          "internalType": "address",
          "name": "referrer",
          "type": "address"
        },
        {
          "indexed": true,
          "internalType": "address",
          "name": "user",
          "type": "address"
        },
        {
          "indexed": true,
          "internalType": "uint256",
          "name": "packageId",
          "type": "uint256"
        },
        {
          "indexed": false,
          "internalType": "uint256",
          "name": "rewardAmount",
          "type": "uint256"
        }
      ],
      "name": "ReferralRegisteredAndRewardDistributed",
      "type": "event"
    },
    {
      "anonymous": false,
      "inputs": [
        {
          "indexed": true,
          "internalType": "address",
          "name": "user",
          "type": "address"
        },
        {
          "indexed": false,
          "internalType": "uint256",
          "name": "amount",
          "type": "uint256"
        },
        {
          "indexed": false,
          "internalType": "uint256",
          "name": "timestamp",
          "type": "uint256"
        }
      ],
      "name": "RewardWithdrawalRequest",
      "type": "event"
    },
    {
      "anonymous": false,
      "inputs": [
        {
          "indexed": true,
          "internalType": "address",
          "name": "user",
          "type": "address"
        },
        {
          "indexed": false,
          "internalType": "uint256",
          "name": "amount",
          "type": "uint256"
        },
        {
          "indexed": false,
          "internalType": "uint256",
          "name": "nodeIndex",
          "type": "uint256"
        }
      ],
      "name": "RewardsClaimed",
      "type": "event"
    },
    {
      "anonymous": false,
      "inputs": [
        {
          "indexed": false,
          "internalType": "bool",
          "name": "enabled",
          "type": "bool"
        },
        {
          "indexed": false,
          "internalType": "uint256",
          "name": "percentage",
          "type": "uint256"
        }
      ],
      "name": "RewardsDiscountSettingsUpdated",
      "type": "event"
    },
    {
      "anonymous": false,
      "inputs": [
        {
          "indexed": true,
          "internalType": "address",
          "name": "user",
          "type": "address"
        },
        {
          "indexed": false,
          "internalType": "uint256",
          "name": "amount",
          "type": "uint256"
        }
      ],
      "name": "RewardsWithdrawn",
      "type": "event"
    },
    {
      "anonymous": false,
      "inputs": [
        {
          "indexed": true,
          "internalType": "uint256",
          "name": "index",
          "type": "uint256"
        },
        {
          "indexed": false,
          "internalType": "uint256",
          "name": "percentage",
          "type": "uint256"
        }
      ],
      "name": "SevenLevelReferralPercentageUpdated",
      "type": "event"
    },
    {
      "anonymous": false,
      "inputs": [
        {
          "indexed": false,
          "internalType": "bool",
          "name": "enabled",
          "type": "bool"
        },
        {
          "indexed": false,
          "internalType": "uint256",
          "name": "percentage",
          "type": "uint256"
        },
        {
          "indexed": false,
          "internalType": "address",
          "name": "liquidityAddress",
          "type": "address"
        }
      ],
      "name": "WithdrawLiquiditySettingsUpdated",
      "type": "event"
    },
    {
      "inputs": [],
      "name": "bulkReferralRewardPercentage",
      "outputs": [
        {
          "internalType": "uint256",
          "name": "",
          "type": "uint256"
        }
      ],
      "stateMutability": "view",
      "type": "function"
    },
    {
      "inputs": [],
      "name": "bulkReferralThreshold",
      "outputs": [
        {
          "internalType": "uint256",
          "name": "",
          "type": "uint256"
        }
      ],
      "stateMutability": "view",
      "type": "function"
    },
    {
      "inputs": [
        {
          "internalType": "address",
          "name": "",
          "type": "address"
        },
        {
          "internalType": "uint256",
          "name": "",
          "type": "uint256"
        }
      ],
      "name": "directReferrers",
      "outputs": [
        {
          "internalType": "address",
          "name": "directReferrer",
          "type": "address"
        },
        {
          "internalType": "uint256",
          "name": "level",
          "type": "uint256"
        }
      ],
      "stateMutability": "view",
      "type": "function"
    },
    {
      "inputs": [],
      "name": "lastProsperityFundDistribution",
      "outputs": [
        {
          "internalType": "uint256",
          "name": "",
          "type": "uint256"
        }
      ],
      "stateMutability": "view",
      "type": "function"
    },
    {
      "inputs": [],
      "name": "liquidityAddress",
      "outputs": [
        {
          "internalType": "address",
          "name": "",
          "type": "address"
        }
      ],
      "stateMutability": "view",
      "type": "function"
    },
    {
      "inputs": [],
      "name": "minReferralsForRewards",
      "outputs": [
        {
          "internalType": "uint256",
          "name": "",
          "type": "uint256"
        }
      ],
      "stateMutability": "view",
      "type": "function"
    },
    {
      "inputs": [],
      "name": "nodePackageCount",
      "outputs": [
        {
          "internalType": "uint256",
          "name": "",
          "type": "uint256"
        }
      ],
      "stateMutability": "view",
      "type": "function"
    },
    {
      "inputs": [
        {
          "internalType": "uint256",
          "name": "",
          "type": "uint256"
        }
      ],
      "name": "nodePackages",
      "outputs": [
        {
          "internalType": "uint256",
          "name": "id",
          "type": "uint256"
        },
        {
          "internalType": "string",
          "name": "name",
          "type": "string"
        },
        {
          "internalType": "uint256",
          "name": "price",
          "type": "uint256"
        },
        {
          "internalType": "uint256",
          "name": "duration",
          "type": "uint256"
        },
        {
          "internalType": "uint256",
          "name": "roiPercentage",
          "type": "uint256"
        },
        {
          "internalType": "bool",
          "name": "isActive",
          "type": "bool"
        }
      ],
      "stateMutability": "view",
      "type": "function"
    },
    {
      "inputs": [],
      "name": "nodeToken",
      "outputs": [
        {
          "internalType": "contract IERC20",
          "name": "",
          "type": "address"
        }
      ],
      "stateMutability": "view",
      "type": "function"
    },
    {
      "inputs": [],
      "name": "owner",
      "outputs": [
        {
          "internalType": "address",
          "name": "",
          "type": "address"
        }
      ],
      "stateMutability": "view",
      "type": "function"
    },
    {
      "inputs": [
        {
          "internalType": "address",
          "name": "",
          "type": "address"
        },
        {
          "internalType": "uint256",
          "name": "",
          "type": "uint256"
        }
      ],
      "name": "packageReferralsClaimed",
      "outputs": [
        {
          "internalType": "uint256",
          "name": "",
          "type": "uint256"
        }
      ],
      "stateMutability": "view",
      "type": "function"
    },
    {
      "inputs": [
        {
          "internalType": "address",
          "name": "",
          "type": "address"
        },
        {
          "internalType": "uint256",
          "name": "",
          "type": "uint256"
        }
      ],
      "name": "packageReferralsMade",
      "outputs": [
        {
          "internalType": "uint256",
          "name": "",
          "type": "uint256"
        }
      ],
      "stateMutability": "view",
      "type": "function"
    },
    {
      "inputs": [],
      "name": "prosperityFundBalance",
      "outputs": [
        {
          "internalType": "uint256",
          "name": "",
          "type": "uint256"
        }
      ],
      "stateMutability": "view",
      "type": "function"
    },
    {
      "inputs": [],
      "name": "prosperityFundDistributionDays",
      "outputs": [
        {
          "internalType": "uint256",
          "name": "",
          "type": "uint256"
        }
      ],
      "stateMutability": "view",
      "type": "function"
    },
    {
      "inputs": [],
      "name": "prosperityFundEnabled",
      "outputs": [
        {
          "internalType": "bool",
          "name": "",
          "type": "bool"
        }
      ],
      "stateMutability": "view",
      "type": "function"
    },
    {
      "inputs": [],
      "name": "prosperityFundPercentage",
      "outputs": [
        {
          "internalType": "uint256",
          "name": "",
          "type": "uint256"
        }
      ],
      "stateMutability": "view",
      "type": "function"
    },
    {
      "inputs": [
        {
          "internalType": "address",
          "name": "",
          "type": "address"
        }
      ],
      "name": "referralsMade",
      "outputs": [
        {
          "internalType": "uint256",
          "name": "",
          "type": "uint256"
        }
      ],
      "stateMutability": "view",
      "type": "function"
    },
    {
      "inputs": [
        {
          "internalType": "address",
          "name": "",
          "type": "address"
        },
        {
          "internalType": "uint256",
          "name": "",
          "type": "uint256"
        }
      ],
      "name": "referrers",
      "outputs": [
        {
          "internalType": "address",
          "name": "",
          "type": "address"
        }
      ],
      "stateMutability": "view",
      "type": "function"
    },
    {
      "inputs": [],
      "name": "renounceOwnership",
      "outputs": [],
      "stateMutability": "nonpayable",
      "type": "function"
    },
    {
      "inputs": [],
      "name": "rewardsDiscountEnabled",
      "outputs": [
        {
          "internalType": "bool",
          "name": "",
          "type": "bool"
        }
      ],
      "stateMutability": "view",
      "type": "function"
    },
    {
      "inputs": [],
      "name": "rewardsDiscountPercentage",
      "outputs": [
        {
          "internalType": "uint256",
          "name": "",
          "type": "uint256"
        }
      ],
      "stateMutability": "view",
      "type": "function"
    },
    {
      "inputs": [
        {
          "internalType": "uint256",
          "name": "",
          "type": "uint256"
        }
      ],
      "name": "sevenLevelReferralPercentages",
      "outputs": [
        {
          "internalType": "uint256",
          "name": "",
          "type": "uint256"
        }
      ],
      "stateMutability": "view",
      "type": "function"
    },
    {
      "inputs": [
        {
          "internalType": "address",
          "name": "newOwner",
          "type": "address"
        }
      ],
      "name": "transferOwnership",
      "outputs": [],
      "stateMutability": "nonpayable",
      "type": "function"
    },
    {
      "inputs": [
        {
          "internalType": "address",
          "name": "",
          "type": "address"
        }
      ],
      "name": "userBulkReferralCount",
      "outputs": [
        {
          "internalType": "uint256",
          "name": "",
          "type": "uint256"
        }
      ],
      "stateMutability": "view",
      "type": "function"
    },
    {
      "inputs": [
        {
          "internalType": "address",
          "name": "",
          "type": "address"
        }
      ],
      "name": "userBulkReferralRewardsClaimed",
      "outputs": [
        {
          "internalType": "uint256",
          "name": "",
          "type": "uint256"
        }
      ],
      "stateMutability": "view",
      "type": "function"
    },
    {
      "inputs": [
        {
          "internalType": "address",
          "name": "",
          "type": "address"
        }
      ],
      "name": "userBulkReferralSalesTotal",
      "outputs": [
        {
          "internalType": "uint256",
          "name": "",
          "type": "uint256"
        }
      ],
      "stateMutability": "view",
      "type": "function"
    },
    {
      "inputs": [
        {
          "internalType": "address",
          "name": "",
          "type": "address"
        },
        {
          "internalType": "uint256",
          "name": "",
          "type": "uint256"
        }
      ],
      "name": "userNodeAssigned",
      "outputs": [
        {
          "internalType": "bool",
          "name": "",
          "type": "bool"
        }
      ],
      "stateMutability": "view",
      "type": "function"
    },
    {
      "inputs": [
        {
          "internalType": "address",
          "name": "",
          "type": "address"
        },
        {
          "internalType": "uint256",
          "name": "",
          "type": "uint256"
        }
      ],
      "name": "userNodes",
      "outputs": [
        {
          "internalType": "uint256",
          "name": "packageId",
          "type": "uint256"
        },
        {
          "internalType": "uint256",
          "name": "purchaseTime",
          "type": "uint256"
        },
        {
          "internalType": "uint256",
          "name": "expiryTime",
          "type": "uint256"
        },
        {
          "internalType": "bool",
          "name": "isActive",
          "type": "bool"
        }
      ],
      "stateMutability": "view",
      "type": "function"
    },
    {
      "inputs": [
        {
          "internalType": "address",
          "name": "",
          "type": "address"
        }
      ],
      "name": "userRewards",
      "outputs": [
        {
          "internalType": "uint256",
          "name": "",
          "type": "uint256"
        }
      ],
      "stateMutability": "view",
      "type": "function"
    },
    {
      "inputs": [
        {
          "internalType": "address",
          "name": "",
          "type": "address"
        },
        {
          "internalType": "uint256",
          "name": "",
          "type": "uint256"
        }
      ],
      "name": "userRewardsClaimed",
      "outputs": [
        {
          "internalType": "uint256",
          "name": "",
          "type": "uint256"
        }
      ],
      "stateMutability": "view",
      "type": "function"
    },
    {
      "inputs": [],
      "name": "withdrawLiquidityEnabled",
      "outputs": [
        {
          "internalType": "bool",
          "name": "",
          "type": "bool"
        }
      ],
      "stateMutability": "view",
      "type": "function"
    },
    {
      "inputs": [],
      "name": "withdrawLiquidityPercentage",
      "outputs": [
        {
          "internalType": "uint256",
          "name": "",
          "type": "uint256"
        }
      ],
      "stateMutability": "view",
      "type": "function"
    },
    {
      "inputs": [
        {
          "internalType": "string",
          "name": "_name",
          "type": "string"
        },
        {
          "internalType": "uint256",
          "name": "_price",
          "type": "uint256"
        },
        {
          "internalType": "uint256",
          "name": "_durationInDays",
          "type": "uint256"
        },
        {
          "internalType": "uint256",
          "name": "_roiPercentage",
          "type": "uint256"
        }
      ],
      "name": "addNodePackage",
      "outputs": [
        {
          "internalType": "uint256",
          "name": "",
          "type": "uint256"
        }
      ],
      "stateMutability": "nonpayable",
      "type": "function"
    },
    {
      "inputs": [
        {
          "internalType": "string[]",
          "name": "_names",
          "type": "string[]"
        },
        {
          "internalType": "uint256[]",
          "name": "_prices",
          "type": "uint256[]"
        },
        {
          "internalType": "uint256[]",
          "name": "_durationsInDays",
          "type": "uint256[]"
        },
        {
          "internalType": "uint256[]",
          "name": "_roiPercentages",
          "type": "uint256[]"
        }
      ],
      "name": "addMultipleNodePackages",
      "outputs": [],
      "stateMutability": "nonpayable",
      "type": "function"
    },
    {
      "inputs": [
        {
          "internalType": "uint256",
          "name": "_id",
          "type": "uint256"
        },
        {
          "internalType": "string",
          "name": "_name",
          "type": "string"
        },
        {
          "internalType": "uint256",
          "name": "_price",
          "type": "uint256"
        },
        {
          "internalType": "uint256",
          "name": "_durationInDays",
          "type": "uint256"
        },
        {
          "internalType": "uint256",
          "name": "_roiPercentage",
          "type": "uint256"
        },
        {
          "internalType": "bool",
          "name": "_isActive",
          "type": "bool"
        }
      ],
      "name": "updateNodePackage",
      "outputs": [],
      "stateMutability": "nonpayable",
      "type": "function"
    },
    {
      "inputs": [
        {
          "internalType": "uint256",
          "name": "_id",
          "type": "uint256"
        },
        {
          "internalType": "bool",
          "name": "_isActive",
          "type": "bool"
        }
      ],
      "name": "setNodePackageActive",
      "outputs": [],
      "stateMutability": "nonpayable",
      "type": "function"
    },
    {
      "inputs": [
        {
          "internalType": "uint256",
          "name": "_packageId",
          "type": "uint256"
        },
        {
          "internalType": "address",
          "name": "_referrer",
          "type": "address"
        }
      ],
      "name": "purchaseNode",
      "outputs": [],
      "stateMutability": "nonpayable",
      "type": "function"
    },
    {
      "inputs": [
        {
          "internalType": "uint256",
          "name": "_packageId",
          "type": "uint256"
        },
        {
          "internalType": "address",
          "name": "_referrer",
          "type": "address"
        },
        {
          "internalType": "uint256",
          "name": "_fromPackageId",
          "type": "uint256"
        }
      ],
      "name": "purchaseNodeWithDiscount",
      "outputs": [],
      "stateMutability": "nonpayable",
      "type": "function"
    },
    {
      "inputs": [
        {
          "internalType": "uint256",
          "name": "_nodeIndex",
          "type": "uint256"
        }
      ],
      "name": "calculateNodeReward",
      "outputs": [
        {
          "internalType": "uint256",
          "name": "reward",
          "type": "uint256"
        }
      ],
      "stateMutability": "nonpayable",
      "type": "function"
    },
    {
      "inputs": [
        {
          "internalType": "uint256",
          "name": "_nodeIndex",
          "type": "uint256"
        }
      ],
      "name": "claimNodeReward",
      "outputs": [],
      "stateMutability": "nonpayable",
      "type": "function"
    },
    {
      "inputs": [],
      "name": "claimAllRewards",
      "outputs": [],
      "stateMutability": "nonpayable",
      "type": "function"
    },
    {
      "inputs": [
        {
          "internalType": "uint256",
          "name": "_id",
          "type": "uint256"
        }
      ],
      "name": "getNodePackage",
      "outputs": [
        {
          "internalType": "uint256",
          "name": "id",
          "type": "uint256"
        },
        {
          "internalType": "string",
          "name": "name",
          "type": "string"
        },
        {
          "internalType": "uint256",
          "name": "price",
          "type": "uint256"
        },
        {
          "internalType": "uint256",
          "name": "duration",
          "type": "uint256"
        },
        {
          "internalType": "uint256",
          "name": "roiPercentage",
          "type": "uint256"
        },
        {
          "internalType": "bool",
          "name": "isActive",
          "type": "bool"
        }
      ],
      "stateMutability": "view",
      "type": "function"
    },
    {
      "inputs": [
        {
          "internalType": "address",
          "name": "_user",
          "type": "address"
        }
      ],
      "name": "getUserNodeCount",
      "outputs": [
        {
          "internalType": "uint256",
          "name": "",
          "type": "uint256"
        }
      ],
      "stateMutability": "view",
      "type": "function"
    },
    {
      "inputs": [
        {
          "internalType": "address",
          "name": "_user",
          "type": "address"
        }
      ],
      "name": "getUserReferralCount",
      "outputs": [
        {
          "internalType": "uint256",
          "name": "",
          "type": "uint256"
        }
      ],
      "stateMutability": "view",
      "type": "function"
    },
    {
      "inputs": [
        {
          "internalType": "address",
          "name": "_user",
          "type": "address"
        },
        {
          "internalType": "uint256",
          "name": "_packageId",
          "type": "uint256"
        }
      ],
      "name": "getUserPackageReferralCount",
      "outputs": [
        {
          "internalType": "uint256",
          "name": "",
          "type": "uint256"
        }
      ],
      "stateMutability": "view",
      "type": "function"
    },
    {
      "inputs": [
        {
          "internalType": "address",
          "name": "_user",
          "type": "address"
        },
        {
          "internalType": "uint256",
          "name": "_packageId",
          "type": "uint256"
        }
      ],
      "name": "getUserReferrer",
      "outputs": [
        {
          "internalType": "address",
          "name": "",
          "type": "address"
        }
      ],
      "stateMutability": "view",
      "type": "function"
    },
    {
      "inputs": [
        {
          "internalType": "address",
          "name": "_user",
          "type": "address"
        },
        {
          "internalType": "uint256",
          "name": "_index",
          "type": "uint256"
        }
      ],
      "name": "getUserNode",
      "outputs": [
        {
          "internalType": "uint256",
          "name": "packageId",
          "type": "uint256"
        },
        {
          "internalType": "uint256",
          "name": "purchaseTime",
          "type": "uint256"
        },
        {
          "internalType": "uint256",
          "name": "expiryTime",
          "type": "uint256"
        },
        {
          "internalType": "bool",
          "name": "isActive",
          "type": "bool"
        }
      ],
      "stateMutability": "view",
      "type": "function"
    },
    {
      "inputs": [
        {
          "internalType": "uint256",
          "name": "_amount",
          "type": "uint256"
        }
      ],
      "name": "withdrawTokens",
      "outputs": [],
      "stateMutability": "nonpayable",
      "type": "function"
    },
    {
      "inputs": [
        {
          "internalType": "bool",
          "name": "_enabled",
          "type": "bool"
        },
        {
          "internalType": "uint256",
          "name": "_percentage",
          "type": "uint256"
        },
        {
          "internalType": "uint256",
          "name": "_distributionDays",
          "type": "uint256"
        }
      ],
      "name": "updateProsperityFundSettings",
      "outputs": [],
      "stateMutability": "nonpayable",
      "type": "function"
    },
    {
      "inputs": [],
      "name": "isProsperityFundReadyForDistribution",
      "outputs": [
        {
          "internalType": "bool",
          "name": "",
          "type": "bool"
        }
      ],
      "stateMutability": "view",
      "type": "function"
    },
    {
      "inputs": [
        {
          "internalType": "address",
          "name": "_recipient",
          "type": "address"
        }
      ],
      "name": "distributeProsperityFund",
      "outputs": [],
      "stateMutability": "nonpayable",
      "type": "function"
    },
    {
      "inputs": [
        {
          "internalType": "uint256",
          "name": "_minReferrals",
          "type": "uint256"
        }
      ],
      "name": "setMinReferralsForRewards",
      "outputs": [],
      "stateMutability": "nonpayable",
      "type": "function"
    },
    {
      "inputs": [
        {
          "internalType": "address",
          "name": "_user",
          "type": "address"
        },
        {
          "internalType": "uint256",
          "name": "_packageId",
          "type": "uint256"
        }
      ],
      "name": "getDirectReferralDetails",
      "outputs": [
        {
          "internalType": "address",
          "name": "referrer",
          "type": "address"
        },
        {
          "internalType": "uint256",
          "name": "level",
          "type": "uint256"
        }
      ],
      "stateMutability": "view",
      "type": "function"
    },
    {
      "inputs": [
        {
          "internalType": "bool",
          "name": "_withdrawLiquidityEnabled",
          "type": "bool"
        },
        {
          "internalType": "uint256",
          "name": "_withdrawLiquidityPercentage",
          "type": "uint256"
        },
        {
          "internalType": "address",
          "name": "_liquidityAddress",
          "type": "address"
        }
      ],
      "name": "withdrawLiquidity",
      "outputs": [],
      "stateMutability": "nonpayable",
      "type": "function"
    },
    {
      "inputs": [
        {
          "internalType": "uint256",
          "name": "_amount",
          "type": "uint256"
        }
      ],
      "name": "withdrawRewards",
      "outputs": [],
      "stateMutability": "nonpayable",
      "type": "function"
    },
    {
      "inputs": [
        {
          "internalType": "uint256",
          "name": "_index",
          "type": "uint256"
        },
        {
          "internalType": "uint256",
          "name": "_percentage",
          "type": "uint256"
        }
      ],
      "name": "updateSevenLevelReferralPercentage",
      "outputs": [],
      "stateMutability": "nonpayable",
      "type": "function"
    },
    {
      "inputs": [
        {
          "internalType": "address",
          "name": "_user",
          "type": "address"
        }
      ],
      "name": "getUserTotalClaimedRewards",
      "outputs": [
        {
          "internalType": "uint256",
          "name": "totalRewards",
          "type": "uint256"
        }
      ],
      "stateMutability": "view",
      "type": "function"
    },
    {
      "inputs": [
        {
          "internalType": "address",
          "name": "_user",
          "type": "address"
        },
        {
          "internalType": "uint256",
          "name": "_packageId",
          "type": "uint256"
        }
      ],
      "name": "getUserPackageClaimedRewards",
      "outputs": [
        {
          "internalType": "uint256",
          "name": "",
          "type": "uint256"
        }
      ],
      "stateMutability": "view",
      "type": "function"
    },
    {
      "inputs": [],
      "name": "getProsperityFundStatus",
      "outputs": [
        {
          "internalType": "bool",
          "name": "enabled",
          "type": "bool"
        },
        {
          "internalType": "uint256",
          "name": "balance",
          "type": "uint256"
        },
        {
          "internalType": "uint256",
          "name": "percentage",
          "type": "uint256"
        },
        {
          "internalType": "uint256",
          "name": "distributionDays",
          "type": "uint256"
        },
        {
          "internalType": "uint256",
          "name": "nextDistribution",
          "type": "uint256"
        },
        {
          "internalType": "bool",
          "name": "isReady",
          "type": "bool"
        }
      ],
      "stateMutability": "view",
      "type": "function"
    },
    {
      "inputs": [
        {
          "internalType": "address",
          "name": "_user",
          "type": "address"
        }
      ],
      "name": "getUserBulkReferralStats",
      "outputs": [
        {
          "internalType": "uint256",
          "name": "referralCount",
          "type": "uint256"
        },
        {
          "internalType": "uint256",
          "name": "salesTotal",
          "type": "uint256"
        },
        {
          "internalType": "uint256",
          "name": "rewardsClaimed",
          "type": "uint256"
        },
        {
          "internalType": "uint256",
          "name": "referralsToNextReward",
          "type": "uint256"
        }
      ],
      "stateMutability": "view",
      "type": "function"
    },
    {
      "inputs": [
        {
          "internalType": "uint256",
          "name": "_threshold",
          "type": "uint256"
        },
        {
          "internalType": "uint256",
          "name": "_percentage",
          "type": "uint256"
        }
      ],
      "name": "updateBulkReferralSettings",
      "outputs": [],
      "stateMutability": "nonpayable",
      "type": "function"
    },
    {
      "inputs": [
        {
          "internalType": "bool",
          "name": "_enabled",
          "type": "bool"
        },
        {
          "internalType": "uint256",
          "name": "_percentage",
          "type": "uint256"
        }
      ],
      "name": "updateRewardsDiscountSettings",
      "outputs": [],
      "stateMutability": "nonpayable",
      "type": "function"
    }
  ],
  "bytecode": "0x6001600d819055610160604052600a6080908152600360a052600260c081905260e052610100829052610120829052610140919091526200004590600e9060076200018e565b506015805460ff19166001179055600a6016819055601e6017819055601d829055556014601f556020805461010161ffff1990911617905560096021553480156200008f57600080fd5b5060405162003b1038038062003b10833981016040819052620000b291620001ed565b620000bd336200013e565b6001600160a01b038116620001185760405162461bcd60e51b815260206004820152601c60248201527f546f6b656e20616464726573732063616e6e6f74206265207a65726f00000000604482015260640160405180910390fd5b600180546001600160a01b0319166001600160a01b03929092169190911790556200021f565b600080546001600160a01b038381166001600160a01b0319831681178455604051919092169283917f8be0079c531659141344cd1fd0a4f28419497f9722a3daafe3b4186f6b6457e09190a35050565b8260078101928215620001c4579160200282015b82811115620001c4578251829060ff16905591602001919060010190620001a2565b50620001d2929150620001d6565b5090565b5b80821115620001d25760008155600101620001d7565b6000602082840312156200020057600080fd5b81516001600160a01b03811681146200021857600080fd5b9392505050565b6138e1806200022f6000396000f3fe608060405234801561001057600080fd5b50600436106103b95760003560e01c80638da5cb5b116101f4578063cc6c54ef1161011a578063e3d7f3b0116100ad578063f17b4ac51161007c578063f17b4ac5146109b7578063f2fde38b146109e2578063f65356fd146109f5578063f9f9b4a014610a1e57600080fd5b8063e3d7f3b01461095e578063e83a98ff14610971578063e99cd20014610991578063ebb8035a146109a457600080fd5b8063d4a5fe19116100e9578063d4a5fe1914610906578063d66b4ea214610913578063da95c0a014610926578063dc3769e61461093957600080fd5b8063cc6c54ef146108ce578063cd53d3e9146108e1578063d16c5cab146108ea578063d20deac6146108f357600080fd5b8063b8223e4011610192578063c887357311610161578063c887357314610880578063c8a22eb414610893578063cb6c5955146108bc578063cb9b60e9146108c557600080fd5b8063b8223e4014610810578063c200052d14610830578063c5fb69e214610839578063c73e293b1461084c57600080fd5b8063a1f0369c116101ce578063a1f0369c146107a5578063a2e8bba4146107b8578063a97d9e24146107eb578063b1c14852146107fd57600080fd5b80638da5cb5b1461074c578063909b2da11461075d5780639342c8f41461079257600080fd5b80635011d0e5116102e4578063664983c8116102775780637bf7fb11116102465780637bf7fb11146106ee5780637cb38c93146106f657806381bb8fd8146107095780638b035c741461071657600080fd5b8063664983c8146106b7578063715018a6146106ca578063739ac6b2146106d25780637b741d0b146106db57600080fd5b806359eda797116102b357806359eda7971461060c5780635d603ada146106455780635f0d5e901461064e57806363fe1b311461067957600080fd5b80635011d0e5146105ca5780635143c6a7146105dd57806352371324146105e6578063535e9863146105f957600080fd5b80632d9e62e61161035c578063432da14f1161032b578063432da14f1461054657806346a93f4f146105665780634a0d3fe7146105795780634d554316146105b757600080fd5b80632d9e62e6146104ec578063315a095d146104ff5780633221c93f1461051257806337fa9cb91461053d57600080fd5b80630b83a727116103985780630b83a7271461044757806316dace351461045157806317673257146104ae5780632673b457146104d957600080fd5b80622eff9a146103be57806302d64cae146104075780630660f1e814610427575b600080fd5b6103f46103cc366004612ff4565b6001600160a01b03919091166000908152600960209081526040808320938352929052205490565b6040519081526020015b60405180910390f35b6103f461041536600461301e565b601a6020526000908152604090205481565b6103f461043536600461301e565b600c6020526000908152604090205481565b61044f610a27565b005b61048f61045f366004612ff4565b6007602090815260009283526040808420909152908252902080546001909101546001600160a01b039091169082565b604080516001600160a01b0390931683526020830191909152016103fe565b6103f46104bc366004612ff4565b600b60209081526000928352604080842090915290825290205481565b6103f46104e736600461301e565b610c53565b6103f46104fa366004613039565b610ca9565b61044f61050d366004613039565b610cc0565b602254610525906001600160a01b031681565b6040516001600160a01b0390911681526020016103fe565b6103f4600d5481565b6103f461055436600461301e565b601b6020526000908152604090205481565b61044f610574366004613117565b610df0565b61048f610587366004612ff4565b6001600160a01b039182166000908152600760209081526040808320938352929052208054600190910154911691565b61044f6105c536600461318e565b610f13565b61044f6105d836600461301e565b61100a565b6103f4601e5481565b61044f6105f4366004613039565b61117f565b6103f4610607366004613039565b6111c5565b610614611348565b60408051961515875260208701959095529385019290925260608401526080830152151560a082015260c0016103fe565b6103f460195481565b6103f461065c366004612ff4565b600a60209081526000928352604080842090915290825290205481565b6106a7610687366004612ff4565b600660209081526000928352604080842090915290825290205460ff1681565b60405190151581526020016103fe565b600154610525906001600160a01b031681565b61044f6113af565b6103f460185481565b61044f6106e9366004613252565b6113c3565b6106a76114cc565b6103f461070436600461336f565b61151b565b6015546106a79060ff1681565b610525610724366004612ff4565b6001600160a01b03918216600090815260056020908152604080832093835292905220541690565b6000546001600160a01b0316610525565b61077061076b366004612ff4565b61163a565b60408051948552602085019390935291830152151560608201526080016103fe565b61044f6107a0366004613039565b611683565b61044f6107b33660046133c3565b6117f3565b6107cb6107c636600461301e565b611ad4565b6040805194855260208501939093529183015260608201526080016103fe565b6020546106a790610100900460ff1681565b61044f61080b3660046133f8565b611b3f565b6103f461081e36600461301e565b60086020526000908152604090205481565b6103f4601f5481565b61044f610847366004613416565b611bb2565b61052561085a366004612ff4565b60056020908152600092835260408084209091529082529020546001600160a01b031681565b6103f461088e366004612ff4565b611c60565b6103f46108a136600461301e565b6001600160a01b031660009081526008602052604090205490565b6103f460215481565b6103f4601d5481565b61044f6108dc366004613446565b611cb8565b6103f460165481565b6103f460035481565b610770610901366004612ff4565b611dae565b6020546106a79060ff1681565b61044f610921366004613468565b611e4b565b61044f610934366004613446565b611fe2565b61094c610947366004613039565b612066565b6040516103fe969594939291906134ec565b61044f61096c36600461352c565b612177565b6103f461097f36600461301e565b601c6020526000908152604090205481565b61094c61099f366004613039565b6121f8565b61044f6109b2366004613039565b6122b9565b6103f46109c5366004612ff4565b600960209081526000928352604080842090915290825290205481565b61044f6109f036600461301e565b61243c565b6103f4610a0336600461301e565b6001600160a01b031660009081526004602052604090205490565b6103f460175481565b3360009081526004602052604081208054909190819067ffffffffffffffff811115610a5557610a55613052565b604051908082528060200260200182016040528015610a7e578160200160208202803683370190505b5090506000805b8454811015610c0857848181548110610aa057610aa061356a565b600091825260209091206003600490920201015460ff1615610bf6576000858281548110610ad057610ad061356a565b600091825260208220600490910201549150805b84811015610b285782868281518110610aff57610aff61356a565b60200260200101511415610b165760019150610b28565b80610b2081613596565b915050610ae4565b5080610bd957600d543360009081526009602090815260408083208684529091529020541015610bad5760405162461bcd60e51b815260206004820152602560248201527f4e6f7420656e6f75676820726566657272616c7320666f722074686973207061604482015264636b61676560d81b60648201526084015b60405180910390fd5b81858581518110610bc057610bc061356a565b602090810291909101015283610bd581613596565b9450505b6000610be4846111c5565b9050610bf081886135b1565b96505050505b80610c0081613596565b915050610a85565b508215610c4d5760408051848152600019602082015233917fdacbdde355ba930696a362ea6738feb9f8bd52dfb3d81947558fd3217e23e32591015b60405180910390a25b50505050565b600060015b6003548111610ca3576001600160a01b0383166000908152600b60209081526040808320848452909152902054610c8f90836135b1565b915080610c9b81613596565b915050610c58565b50919050565b600e8160078110610cb957600080fd5b0154905081565b610cc86124b2565b6019546001546040516370a0823160e01b81523060048201526001600160a01b03909116906370a082319060240160206040518083038186803b158015610d0e57600080fd5b505afa158015610d22573d6000803e3d6000fd5b505050506040513d601f19601f82011682018060405250810190610d4691906135c9565b610d5091906135e2565b811115610dc55760405162461bcd60e51b815260206004820152603860248201527f496e73756666696369656e7420636f6e74726163742062616c616e6365206f7560448201527f7473696465206f662050726f737065726974792046756e6400000000000000006064820152608401610ba4565b610ded610dda6000546001600160a01b031690565b6001546001600160a01b0316908361250c565b50565b610df86124b2565b600086118015610e0a57506003548611155b610e265760405162461bcd60e51b8152600401610ba4906135f9565b6000610e358462015180613630565b6040805160c08101825289815260208082018a81528284018a9052606083018590526080830188905286151560a084015260008c8152600283529390932082518155925180519495509193610e909260018501920190612f3f565b506040828101516002830155606083015160038301556080830151600483015560a0909201516005909101805460ff19169115159190911790555187907f1ce6f34aa8270a22512e6f15094ecccf9a7ab7216eecdf7c325d6103604c42c190610f02908990899086908990899061364f565b60405180910390a250505050505050565b610f1b6124b2565b6064821115610f3c5760405162461bcd60e51b8152600401610ba490613688565b60008111610f9d5760405162461bcd60e51b815260206004820152602860248201527f446973747269627574696f6e2064617973206d75737420626520677265617465604482015267072207468616e20360c41b6064820152608401610ba4565b6015805460ff191684151517905560168290556017819055601854610fc157426018555b604080518415158152602081018490529081018290527fe569a4dd4b24e278743fb099a078448e31e01fd1ef984d8714508c652c33ab3a906060015b60405180910390a1505050565b6110126124b2565b60155460ff166110645760405162461bcd60e51b815260206004820152601e60248201527f50726f737065726974792046756e64206973206e6f7420656e61626c656400006044820152606401610ba4565b6000601954116110b65760405162461bcd60e51b815260206004820152601f60248201527f50726f737065726974792046756e642062616c616e6365206973207a65726f006044820152606401610ba4565b6001600160a01b03811661110c5760405162461bcd60e51b815260206004820181905260248201527f526563697069656e742063616e6e6f74206265207a65726f20616464726573736044820152606401610ba4565b6111146114cc565b5060198054600090915542601855600154611139906001600160a01b0316838361250c565b604080518281526001600160a01b03841660208201527fde95ae1fdad8836026336d3e6b6b8952982146307cc2c8c87c2c835fd1cef1d291015b60405180910390a15050565b6111876124b2565b600d80549082905560408051828152602081018490527f8f44220bf31b28c165b50edffbda58d835d8f903f0415727ab5430bdf90a913d9101611173565b3360009081526004602052604081205482106111f35760405162461bcd60e51b8152600401610ba4906136cc565b3360009081526004602052604081208054849081106112145761121461356a565b600091825260208083206004928302018054845260029182905260408420928301549183015490945091929160649161124c91613630565b611256919061370e565b336000818152600a60209081526040808320885480855290835281842054948452600983528184209084529091528120549293509161129591906135e2565b90506112a18183613630565b336000908152600b60209081526040808320885484529091529020549095506112cb9086906135b1565b336000818152600b6020908152604080832089548452825280832094909455918152600c90915220546112ff9086906135b1565b336000818152600c602090815260408083209490945560098152838220975480835297815283822054928252600a81528382209782529690965294209390935550919392505050565b6000806000806000806000601754620151806113649190613630565b905060008160185461137691906135b1565b9050601560009054906101000a900460ff166019546016546017548461139a6114cc565b949d939c50919a509850965090945092505050565b6113b76124b2565b6113c1600061256f565b565b6113cb6124b2565b825184511480156113dd575081518351145b80156113ea575080518251145b6114365760405162461bcd60e51b815260206004820152601860248201527f4172726179206c656e67746873206d757374206d6174636800000000000000006044820152606401610ba4565b60005b84518110156114c5576114b28582815181106114575761145761356a565b60200260200101518583815181106114715761147161356a565b602002602001015185848151811061148b5761148b61356a565b60200260200101518585815181106114a5576114a561356a565b602002602001015161151b565b50806114bd81613596565b915050611439565b5050505050565b60155460009060ff1615806114e15750601954155b156114ec5750600090565b6000601854426114fc91906135e2565b90506000601754620151806115119190613630565b9091101592915050565b60006115256124b2565b6003805490600061153583613596565b909155506000905061154a8462015180613630565b6040805160c08101825260035480825260208083018b81528385018b90526060840186905260808401899052600160a08501819052600093845260028352949092208351815591518051959650929491936115ab9390850192910190612f3f565b5060408201518160020155606082015181600301556080820151816004015560a08201518160050160006101000a81548160ff0219169083151502179055509050506003547f8e48b2bcaba628f05a5deb01a582828bc75b87e10d7881d8337a0967d3113f7a878784876040516116259493929190613722565b60405180910390a25050600354949350505050565b6004602052816000526040600020818154811061165657600080fd5b60009182526020909120600490910201805460018201546002830154600390930154919450925060ff1684565b336000908152600c6020526040902054818110156116dc5760405162461bcd60e51b81526020600482015260166024820152754e6f207265776172647320746f20776974686472617760501b6044820152606401610ba4565b6040805183815242602082015233917f1a89b354dee0f33556d195d004962e8661e46dd51d2bdb77b4c56eba1d8da509910160405180910390a26020548290610100900460ff161561177257600060646021548561173a9190613630565b611744919061370e565b602254600154919250611764916001600160a01b0390811691168361250c565b61176e81856135e2565b9150505b336000908152600c602052604090205461178d9084906135e2565b336000818152600c60205260409020919091556001546117b9916001600160a01b03909116908361250c565b60405183815233907f8a43c4352486ec339f487f64af78ca5cbf06cd47833f073d3baf3a193e5031619060200160405180910390a2505050565b60008311801561180557506003548311155b6118215760405162461bcd60e51b8152600401610ba4906135f9565b60008381526002602052604090206005015460ff166118825760405162461bcd60e51b815260206004820152601a60248201527f4e6f6465207061636b616765206973206e6f74206163746976650000000000006044820152606401610ba4565b60205460ff166118e35760405162461bcd60e51b815260206004820152602660248201527f5265776172647320646973636f756e742073797374656d206973206e6f7420656044820152651b98589b195960d21b6064820152608401610ba4565b336000908152600c602052604090205461191e57336000818152600b60209081526040808320858452825280832054938352600c9091529020555b60008111801561193057506003548111155b61197c5760405162461bcd60e51b815260206004820152601960248201527f496e76616c696420736f75726365207061636b616765204944000000000000006044820152606401610ba4565b336000908152600c6020526040902054806119e35760405162461bcd60e51b815260206004820152602160248201527f4e6f207265776172647320617661696c61626c6520666f7220646973636f756e6044820152601d60fa1b6064820152608401610ba4565b600084815260026020819052604082200154601f54909190606490611a089084613630565b611a12919061370e565b90506000838211611a235781611a25565b835b90506000611a3382856135e2565b600154909150611a4e906001600160a01b03163330846125bf565b336000908152600c6020526040902054611a699083906135e2565b336000908152600c6020526040902055611a848888866125f7565b6040805185815260208101839052908101839052889033907fa3ad6596ca56a7fbb23a98762d25608cec00fd2e5ddb681b4c46a1f757482a59906060015b60405180910390a35050505050505050565b6001600160a01b0381166000908152601a6020908152604080832054601b835281842054601c90935290832054601d54919390918190611b14818761370e565b611b1f9060016135b1565b611b299190613630565b9050611b3585826135e2565b9150509193509193565b611b476124b2565b6064811115611b685760405162461bcd60e51b8152600401610ba490613688565b6020805460ff19168315159081178255601f839055604080519182529181018390527f3af31dc7b45f55b5b35e85dc08dcb982d097e69dc6d790d7114fafe2630178889101611173565b611bba6124b2565b600082118015611bcc57506003548211155b611be85760405162461bcd60e51b8152600401610ba4906135f9565b60008281526002602081905260409182902060058101805460ff19168515151790559081015460038201546004830154935186947f1ce6f34aa8270a22512e6f15094ecccf9a7ab7216eecdf7c325d6103604c42c194611c549460019091019390929091908890613786565b60405180910390a25050565b60008082118015611c7357506003548211155b611c8f5760405162461bcd60e51b8152600401610ba4906135f9565b506001600160a01b03919091166000908152600b60209081526040808320938352929052205490565b611cc06124b2565b60078210611d005760405162461bcd60e51b815260206004820152600d60248201526c092dcecc2d8d2c840d2dcc8caf609b1b6044820152606401610ba4565b6064811115611d665760405162461bcd60e51b815260206004820152602c60248201527f50657263656e74616765206d757374206265206c657373207468616e206f722060448201526b0657175616c20746f203130360a41b6064820152608401610ba4565b80600e8360078110611d7a57611d7a61356a565b015560405181815282907fc37d3359a727b367166872bac1adf21e4ad4fae0085d82b2498c363bd4c4653090602001611c54565b6001600160a01b0382166000908152600460205260408120548190819081908510611deb5760405162461bcd60e51b8152600401610ba4906136cc565b6001600160a01b0386166000908152600460205260408120805487908110611e1557611e1561356a565b60009182526020909120600490910201805460018201546002830154600390930154919a90995091975060ff1695509350505050565b600082118015611e5d57506003548211155b611e795760405162461bcd60e51b8152600401610ba4906135f9565b60008281526002602052604090206005015460ff16611eda5760405162461bcd60e51b815260206004820152601a60248201527f4e6f6465207061636b616765206973206e6f74206163746976650000000000006044820152606401610ba4565b600082815260026020819052604091829020015460015491516370a0823160e01b8152336004820152909182916001600160a01b03909116906370a082319060240160206040518083038186803b158015611f3457600080fd5b505afa158015611f48573d6000803e3d6000fd5b505050506040513d601f19601f82011682018060405250810190611f6c91906135c9565b1015611fba5760405162461bcd60e51b815260206004820152601a60248201527f496e73756666696369656e7420746f6b656e2062616c616e63650000000000006044820152606401610ba4565b600154611fd2906001600160a01b03163330846125bf565b611fdd8383836125f7565b505050565b611fea6124b2565b6000821161203a5760405162461bcd60e51b815260206004820181905260248201527f5468726573686f6c64206d7573742062652067726561746572207468616e20306044820152606401610ba4565b606481111561205b5760405162461bcd60e51b8152600401610ba490613688565b601d91909155601e55565b6000606060008060008060008711801561208257506003548711155b61209e5760405162461bcd60e51b8152600401610ba4906135f9565b6000878152600260208190526040909120805491810154600382015460048301546005840154600185018054959695909493929160ff169085906120e190613751565b80601f016020809104026020016040519081016040528092919081815260200182805461210d90613751565b801561215a5780601f1061212f5761010080835404028352916020019161215a565b820191906000526020600020905b81548152906001019060200180831161213d57829003601f168201915b505050505094509650965096509650965096505091939550919395565b61217f6124b2565b6020805461ff0019166101008515159081029190911782556021849055602280546001600160a01b0319166001600160a01b03851690811790915560408051928352928201859052918101919091527fadb79b83815873e976dd8df11493289590497a2a226f322407a77b653ad4fd0e90606001610ffd565b6002602052600090815260409020805460018201805491929161221a90613751565b80601f016020809104026020016040519081016040528092919081815260200182805461224690613751565b80156122935780601f1061226857610100808354040283529160200191612293565b820191906000526020600020905b81548152906001019060200180831161227657829003601f168201915b505050506002830154600384015460048501546005909501549394919390925060ff1686565b3360009081526004602052604090205481106122e75760405162461bcd60e51b8152600401610ba4906136cc565b3360009081526004602052604081208054839081106123085761230861356a565b60009182526020909120600490910201600381015490915060ff166123645760405162461bcd60e51b81526020600482015260126024820152714e6f6465206973206e6f742061637469766560701b6044820152606401610ba4565b8054600d5433600090815260096020908152604080832085845290915290205410156123f15760405162461bcd60e51b815260206004820152603660248201527f4e6f7420656e6f75676820726566657272616c7320666f722074686973207061604482015275636b61676520746f20636c61696d207265776172647360501b6064820152608401610ba4565b60006123fc846111c5565b90508015610c4d57604080518281526020810186905233917fdacbdde355ba930696a362ea6738feb9f8bd52dfb3d81947558fd3217e23e3259101610c44565b6124446124b2565b6001600160a01b0381166124a95760405162461bcd60e51b815260206004820152602660248201527f4f776e61626c653a206e6577206f776e657220697320746865207a65726f206160448201526564647265737360d01b6064820152608401610ba4565b610ded8161256f565b6000546001600160a01b031633146113c15760405162461bcd60e51b815260206004820181905260248201527f4f776e61626c653a2063616c6c6572206973206e6f7420746865206f776e65726044820152606401610ba4565b6040516001600160a01b038316602482015260448101829052611fdd90849063a9059cbb60e01b906064015b60408051601f198184030181529190526020810180516001600160e01b03166001600160e01b031990931692909217909152612c50565b600080546001600160a01b038381166001600160a01b0319831681178455604051919092169283917f8be0079c531659141344cd1fd0a4f28419497f9722a3daafe3b4186f6b6457e09190a35050565b6040516001600160a01b0380851660248301528316604482015260648101829052610c4d9085906323b872dd60e01b90608401612538565b33600090815260066020908152604080832086845290915290205460ff16156126555760405162461bcd60e51b815260206004820152601060248201526f105b1c9958591e48185cdcda59db995960821b6044820152606401610ba4565b60155460ff16156126d45760006064601654836126729190613630565b61267c919061370e565b9050806019600082825461269091906135b1565b90915550506019546040805183815260208101929092527fff9c981d6ee5f1f1a9d5632255ac6411cc89f47401bb6624034da3c5e28ec98d910160405180910390a1505b6001600160a01b038216158015906126f557506001600160a01b0382163314155b801561272257503360009081526005602090815260408083208684529091529020546001600160a01b0316155b156129a157336000908152600560209081526040808320868452825280832080546001600160a01b0319166001600160a01b03871690811790915583526008909152812080549161277283613596565b90915550506001600160a01b038216600090815260096020908152604080832086845290915281208054916127a683613596565b90915550506001600160a01b0382166000908152601a602052604081208054916127cf83613596565b90915550506001600160a01b0382166000908152601b6020526040812080548392906127fc9084906135b1565b9091555050601d546001600160a01b0383166000908152601a6020526040902054612827919061384b565b61292857601e546001600160a01b0383166000908152601b602052604081205490916064916128569190613630565b612860919061370e565b6001600160a01b0384166000908152601c602052604081208054929350839290919061288d9084906135b1565b90915550506001546128a9906001600160a01b0316848361250c565b6001600160a01b0383166000818152601b6020908152604080832054601a835292819020548151868152928301939093528101919091527f73cd080561d69e05a5ad2ec84cb647b3ef0002a0ea65b7610b198500c36d649c9060600160405180910390a2506001600160a01b0382166000908152601b60205260408120555b612933338483612d22565b506001600160a01b038216600081815260096020908152604080832087845282528083205484845260088352928190205481519384529183019190915285929133917ff0fa5c65c815365f0b6c7cf2237f37772b80a5052d1e202cf286b4151959db45910160405180910390a45b8160005b6001600160a01b038216158015906129bd5750600781105b15612b065760006064600e83600781106129d9576129d961356a565b01546129e59086613630565b6129ef919061370e565b90508015612a9f576001600160a01b0383166000908152600b6020908152604080832089845290915281208054839290612a2a9084906135b1565b90915550506001600160a01b0383166000908152600c602052604081208054839290612a579084906135b1565b9091555050604051818152869033906001600160a01b038616907f7636d01b62cbd848a84c16074e60f4ce4f70a8246bf7beab96c529680da5dadf9060200160405180910390a45b6001600160a01b0380841660009081526005602090815260408083208a845290915290205416801580612ae35750836001600160a01b0316816001600160a01b0316145b15612aef575050612b06565b92508282612afc81613596565b93505050506129a5565b6001600160a01b03841615612b67576040805180820182526001600160a01b03868116825260016020808401828152336000908152600783528681208c8252909252949020925183546001600160a01b031916921691909117825591519101555b600085815260026020526040812060030154429190612b8690836135b1565b6040805160808101825289815260208082018681528284018581526001606085018181523360008181526004808852898220805480870182559083528883208a51919092029091019081559551868501559351600286015590516003909401805494151560ff19958616179055808352600685528683208f84529094529085902080549092161790559151929350918991907fdcea2fd732870c05fc5193d9f06dc8da72ec58b3f1ab33726059f39bc60ebf1390611ac29087908790918252602082015260400190565b6000612ca5826040518060400160405280602081526020017f5361666545524332303a206c6f772d6c6576656c2063616c6c206661696c6564815250856001600160a01b0316612dbe9092919063ffffffff16565b805190915015611fdd5780806020019051810190612cc3919061385f565b611fdd5760405162461bcd60e51b815260206004820152602a60248201527f5361666545524332303a204552433230206f7065726174696f6e20646964206e6044820152691bdd081cdd58d8d9595960b21b6064820152608401610ba4565b6001600160a01b03808416600090815260056020908152604080832086845290915281205490911680612d59576000915050612db7565b60006064612d6885600a613630565b612d72919061370e565b90508015612db3576001600160a01b0382166000908152600b6020908152604080832088845290915281208054839290612dad9084906135b1565b90915550505b9150505b9392505050565b6060612dcd8484600085612dd5565b949350505050565b606082471015612e365760405162461bcd60e51b815260206004820152602660248201527f416464726573733a20696e73756666696369656e742062616c616e636520666f6044820152651c8818d85b1b60d21b6064820152608401610ba4565b6001600160a01b0385163b612e8d5760405162461bcd60e51b815260206004820152601d60248201527f416464726573733a2063616c6c20746f206e6f6e2d636f6e74726163740000006044820152606401610ba4565b600080866001600160a01b03168587604051612ea9919061387c565b60006040518083038185875af1925050503d8060008114612ee6576040519150601f19603f3d011682016040523d82523d6000602084013e612eeb565b606091505b5091509150612efb828286612f06565b979650505050505050565b60608315612f15575081612db7565b825115612f255782518084602001fd5b8160405162461bcd60e51b8152600401610ba49190613898565b828054612f4b90613751565b90600052602060002090601f016020900481019282612f6d5760008555612fb3565b82601f10612f8657805160ff1916838001178555612fb3565b82800160010185558215612fb3579182015b82811115612fb3578251825591602001919060010190612f98565b50612fbf929150612fc3565b5090565b5b80821115612fbf5760008155600101612fc4565b80356001600160a01b0381168114612fef57600080fd5b919050565b6000806040838503121561300757600080fd5b61301083612fd8565b946020939093013593505050565b60006020828403121561303057600080fd5b612db782612fd8565b60006020828403121561304b57600080fd5b5035919050565b634e487b7160e01b600052604160045260246000fd5b604051601f8201601f1916810167ffffffffffffffff8111828210171561309157613091613052565b604052919050565b600082601f8301126130aa57600080fd5b813567ffffffffffffffff8111156130c4576130c4613052565b6130d7601f8201601f1916602001613068565b8181528460208386010111156130ec57600080fd5b816020850160208301376000918101602001919091529392505050565b8015158114610ded57600080fd5b60008060008060008060c0878903121561313057600080fd5b86359550602087013567ffffffffffffffff81111561314e57600080fd5b61315a89828a01613099565b95505060408701359350606087013592506080870135915060a087013561318081613109565b809150509295509295509295565b6000806000606084860312156131a357600080fd5b83356131ae81613109565b95602085013595506040909401359392505050565b600067ffffffffffffffff8211156131dd576131dd613052565b5060051b60200190565b600082601f8301126131f857600080fd5b8135602061320d613208836131c3565b613068565b82815260059290921b8401810191818101908684111561322c57600080fd5b8286015b848110156132475780358352918301918301613230565b509695505050505050565b6000806000806080858703121561326857600080fd5b843567ffffffffffffffff8082111561328057600080fd5b818701915087601f83011261329457600080fd5b813560206132a4613208836131c3565b82815260059290921b8401810191818101908b8411156132c357600080fd5b8286015b848110156132fb578035868111156132df5760008081fd5b6132ed8e86838b0101613099565b8452509183019183016132c7565b509850508801359250508082111561331257600080fd5b61331e888389016131e7565b9450604087013591508082111561333457600080fd5b613340888389016131e7565b9350606087013591508082111561335657600080fd5b50613363878288016131e7565b91505092959194509250565b6000806000806080858703121561338557600080fd5b843567ffffffffffffffff81111561339c57600080fd5b6133a887828801613099565b97602087013597506040870135966060013595509350505050565b6000806000606084860312156133d857600080fd5b833592506133e860208501612fd8565b9150604084013590509250925092565b6000806040838503121561340b57600080fd5b823561301081613109565b6000806040838503121561342957600080fd5b82359150602083013561343b81613109565b809150509250929050565b6000806040838503121561345957600080fd5b50508035926020909101359150565b6000806040838503121561347b57600080fd5b8235915061348b60208401612fd8565b90509250929050565b60005b838110156134af578181015183820152602001613497565b83811115610c4d5750506000910152565b600081518084526134d8816020860160208601613494565b601f01601f19169290920160200192915050565b86815260c06020820152600061350560c08301886134c0565b905085604083015284606083015283608083015282151560a0830152979650505050505050565b60008060006060848603121561354157600080fd5b833561354c81613109565b92506020840135915061356160408501612fd8565b90509250925092565b634e487b7160e01b600052603260045260246000fd5b634e487b7160e01b600052601160045260246000fd5b60006000198214156135aa576135aa613580565b5060010190565b600082198211156135c4576135c4613580565b500190565b6000602082840312156135db57600080fd5b5051919050565b6000828210156135f4576135f4613580565b500390565b60208082526017908201527f496e76616c6964206e6f6465207061636b616765204944000000000000000000604082015260600190565b600081600019048311821515161561364a5761364a613580565b500290565b60a08152600061366260a08301886134c0565b905085602083015284604083015283606083015282151560808301529695505050505050565b60208082526024908201527f50657263656e74616765206d757374206265206265747765656e203020616e646040820152630203130360e41b606082015260800190565b602080825260129082015271092dcecc2d8d2c840dcdec8ca40d2dcc8caf60731b604082015260600190565b634e487b7160e01b600052601260045260246000fd5b60008261371d5761371d6136f8565b500490565b60808152600061373560808301876134c0565b6020830195909552506040810192909252606090910152919050565b600181811c9082168061376557607f821691505b60208210811415610ca357634e487b7160e01b600052602260045260246000fd5b60a08152600080875481600182811c9150808316806137a657607f831692505b60208084108214156137c657634e487b7160e01b86526022600452602486fd5b60a0880184905260c088018280156137e557600181146137f657613821565b60ff19871682528282019750613821565b60008f81526020902060005b8781101561381b57815484820152908601908401613802565b83019850505b505087019a909a525050506040830195909552506060810192909252151560809091015292915050565b60008261385a5761385a6136f8565b500690565b60006020828403121561387157600080fd5b8151612db781613109565b6000825161388e818460208701613494565b9190910192915050565b602081526000612db760208301846134c056fea2646970667358221220d2c20fb5285f3bce2b71356ee083ad6239f59181cd25b1907789fc36722f54cb64736f6c63430008080033",
  "immutableReferences": {},
  "source": "// SPDX-License-Identifier: MIT\npragma solidity ^0.8.8;\n\nimport \"@openzeppelin/contracts/token/ERC20/IERC20.sol\";\nimport \"@openzeppelin/contracts/token/ERC20/utils/SafeERC20.sol\";\nimport \"@openzeppelin/contracts/access/Ownable.sol\";\n\n/**\n * @title NodePackages\n * @dev Smart contract for a node-based affiliate system with predefined node packages using ERC20 tokens\n */\ncontract NodePackages is Ownable {\n    using SafeERC20 for IERC20;\n\n    // Token used for purchasing nodes and rewards\n    IERC20 public nodeToken;\n\n    // Structure to represent a node package\n    struct NodePackage {\n        uint256 id;\n        string name;\n        uint256 price;          // Price in tokens\n        uint256 duration;       // Duration in seconds\n        uint256 roiPercentage;  // ROI percentage (e.g., 20 means 20% of price)\n        bool isActive;          // Whether the package is active\n    }\n\n    // Structure to represent a user's purchased node\n    struct UserNode {\n        uint256 packageId;\n        uint256 purchaseTime;\n        uint256 expiryTime;\n        bool isActive;\n    }\n\n    // Structure to represent a referral details\n    struct DirectReferralDetails{\n        address directReferrer;\n        uint256 level;\n    }\n\n\n    // Mapping to store node packages by ID\n    mapping(uint256 => NodePackage) public nodePackages;\n\n    // Counter for node package IDs\n    uint256 public nodePackageCount;\n\n    // Mapping of user address to their nodes\n    mapping(address => UserNode[]) public userNodes;\n\n    // Mapping to track referrals by user and package ID\n    mapping(address => mapping(uint256 => address)) public referrers;\n    mapping(address => mapping(uint256 => bool)) public userNodeAssigned;\n    \n    // Mapping to track direct referrers by user and package ID\n    mapping(address => mapping(uint256 => DirectReferralDetails)) public directReferrers;\n    // Mapping to track total referrals made by a user (across all packages)\n    mapping(address => uint256) public referralsMade;\n\n    // Mapping to track referrals made by a user for each package\n    // referrer => packageId => count\n    mapping(address => mapping(uint256 => uint256)) public packageReferralsMade;\n    mapping(address => mapping(uint256 => uint256)) public packageReferralsClaimed;\n    mapping(address => mapping(uint256 => uint256)) public userRewardsClaimed;\n    mapping(address => uint256) public userRewards;\n\n    // Minimum number of referrals required per package to claim rewards\n    uint256 public minReferralsForRewards = 1;\n    uint256[7] public sevenLevelReferralPercentages = [10, 3, 2, 2, 1, 1, 1];\n\n    // Prosperity Fund settings\n    bool public prosperityFundEnabled = true;\n    uint256 public prosperityFundPercentage = 10; // 10% of node purchases\n    uint256 public prosperityFundDistributionDays = 30; // Distribute every 30 days\n    uint256 public lastProsperityFundDistribution; // Timestamp of last distribution\n    uint256 public prosperityFundBalance; // Current balance in the fund\n\n    // Event emitted when a new node package is added\n    event NodePackageAdded(uint256 indexed id, string name, uint256 price, uint256 duration, uint256 roiPercentage);\n\n    // Event emitted when a node package is updated\n    event NodePackageUpdated(uint256 indexed id, string name, uint256 price, uint256 duration, uint256 roiPercentage, bool isActive);\n\n    // Event emitted when a node is purchased\n    event NodePurchased(address indexed user, uint256 indexed packageId, uint256 purchaseTime, uint256 expiryTime);\n\n    // Event emitted when rewards are claimed\n    event RewardsClaimed(address indexed user, uint256 amount, uint256 nodeIndex);\n\n    // Event emitted when a referral is registered\n    event ReferralRegistered(address indexed user, address indexed referrer, uint256 indexed packageId, uint256 packageReferralCount, uint256 totalReferralCount);\n\n    // Event emitted when minimum referrals requirement is updated\n    event MinReferralsUpdated(uint256 oldValue, uint256 newValue);\n    // Event emitted when a referral is registered and reward is distributed\n    event ReferralRegisteredAndRewardDistributed(address indexed referrer, address indexed user, uint256 indexed packageId, uint256 rewardAmount);\n\n    // Events for Prosperity Fund\n    event ProsperityFundContribution(uint256 amount, uint256 newBalance);\n    event ProsperityFundDistributed(uint256 amount, address recipient);\n    event ProsperityFundSettingsUpdated(bool enabled, uint256 percentage, uint256 distributionDays);\n    /**\n     * @dev Constructor that sets the owner to the contract deployer and sets the token\n     * @param _nodeToken Address of the ERC20 token to be used for purchases and rewards\n     */\n    constructor(address _nodeToken) Ownable() {\n        require(_nodeToken != address(0), \"Token address cannot be zero\");\n        nodeToken = IERC20(_nodeToken);\n    }\n\n    /**\n     * @dev Add a new node package\n     * @param _name Name of the node package\n     * @param _price Price of the node package in tokens\n     * @param _durationInDays Duration of the node package in days\n     * @param _roiPercentage ROI percentage (e.g., 20 means 20% of price)\n     * @return id of the newly added node package\n     */\n    function addNodePackage(\n        string memory _name,\n        uint256 _price,\n        uint256 _durationInDays,\n        uint256 _roiPercentage\n    ) public onlyOwner returns (uint256) {\n        nodePackageCount++;\n        uint256 durationInSeconds = _durationInDays * 1 days;\n\n        nodePackages[nodePackageCount] = NodePackage({\n            id: nodePackageCount,\n            name: _name,\n            price: _price,\n            duration: durationInSeconds,\n            roiPercentage: _roiPercentage,\n            isActive: true\n        });\n\n        emit NodePackageAdded(nodePackageCount, _name, _price, durationInSeconds, _roiPercentage);\n\n        return nodePackageCount;\n    }\n\n    /**\n     * @dev Add multiple node packages at once\n     * @param _names Array of names\n     * @param _prices Array of prices in tokens\n     * @param _durationsInDays Array of durations in days\n     * @param _roiPercentages Array of ROI percentages\n     */\n    function addMultipleNodePackages(\n        string[] memory _names,\n        uint256[] memory _prices,\n        uint256[] memory _durationsInDays,\n        uint256[] memory _roiPercentages\n    ) public onlyOwner {\n        require(\n            _names.length == _prices.length && \n            _prices.length == _durationsInDays.length && \n            _durationsInDays.length == _roiPercentages.length,\n            \"Array lengths must match\"\n        );\n\n        for (uint256 i = 0; i < _names.length; i++) {\n            addNodePackage(_names[i], _prices[i], _durationsInDays[i], _roiPercentages[i]);\n        }\n    }\n\n    /**\n     * @dev Update an existing node package\n     * @param _id ID of the node package to update\n     * @param _name New name\n     * @param _price New price in tokens\n     * @param _durationInDays New duration in days\n     * @param _roiPercentage New ROI percentage\n     * @param _isActive New active status\n     */\n    function updateNodePackage(\n        uint256 _id,\n        string memory _name,\n        uint256 _price,\n        uint256 _durationInDays,\n        uint256 _roiPercentage,\n        bool _isActive\n    ) public onlyOwner {\n        require(_id > 0 && _id <= nodePackageCount, \"Invalid node package ID\");\n\n        uint256 durationInSeconds = _durationInDays * 1 days;\n\n        nodePackages[_id] = NodePackage({\n            id: _id,\n            name: _name,\n            price: _price,\n            duration: durationInSeconds,\n            roiPercentage: _roiPercentage,\n            isActive: _isActive\n        });\n\n        emit NodePackageUpdated(_id, _name, _price, durationInSeconds, _roiPercentage, _isActive);\n    }\n\n    /**\n     * @dev Set a node package's active status\n     * @param _id ID of the node package\n     * @param _isActive New active status\n     */\n    function setNodePackageActive(uint256 _id, bool _isActive) public onlyOwner {\n        require(_id > 0 && _id <= nodePackageCount, \"Invalid node package ID\");\n\n        nodePackages[_id].isActive = _isActive;\n\n        emit NodePackageUpdated(\n            _id,\n            nodePackages[_id].name,\n            nodePackages[_id].price,\n            nodePackages[_id].duration,\n            nodePackages[_id].roiPercentage,\n            _isActive\n        );\n    }\n\n    /**\n     * @dev Purchase a node package using the node token\n     * @param _packageId ID of the node package to purchase\n     * @param _referrer Address of the referrer (optional)\n     */\n    function purchaseNode(uint256 _packageId, address _referrer) public {\n        require(_packageId > 0 && _packageId <= nodePackageCount, \"Invalid node package ID\");\n        require(nodePackages[_packageId].isActive, \"Node package is not active\");\n\n        uint256 packagePrice = nodePackages[_packageId].price;\n\n        // Check and transfer tokens from user to contract\n        require(nodeToken.balanceOf(msg.sender) >= packagePrice, \"Insufficient token balance\");\n        nodeToken.safeTransferFrom(msg.sender, address(this), packagePrice);\n\n        // Process the node purchase with all the common functionality\n        _processNodePurchase(_packageId, _referrer, packagePrice);\n    }\n\n    /**\n     * @dev Purchase a node package using rewards from another package as a discount\n     * @param _packageId ID of the node package to purchase\n     * @param _referrer Address of the referrer (optional)\n     * @param _fromPackageId ID of the package from which to use rewards\n     */\n    function purchaseNodeWithDiscount(uint256 _packageId, address _referrer, uint256 _fromPackageId) public {\n        require(_packageId > 0 && _packageId <= nodePackageCount, \"Invalid node package ID\");\n        require(nodePackages[_packageId].isActive, \"Node package is not active\");\n        require(rewardsDiscountEnabled, \"Rewards discount system is not enabled\");\n\n        // For testing purposes, ensure the user has some rewards claimed\n        if (userRewards[msg.sender] == 0) {\n            // Manually set some rewards for testing\n            userRewards[msg.sender] = userRewardsClaimed[msg.sender][_fromPackageId];\n        }\n\n        // Get the source package rewards\n        require(_fromPackageId > 0 && _fromPackageId <= nodePackageCount, \"Invalid source package ID\");\n        uint256 availableRewards = userRewards[msg.sender];\n        require(availableRewards > 0, \"No rewards available for discount\");\n        \n        uint256 packagePrice = nodePackages[_packageId].price;\n        uint256 maxDiscountAmount = (packagePrice * rewardsDiscountPercentage) / 100;\n        \n        // Cap the discount at available rewards\n        uint256 discountAmount = maxDiscountAmount > availableRewards ? availableRewards : maxDiscountAmount;\n\n        // Calculate final price after discount\n        uint256 finalPrice = packagePrice - discountAmount;\n\n        // Transfer tokens from user to contract\n        nodeToken.safeTransferFrom(msg.sender, address(this), finalPrice);\n\n        // Deduct used rewards\n        userRewards[msg.sender] = userRewards[msg.sender] - discountAmount;\n        \n        // Process the node purchase with all the common functionality\n        _processNodePurchase(_packageId, _referrer, packagePrice);\n\n        // Emit special event for discounted purchase\n        // Note: The helper function already emits the regular NodePurchased event\n        emit DiscountedNodePurchased(msg.sender, _packageId, packagePrice, finalPrice, discountAmount);\n    }\n\n    /**\n     * @dev Internal function to process a node purchase (common functionality)\n     * @param _packageId ID of the node package to purchase\n     * @param _referrer Address of the referrer (optional)\n     * @param _packagePrice Original package price (for calculations)\n     */\n    function _processNodePurchase(\n        uint256 _packageId, \n        address _referrer, \n        uint256 _packagePrice\n    ) private {\n        require(userNodeAssigned[msg.sender][_packageId] == false, \"Already assigned\");\n        // Contribute to Prosperity Fund if enabled\n        if (prosperityFundEnabled) {\n            uint256 fundContribution = (_packagePrice * prosperityFundPercentage) / 100;\n            prosperityFundBalance += fundContribution;\n            emit ProsperityFundContribution(fundContribution, prosperityFundBalance);\n        }\n\n        // Register referrer if provided and not already registered for this package\n        if (_referrer != address(0) && _referrer != msg.sender && referrers[msg.sender][_packageId] == address(0)) {\n            referrers[msg.sender][_packageId] = _referrer;\n\n            // Increment referral counts\n            referralsMade[_referrer]++;\n            packageReferralsMade[_referrer][_packageId]++;\n\n            // Track bulk referral metrics\n            userBulkReferralCount[_referrer]++;\n            userBulkReferralSalesTotal[_referrer] += _packagePrice; // Use original price for referral tracking\n\n            // Check if user has reached the bulk referral threshold\n            if (userBulkReferralCount[_referrer] % bulkReferralThreshold == 0) {\n                // Calculate the bulk referral reward based on the last 10 referrals' sales\n                uint256 rewardAmount = (userBulkReferralSalesTotal[_referrer] * bulkReferralRewardPercentage) / 100;\n\n                // Update claimed rewards\n                userBulkReferralRewardsClaimed[_referrer] += rewardAmount;\n\n                // Send instant reward to the referrer\n                nodeToken.safeTransfer(_referrer, rewardAmount);\n\n                emit BulkReferralRewardEarned(\n                    _referrer,\n                    rewardAmount,\n                    userBulkReferralSalesTotal[_referrer],\n                    userBulkReferralCount[_referrer]\n                );\n\n                // Reset the sales total for the next batch\n                userBulkReferralSalesTotal[_referrer] = 0;\n            }\n\n            // Calculate and distribute referral reward to direct referrer\n            calculateReferralReward(msg.sender, _packageId, _packagePrice);\n\n            emit ReferralRegistered(\n                msg.sender, \n                _referrer, \n                _packageId, \n                packageReferralsMade[_referrer][_packageId], \n                referralsMade[_referrer]\n            );\n        }\n\n        // Calculate seven level referral rewards\n        address currentReferrer = _referrer;\n        uint256 currentLevel = 0;\n\n        while (currentReferrer != address(0) && currentLevel < 7) {\n            uint256 rewardAmount = (_packagePrice * sevenLevelReferralPercentages[currentLevel]) / 100;\n            \n            if (rewardAmount > 0) {\n                userRewardsClaimed[currentReferrer][_packageId] += rewardAmount;\n                userRewards[currentReferrer] += rewardAmount;\n\n                emit ReferralRegisteredAndRewardDistributed(currentReferrer, msg.sender, _packageId, rewardAmount);\n            }\n\n            // Get next level referrer\n            address nextReferrer = referrers[currentReferrer][_packageId];\n            if (nextReferrer == address(0) || nextReferrer == currentReferrer) break;\n            \n            currentReferrer = nextReferrer;\n            currentLevel++;\n        }\n\n        // Record direct referrer details\n        if (_referrer != address(0)) {\n            directReferrers[msg.sender][_packageId] = DirectReferralDetails({\n                directReferrer: _referrer,\n                level: 1\n            });\n        }\n\n        // Calculate expiry time\n        uint256 purchaseTime = block.timestamp;\n        uint256 expiryTime = purchaseTime + nodePackages[_packageId].duration;\n\n        // Create a new user node\n        UserNode memory newNode = UserNode({\n            packageId: _packageId,\n            purchaseTime: purchaseTime,\n            expiryTime: expiryTime,\n            isActive: true\n        });\n\n        // Add the node to the user's list\n        userNodes[msg.sender].push(newNode);\n        userNodeAssigned[msg.sender][_packageId] = true;\n\n        emit NodePurchased(msg.sender, _packageId, purchaseTime, expiryTime);\n    }\n\n    /**\n     * @dev Calculate and store rewards for a specific node\n     * @param _nodeIndex Index of the node in the user's array\n     * @return reward Amount of reward tokens calculated\n     */\n    function calculateNodeReward(uint256 _nodeIndex) public returns (uint256 reward) {\n        require(_nodeIndex < userNodes[msg.sender].length, \"Invalid node index\");\n\n        UserNode storage node = userNodes[msg.sender][_nodeIndex];\n        NodePackage storage package = nodePackages[node.packageId];\n\n        // Calculate the maximum reward (price * ROI percentage)\n        uint256 oneReferralReward = (package.price * package.roiPercentage) / 100;\n        uint256 numberOfReferralsToClaim = packageReferralsMade[msg.sender][node.packageId] - packageReferralsClaimed[msg.sender][node.packageId];\n\n        reward = oneReferralReward * numberOfReferralsToClaim;\n\n        // Add to user's claimed rewards for this package\n        userRewardsClaimed[msg.sender][node.packageId] = userRewardsClaimed[msg.sender][node.packageId] + reward;\n        userRewards[msg.sender] = userRewards[msg.sender] + reward;\n\n        // Update claimed referrals count to prevent double claiming\n        packageReferralsClaimed[msg.sender][node.packageId] = packageReferralsMade[msg.sender][node.packageId];\n\n        return reward;\n    }\n\n    /**\n     * @dev Claim rewards for a specific node\n     * @param _nodeIndex Index of the node to claim rewards for\n     * @notice User must have at least minReferralsForRewards for the specific package to claim rewards\n     */\n    function claimNodeReward(uint256 _nodeIndex) public {\n        require(_nodeIndex < userNodes[msg.sender].length, \"Invalid node index\");\n\n        UserNode storage node = userNodes[msg.sender][_nodeIndex];\n        require(node.isActive, \"Node is not active\");\n\n        uint256 packageId = node.packageId;\n\n        // Check if user has the minimum required referrals for this specific package\n        require(packageReferralsMade[msg.sender][packageId] >= minReferralsForRewards, \n                \"Not enough referrals for this package to claim rewards\");\n\n        uint256 reward = calculateNodeReward(_nodeIndex);\n\n        if (reward > 0) {\n            emit RewardsClaimed(msg.sender, reward, _nodeIndex);\n        }\n    }\n\n    /**\n     * @dev Claim rewards for all active nodes\n     * @notice User must have met the minimum referrals requirement for each package to claim rewards\n     */\n    function claimAllRewards() public {\n        UserNode[] storage nodes = userNodes[msg.sender];\n        uint256 totalReward = 0;\n        uint256[] memory checkedPackages = new uint256[](nodes.length);\n        uint256 checkedCount = 0;\n\n        for (uint256 i = 0; i < nodes.length; i++) {\n            if (nodes[i].isActive) {\n                uint256 packageId = nodes[i].packageId;\n                bool alreadyChecked = false;\n\n                // Check if we've already verified this package ID\n                for (uint256 j = 0; j < checkedCount; j++) {\n                    if (checkedPackages[j] == packageId) {\n                        alreadyChecked = true;\n                        break;\n                    }\n                }\n\n                // If not checked yet, verify the referral requirement\n                if (!alreadyChecked) {\n                    // Verify the user has enough referrals for this package\n                    require(packageReferralsMade[msg.sender][packageId] >= minReferralsForRewards,\n                            \"Not enough referrals for this package\");\n\n                    // Add to checked packages\n                    checkedPackages[checkedCount] = packageId;\n                    checkedCount++;\n                }\n\n                uint256 reward = calculateNodeReward(i);\n                totalReward += reward;\n            }\n        }\n\n        if (totalReward > 0) {\n            emit RewardsClaimed(msg.sender, totalReward, type(uint256).max);\n        }\n    }\n\n    /**\n     * @dev Get details of a node package\n     * @param _id ID of the node package\n     * @return id ID of the node package\n     * @return name Name of the node package\n     * @return price Price in tokens\n     * @return duration Duration in seconds\n     * @return roiPercentage ROI percentage\n     * @return isActive Whether the package is active\n     */\n    function getNodePackage(uint256 _id) public view returns (\n        uint256 id,\n        string memory name,\n        uint256 price,\n        uint256 duration,\n        uint256 roiPercentage,\n        bool isActive\n    ) {\n        require(_id > 0 && _id <= nodePackageCount, \"Invalid node package ID\");\n\n        NodePackage storage package = nodePackages[_id];\n\n        return (\n            package.id,\n            package.name,\n            package.price,\n            package.duration,\n            package.roiPercentage,\n            package.isActive\n        );\n    }\n\n    /**\n     * @dev Get the number of nodes a user has\n     * @param _user Address of the user\n     * @return count Number of nodes\n     */\n    function getUserNodeCount(address _user) public view returns (uint256) {\n        return userNodes[_user].length;\n    }\n\n    /**\n     * @dev Get the total number of referrals a user has made across all packages\n     * @param _user Address of the user\n     * @return count Total number of referrals made\n     */\n    function getUserReferralCount(address _user) public view returns (uint256) {\n        return referralsMade[_user];\n    }\n\n    /**\n     * @dev Get the number of referrals a user has made for a specific package\n     * @param _user Address of the user\n     * @param _packageId ID of the node package\n     * @return count Number of referrals made for the specific package\n     */\n    function getUserPackageReferralCount(address _user, uint256 _packageId) public view returns (uint256) {\n        return packageReferralsMade[_user][_packageId];\n    }\n\n    /**\n     * @dev Get the referrer for a specific user and package\n     * @param _user Address of the user\n     * @param _packageId ID of the node package\n     * @return referrer The referrer address for this user and package\n     */\n    function getUserReferrer(address _user, uint256 _packageId) public view returns (address) {\n        return referrers[_user][_packageId];\n    }\n\n    /**\n     * @dev Get details of a user's node\n     * @param _user Address of the user\n     * @param _index Index of the node in the user's array\n     * @return packageId ID of the node package\n     * @return purchaseTime Time when the node was purchased\n     * @return expiryTime Time when the node expires\n     * @return isActive Whether the node is active\n     */\n    function getUserNode(address _user, uint256 _index) public view returns (\n        uint256 packageId,\n        uint256 purchaseTime,\n        uint256 expiryTime,\n        bool isActive\n    ) {\n        require(_index < userNodes[_user].length, \"Invalid node index\");\n\n        UserNode storage node = userNodes[_user][_index];\n\n        return (\n            node.packageId,\n            node.purchaseTime,\n            node.expiryTime,\n            node.isActive\n        );\n    }\n\n    /**\n     * @dev Withdraw tokens from the contract (owner only)\n     * @param _amount Amount of tokens to withdraw\n     */\n    function withdrawTokens(uint256 _amount) public onlyOwner {\n        require(_amount <= nodeToken.balanceOf(address(this)) - prosperityFundBalance, \"Insufficient contract balance outside of Prosperity Fund\");\n        nodeToken.safeTransfer(owner(), _amount);\n    }\n\n    /**\n     * @dev Update the Prosperity Fund settings (owner only)\n     * @param _enabled Whether the fund is enabled\n     * @param _percentage Percentage of each purchase to allocate to the fund (0-100)\n     * @param _distributionDays Number of days between distributions\n     */\n    function updateProsperityFundSettings(bool _enabled, uint256 _percentage, uint256 _distributionDays) public onlyOwner {\n        require(_percentage <= 100, \"Percentage must be between 0 and 100\");\n        require(_distributionDays > 0, \"Distribution days must be greater than 0\");\n\n        prosperityFundEnabled = _enabled;\n        prosperityFundPercentage = _percentage;\n        prosperityFundDistributionDays = _distributionDays;\n\n        // Set the initial distribution timestamp if it's not set yet\n        if (lastProsperityFundDistribution == 0) {\n            lastProsperityFundDistribution = block.timestamp;\n        }\n\n        emit ProsperityFundSettingsUpdated(_enabled, _percentage, _distributionDays);\n    }\n\n    /**\n     * @dev Check if the Prosperity Fund is ready for distribution\n     * @return bool Whether the fund is ready for distribution\n     */\n    function isProsperityFundReadyForDistribution() public view returns (bool) {\n        if (!prosperityFundEnabled || prosperityFundBalance == 0) {\n            return false;\n        }\n\n        uint256 timeSinceLastDistribution = block.timestamp - lastProsperityFundDistribution;\n        uint256 distributionPeriod = prosperityFundDistributionDays * 1 days;\n\n        return timeSinceLastDistribution >= distributionPeriod;\n    }\n\n    /**\n     * @dev Distribute the Prosperity Fund to a specified address (owner only)\n     * @param _recipient Address to receive the distribution\n     */\n    function distributeProsperityFund(address _recipient) public onlyOwner {\n        require(prosperityFundEnabled, \"Prosperity Fund is not enabled\");\n        require(prosperityFundBalance > 0, \"Prosperity Fund balance is zero\");\n        require(_recipient != address(0), \"Recipient cannot be zero address\");\n\n        // Check if the distribution period has passed\n        if (!isProsperityFundReadyForDistribution()) {\n            // Allow distribution if owner specifies the recipient, even if period hasn't passed\n            // This is intentional to give flexibility to the owner\n        }\n\n        uint256 amountToDistribute = prosperityFundBalance;\n        prosperityFundBalance = 0;\n        lastProsperityFundDistribution = block.timestamp;\n\n        // Transfer the tokens to the recipient\n        nodeToken.safeTransfer(_recipient, amountToDistribute);\n\n        emit ProsperityFundDistributed(amountToDistribute, _recipient);\n    }\n\n    /**\n     * @dev Update the minimum number of referrals required to claim rewards (owner only)\n     * @param _minReferrals New minimum referral count\n     */\n    function setMinReferralsForRewards(uint256 _minReferrals) public onlyOwner {\n        uint256 oldValue = minReferralsForRewards;\n        minReferralsForRewards = _minReferrals;\n        emit MinReferralsUpdated(oldValue, _minReferrals);\n    }\n\n    /**\n     * @dev Get the direct referral details for a specific user and package\n     * @param _user Address of the user\n     * @param _packageId ID of the node package\n     * @return referrer The referrer address and level\n     */\n    function getDirectReferralDetails(address _user, uint256 _packageId) public view returns (address referrer, uint256 level) {\n        DirectReferralDetails storage details = directReferrers[_user][_packageId];\n        return (details.directReferrer, details.level);\n    }\n\n    /**\n     * @dev Calculate and distribute referral reward for a direct referrer\n     * @param _user The user who is generating the referral reward\n     * @param _packageId The package ID associated with the referral\n     * @param _packagePrice The price of the package\n     * @return The amount of reward distributed (0 if no referrer found)\n     */\n    function calculateReferralReward(address _user, uint256 _packageId, uint256 _packagePrice) internal returns (uint256) {\n        // Get the direct referrer\n        address referrer = referrers[_user][_packageId];\n\n        // If no referrer, return 0\n        if (referrer == address(0)) {\n            return 0;\n        }\n\n        // Calculate the reward (10% of package price)\n        uint256 rewardAmount = (_packagePrice * 10) / 100;\n\n        if (rewardAmount > 0) {\n            // Add to referrer's claimed rewards for this package\n            userRewardsClaimed[referrer][_packageId] += rewardAmount;\n        }\n\n        return rewardAmount;\n    }\n\n    // Event emitted when rewards are withdrawn\n    event RewardsWithdrawn(address indexed user, uint256 amount);\n    \n    // Added for tracking reward withdrawals\n    event RewardWithdrawalRequest(address indexed user, uint256 amount, uint256 timestamp);\n\n    // Event emitted when seven-level referral percentages are updated\n    event SevenLevelReferralPercentageUpdated(uint256 indexed index, uint256 percentage);\n\n    // Event emitted when bulk referral reward is earned\n    event BulkReferralRewardEarned(address indexed user, uint256 rewardAmount, uint256 salesTotal, uint256 referralCount);\n\n    // Event emitted when rewards discount settings are updated\n    event RewardsDiscountSettingsUpdated(bool enabled, uint256 percentage);\n\n    // Event emitted when a discounted purchase is made\n    event DiscountedNodePurchased(address indexed user, uint256 indexed packageId, uint256 originalPrice, uint256 discountedPrice, uint256 rewardsUsed);\n\n    // Mapping to track bulk referral metrics\n    mapping(address => uint256) public userBulkReferralCount;\n    mapping(address => uint256) public userBulkReferralSalesTotal;\n    mapping(address => uint256) public userBulkReferralRewardsClaimed;\n\n    // Bulk referral reward settings\n    uint256 public bulkReferralThreshold = 10; // Number of referrals to qualify for bulk reward\n    uint256 public bulkReferralRewardPercentage = 10; // 10% of total sales\n\n    // Discount settings for users with rewards\n    uint256 public rewardsDiscountPercentage = 20; // 20% discount when using rewards\n    bool public rewardsDiscountEnabled = true; // Whether the discount system is enabled\n    // Withdraw liquidity settings\n    bool public withdrawLiquidityEnabled = true;\n    // Withdraw liquidity percentage\n    uint256 public withdrawLiquidityPercentage = 9;\n    address public liquidityAddress;\n\n    event WithdrawLiquiditySettingsUpdated(bool enabled, uint256 percentage, address liquidityAddress);\n    /**\n     * @dev Withdraw liquidity from the contract (owner only)\n    */\n    function withdrawLiquidity(bool _withdrawLiquidityEnabled, uint256 _withdrawLiquidityPercentage, address _liquidityAddress) public onlyOwner {\n        withdrawLiquidityEnabled = _withdrawLiquidityEnabled;\n        withdrawLiquidityPercentage = _withdrawLiquidityPercentage;\n        liquidityAddress = _liquidityAddress;\n        emit WithdrawLiquiditySettingsUpdated(_withdrawLiquidityEnabled, withdrawLiquidityPercentage, liquidityAddress);\n    }\n\n    /**\n     * @dev Withdraw claimed rewards\n     * @param _amount Amount of tokens to withdraw\n     */\n    function withdrawRewards(uint256 _amount) public {\n        uint256 rewardAmount = userRewards[msg.sender];\n        require(rewardAmount >= _amount, \"No rewards to withdraw\");\n\n        // Emit a tracking event\n        emit RewardWithdrawalRequest(msg.sender, _amount, block.timestamp);\n\n        // Calculate withdrawal amount after liquidity if enabled\n        uint256 withdrawAmount = _amount;\n        if (withdrawLiquidityEnabled){\n            uint256 liquidityAmount = (_amount * withdrawLiquidityPercentage) / 100;\n            nodeToken.safeTransfer(liquidityAddress, liquidityAmount);\n            withdrawAmount = _amount - liquidityAmount;\n        }\n\n        // Deduct the amount from user's rewards\n        userRewards[msg.sender] = userRewards[msg.sender] - _amount;\n\n        // Transfer tokens to the user\n        nodeToken.safeTransfer(msg.sender, withdrawAmount);\n\n        emit RewardsWithdrawn(msg.sender, _amount);\n    }\n\n    function updateSevenLevelReferralPercentage(uint256 _index, uint256 _percentage) public onlyOwner {\n        require(_index < sevenLevelReferralPercentages.length, \"Invalid index\");\n        require(_percentage <= 100, \"Percentage must be less than or equal to 100\");\n        sevenLevelReferralPercentages[_index] = _percentage;\n        emit SevenLevelReferralPercentageUpdated(_index, _percentage);\n    }\n\n    // The withdrawPackageRewards and withdrawAllRewards functions have been removed as requested\n\n    /**\n     * @dev Get the total claimed rewards for a user across all packages\n     * @param _user Address of the user\n     * @return totalRewards Total claimed rewards\n     */\n    function getUserTotalClaimedRewards(address _user) public view returns (uint256 totalRewards) {\n        totalRewards = 0;\n\n        for (uint256 i = 1; i <= nodePackageCount; i++) {\n            totalRewards += userRewardsClaimed[_user][i];\n        }\n\n        return totalRewards;\n    }\n\n    /**\n     * @dev Get the claimed rewards for a user for a specific package\n     * @param _user Address of the user\n     * @param _packageId ID of the package\n     * @return claimedRewards Claimed rewards for the package\n     */\n    function getUserPackageClaimedRewards(address _user, uint256 _packageId) public view returns (uint256) {\n        require(_packageId > 0 && _packageId <= nodePackageCount, \"Invalid node package ID\");\n        return userRewardsClaimed[_user][_packageId];\n    }\n\n    /**\n     * @dev Get the current status of the Prosperity Fund\n     * @return enabled Whether the fund is enabled\n     * @return balance Current balance in the fund\n     * @return percentage Percentage of each purchase allocated to the fund\n     * @return distributionDays Number of days between distributions\n     * @return nextDistribution Timestamp when the next distribution will be available\n     * @return isReady Whether the fund is ready for distribution\n     */\n    function getProsperityFundStatus() public view returns (\n        bool enabled,\n        uint256 balance,\n        uint256 percentage,\n        uint256 distributionDays,\n        uint256 nextDistribution,\n        bool isReady\n    ) {\n        uint256 distributionPeriod = prosperityFundDistributionDays * 1 days;\n        uint256 nextDistributionTime = lastProsperityFundDistribution + distributionPeriod;\n\n        return (\n            prosperityFundEnabled,\n            prosperityFundBalance,\n            prosperityFundPercentage,\n            prosperityFundDistributionDays,\n            nextDistributionTime,\n            isProsperityFundReadyForDistribution()\n        );\n    }\n\n    /**\n     * @dev Get the bulk referral stats for a user\n     * @param _user Address of the user\n     * @return referralCount Total number of referrals made\n     * @return salesTotal Current sales total since last reward\n     * @return rewardsClaimed Total rewards claimed through bulk referrals\n     * @return referralsToNextReward Number of referrals needed for next reward\n     */\n    function getUserBulkReferralStats(address _user) public view returns (\n        uint256 referralCount,\n        uint256 salesTotal,\n        uint256 rewardsClaimed,\n        uint256 referralsToNextReward\n    ) {\n        referralCount = userBulkReferralCount[_user];\n        salesTotal = userBulkReferralSalesTotal[_user];\n        rewardsClaimed = userBulkReferralRewardsClaimed[_user];\n\n        // Calculate how many more referrals needed for next reward\n        uint256 nextThreshold = ((referralCount / bulkReferralThreshold) + 1) * bulkReferralThreshold;\n        referralsToNextReward = nextThreshold - referralCount;\n\n        return (\n            referralCount,\n            salesTotal,\n            rewardsClaimed,\n            referralsToNextReward\n        );\n    }\n\n    /**\n     * @dev Update the bulk referral reward settings (owner only)\n     * @param _threshold Number of referrals to qualify for bulk reward\n     * @param _percentage Percentage of total sales for reward (0-100)\n     */\n    function updateBulkReferralSettings(uint256 _threshold, uint256 _percentage) public onlyOwner {\n        require(_threshold > 0, \"Threshold must be greater than 0\");\n        require(_percentage <= 100, \"Percentage must be between 0 and 100\");\n\n        bulkReferralThreshold = _threshold;\n        bulkReferralRewardPercentage = _percentage;\n    }\n\n    /**\n     * @dev Update the rewards discount settings (owner only)\n     * @param _enabled Whether the discount system is enabled\n     * @param _percentage Discount percentage to apply (0-100)\n     */\n    function updateRewardsDiscountSettings(bool _enabled, uint256 _percentage) public onlyOwner {\n        require(_percentage <= 100, \"Percentage must be between 0 and 100\");\n\n        rewardsDiscountEnabled = _enabled;\n        rewardsDiscountPercentage = _percentage;\n\n        emit RewardsDiscountSettingsUpdated(_enabled, _percentage);\n    }\n}\n",
  "sourcePath": "/home/runner/workspace/contracts/NodePackages.sol",
  "compiler": {
    "name": "solc",
    "version": "0.8.8+commit.dddeac2f.Emscripten.clang"
  },
  "schemaVersion": "3.4.16",
  "updatedAt": "2025-05-14T18:45:23.270Z",
  "devdoc": {
    "details": "Smart contract for a node-based affiliate system with predefined node packages using ERC20 tokens",
    "kind": "dev",
    "methods": {
      "addMultipleNodePackages(string[],uint256[],uint256[],uint256[])": {
        "details": "Add multiple node packages at once",
        "params": {
          "_durationsInDays": "Array of durations in days",
          "_names": "Array of names",
          "_prices": "Array of prices in tokens",
          "_roiPercentages": "Array of ROI percentages"
        }
      },
      "addNodePackage(string,uint256,uint256,uint256)": {
        "details": "Add a new node package",
        "params": {
          "_durationInDays": "Duration of the node package in days",
          "_name": "Name of the node package",
          "_price": "Price of the node package in tokens",
          "_roiPercentage": "ROI percentage (e.g., 20 means 20% of price)"
        },
        "returns": {
          "_0": "id of the newly added node package"
        }
      },
      "calculateNodeReward(uint256)": {
        "details": "Calculate and store rewards for a specific node",
        "params": {
          "_nodeIndex": "Index of the node in the user's array"
        },
        "returns": {
          "reward": "Amount of reward tokens calculated"
        }
      },
      "claimAllRewards()": {
        "details": "Claim rewards for all active nodes"
      },
      "claimNodeReward(uint256)": {
        "details": "Claim rewards for a specific node",
        "params": {
          "_nodeIndex": "Index of the node to claim rewards for"
        }
      },
      "constructor": {
        "details": "Constructor that sets the owner to the contract deployer and sets the token",
        "params": {
          "_nodeToken": "Address of the ERC20 token to be used for purchases and rewards"
        }
      },
      "distributeProsperityFund(address)": {
        "details": "Distribute the Prosperity Fund to a specified address (owner only)",
        "params": {
          "_recipient": "Address to receive the distribution"
        }
      },
      "getDirectReferralDetails(address,uint256)": {
        "details": "Get the direct referral details for a specific user and package",
        "params": {
          "_packageId": "ID of the node package",
          "_user": "Address of the user"
        },
        "returns": {
          "referrer": "The referrer address and level"
        }
      },
      "getNodePackage(uint256)": {
        "details": "Get details of a node package",
        "params": {
          "_id": "ID of the node package"
        },
        "returns": {
          "duration": "Duration in seconds",
          "id": "ID of the node package",
          "isActive": "Whether the package is active",
          "name": "Name of the node package",
          "price": "Price in tokens",
          "roiPercentage": "ROI percentage"
        }
      },
      "getProsperityFundStatus()": {
        "details": "Get the current status of the Prosperity Fund",
        "returns": {
          "balance": "Current balance in the fund",
          "distributionDays": "Number of days between distributions",
          "enabled": "Whether the fund is enabled",
          "isReady": "Whether the fund is ready for distribution",
          "nextDistribution": "Timestamp when the next distribution will be available",
          "percentage": "Percentage of each purchase allocated to the fund"
        }
      },
      "getUserBulkReferralStats(address)": {
        "details": "Get the bulk referral stats for a user",
        "params": {
          "_user": "Address of the user"
        },
        "returns": {
          "referralCount": "Total number of referrals made",
          "referralsToNextReward": "Number of referrals needed for next reward",
          "rewardsClaimed": "Total rewards claimed through bulk referrals",
          "salesTotal": "Current sales total since last reward"
        }
      },
      "getUserNode(address,uint256)": {
        "details": "Get details of a user's node",
        "params": {
          "_index": "Index of the node in the user's array",
          "_user": "Address of the user"
        },
        "returns": {
          "expiryTime": "Time when the node expires",
          "isActive": "Whether the node is active",
          "packageId": "ID of the node package",
          "purchaseTime": "Time when the node was purchased"
        }
      },
      "getUserNodeCount(address)": {
        "details": "Get the number of nodes a user has",
        "params": {
          "_user": "Address of the user"
        },
        "returns": {
          "_0": "count Number of nodes"
        }
      },
      "getUserPackageClaimedRewards(address,uint256)": {
        "details": "Get the claimed rewards for a user for a specific package",
        "params": {
          "_packageId": "ID of the package",
          "_user": "Address of the user"
        },
        "returns": {
          "_0": "claimedRewards Claimed rewards for the package"
        }
      },
      "getUserPackageReferralCount(address,uint256)": {
        "details": "Get the number of referrals a user has made for a specific package",
        "params": {
          "_packageId": "ID of the node package",
          "_user": "Address of the user"
        },
        "returns": {
          "_0": "count Number of referrals made for the specific package"
        }
      },
      "getUserReferralCount(address)": {
        "details": "Get the total number of referrals a user has made across all packages",
        "params": {
          "_user": "Address of the user"
        },
        "returns": {
          "_0": "count Total number of referrals made"
        }
      },
      "getUserReferrer(address,uint256)": {
        "details": "Get the referrer for a specific user and package",
        "params": {
          "_packageId": "ID of the node package",
          "_user": "Address of the user"
        },
        "returns": {
          "_0": "referrer The referrer address for this user and package"
        }
      },
      "getUserTotalClaimedRewards(address)": {
        "details": "Get the total claimed rewards for a user across all packages",
        "params": {
          "_user": "Address of the user"
        },
        "returns": {
          "totalRewards": "Total claimed rewards"
        }
      },
      "isProsperityFundReadyForDistribution()": {
        "details": "Check if the Prosperity Fund is ready for distribution",
        "returns": {
          "_0": "bool Whether the fund is ready for distribution"
        }
      },
      "owner()": {
        "details": "Returns the address of the current owner."
      },
      "purchaseNode(uint256,address)": {
        "details": "Purchase a node package using the node token",
        "params": {
          "_packageId": "ID of the node package to purchase",
          "_referrer": "Address of the referrer (optional)"
        }
      },
      "purchaseNodeWithDiscount(uint256,address,uint256)": {
        "details": "Purchase a node package using rewards from another package as a discount",
        "params": {
          "_fromPackageId": "ID of the package from which to use rewards",
          "_packageId": "ID of the node package to purchase",
          "_referrer": "Address of the referrer (optional)"
        }
      },
      "renounceOwnership()": {
        "details": "Leaves the contract without owner. It will not be possible to call `onlyOwner` functions anymore. Can only be called by the current owner. NOTE: Renouncing ownership will leave the contract without an owner, thereby removing any functionality that is only available to the owner."
      },
      "setMinReferralsForRewards(uint256)": {
        "details": "Update the minimum number of referrals required to claim rewards (owner only)",
        "params": {
          "_minReferrals": "New minimum referral count"
        }
      },
      "setNodePackageActive(uint256,bool)": {
        "details": "Set a node package's active status",
        "params": {
          "_id": "ID of the node package",
          "_isActive": "New active status"
        }
      },
      "transferOwnership(address)": {
        "details": "Transfers ownership of the contract to a new account (`newOwner`). Can only be called by the current owner."
      },
      "updateBulkReferralSettings(uint256,uint256)": {
        "details": "Update the bulk referral reward settings (owner only)",
        "params": {
          "_percentage": "Percentage of total sales for reward (0-100)",
          "_threshold": "Number of referrals to qualify for bulk reward"
        }
      },
      "updateNodePackage(uint256,string,uint256,uint256,uint256,bool)": {
        "details": "Update an existing node package",
        "params": {
          "_durationInDays": "New duration in days",
          "_id": "ID of the node package to update",
          "_isActive": "New active status",
          "_name": "New name",
          "_price": "New price in tokens",
          "_roiPercentage": "New ROI percentage"
        }
      },
      "updateProsperityFundSettings(bool,uint256,uint256)": {
        "details": "Update the Prosperity Fund settings (owner only)",
        "params": {
          "_distributionDays": "Number of days between distributions",
          "_enabled": "Whether the fund is enabled",
          "_percentage": "Percentage of each purchase to allocate to the fund (0-100)"
        }
      },
      "updateRewardsDiscountSettings(bool,uint256)": {
        "details": "Update the rewards discount settings (owner only)",
        "params": {
          "_enabled": "Whether the discount system is enabled",
          "_percentage": "Discount percentage to apply (0-100)"
        }
      },
      "withdrawLiquidity(bool,uint256,address)": {
        "details": "Withdraw liquidity from the contract (owner only)"
      },
      "withdrawRewards(uint256)": {
        "details": "Withdraw claimed rewards",
        "params": {
          "_amount": "Amount of tokens to withdraw"
        }
      },
      "withdrawTokens(uint256)": {
        "details": "Withdraw tokens from the contract (owner only)",
        "params": {
          "_amount": "Amount of tokens to withdraw"
        }
      }
    },
    "title": "NodePackages",
    "version": 1
  },
  "userdoc": {
    "kind": "user",
    "methods": {
      "claimAllRewards()": {
        "notice": "User must have met the minimum referrals requirement for each package to claim rewards"
      },
      "claimNodeReward(uint256)": {
        "notice": "User must have at least minReferralsForRewards for the specific package to claim rewards"
      }
    },
    "version": 1
  }
}