{
  "contractName": "NodePackages",
  "abi": [
    {
      "inputs": [
        {
          "internalType": "address",
          "name": "_nodeToken",
          "type": "address"
        }
      ],
      "stateMutability": "nonpayable",
      "type": "constructor"
    },
    {
      "anonymous": false,
      "inputs": [
        {
          "indexed": true,
          "internalType": "address",
          "name": "user",
          "type": "address"
        },
        {
          "indexed": false,
          "internalType": "uint256",
          "name": "boosterReward",
          "type": "uint256"
        },
        {
          "indexed": false,
          "internalType": "uint256",
          "name": "packageId",
          "type": "uint256"
        }
      ],
      "name": "AddBoosterReward",
      "type": "event"
    },
    {
      "anonymous": false,
      "inputs": [
        {
          "indexed": true,
          "internalType": "address",
          "name": "adminWallet",
          "type": "address"
        },
        {
          "indexed": false,
          "internalType": "uint256",
          "name": "amount",
          "type": "uint256"
        },
        {
          "indexed": false,
          "internalType": "uint256",
          "name": "totalCollected",
          "type": "uint256"
        }
      ],
      "name": "AdminMarketingBonusCollected",
      "type": "event"
    },
    {
      "anonymous": false,
      "inputs": [
        {
          "indexed": false,
          "internalType": "bool",
          "name": "enabled",
          "type": "bool"
        },
        {
          "indexed": false,
          "internalType": "uint256",
          "name": "percentage",
          "type": "uint256"
        },
        {
          "indexed": false,
          "internalType": "address",
          "name": "adminWallet",
          "type": "address"
        }
      ],
      "name": "AdminMarketingBonusSettingsUpdated",
      "type": "event"
    },
    {
      "anonymous": false,
      "inputs": [
        {
          "indexed": true,
          "internalType": "address",
          "name": "user",
          "type": "address"
        },
        {
          "indexed": false,
          "internalType": "uint256",
          "name": "rewardAmount",
          "type": "uint256"
        },
        {
          "indexed": false,
          "internalType": "uint256",
          "name": "salesTotal",
          "type": "uint256"
        },
        {
          "indexed": false,
          "internalType": "uint256",
          "name": "referralCount",
          "type": "uint256"
        },
        {
          "indexed": false,
          "internalType": "uint256",
          "name": "_packageId",
          "type": "uint256"
        }
      ],
      "name": "BulkReferralRewardEarned",
      "type": "event"
    },
    {
      "anonymous": false,
      "inputs": [
        {
          "indexed": true,
          "internalType": "address",
          "name": "user",
          "type": "address"
        },
        {
          "indexed": true,
          "internalType": "uint256",
          "name": "packageId",
          "type": "uint256"
        },
        {
          "indexed": false,
          "internalType": "uint256",
          "name": "originalPrice",
          "type": "uint256"
        },
        {
          "indexed": false,
          "internalType": "uint256",
          "name": "discountedPrice",
          "type": "uint256"
        },
        {
          "indexed": false,
          "internalType": "uint256",
          "name": "rewardsUsed",
          "type": "uint256"
        }
      ],
      "name": "DiscountedNodePurchased",
      "type": "event"
    },
    {
      "anonymous": false,
      "inputs": [
        {
          "indexed": true,
          "internalType": "address",
          "name": "user",
          "type": "address"
        },
        {
          "indexed": false,
          "internalType": "uint256",
          "name": "packageId",
          "type": "uint256"
        },
        {
          "indexed": false,
          "internalType": "uint256",
          "name": "feeAmount",
          "type": "uint256"
        },
        {
          "indexed": false,
          "internalType": "uint256",
          "name": "percentage",
          "type": "uint256"
        },
        {
          "indexed": false,
          "internalType": "uint256",
          "name": "totalCollected",
          "type": "uint256"
        }
      ],
      "name": "FirstTimeUserFeeCollected",
      "type": "event"
    },
    {
      "anonymous": false,
      "inputs": [
        {
          "indexed": false,
          "internalType": "uint256",
          "name": "percentage",
          "type": "uint256"
        },
        {
          "indexed": false,
          "internalType": "address",
          "name": "feeAddress",
          "type": "address"
        }
      ],
      "name": "FirstTimeUserFeeSettingsUpdated",
      "type": "event"
    },
    {
      "anonymous": false,
      "inputs": [
        {
          "indexed": false,
          "internalType": "bool",
          "name": "enabled",
          "type": "bool"
        },
        {
          "indexed": false,
          "internalType": "uint256",
          "name": "percentage",
          "type": "uint256"
        },
        {
          "indexed": false,
          "internalType": "address",
          "name": "liquidityAddress",
          "type": "address"
        }
      ],
      "name": "LiquidityWithdrawalSettingsUpdated",
      "type": "event"
    },
    {
      "anonymous": false,
      "inputs": [
        {
          "indexed": true,
          "internalType": "address",
          "name": "user",
          "type": "address"
        },
        {
          "indexed": false,
          "internalType": "address",
          "name": "liquidityAddress",
          "type": "address"
        },
        {
          "indexed": false,
          "internalType": "uint256",
          "name": "amount",
          "type": "uint256"
        },
        {
          "indexed": false,
          "internalType": "uint256",
          "name": "percentage",
          "type": "uint256"
        },
        {
          "indexed": false,
          "internalType": "uint256",
          "name": "totalWithdrawn",
          "type": "uint256"
        }
      ],
      "name": "LiquidityWithdrawn",
      "type": "event"
    },
    {
      "anonymous": false,
      "inputs": [
        {
          "indexed": false,
          "internalType": "uint256",
          "name": "oldValue",
          "type": "uint256"
        },
        {
          "indexed": false,
          "internalType": "uint256",
          "name": "newValue",
          "type": "uint256"
        }
      ],
      "name": "MinReferralsUpdated",
      "type": "event"
    },
    {
      "anonymous": false,
      "inputs": [
        {
          "indexed": true,
          "internalType": "uint256",
          "name": "id",
          "type": "uint256"
        },
        {
          "indexed": false,
          "internalType": "string",
          "name": "name",
          "type": "string"
        },
        {
          "indexed": false,
          "internalType": "uint256",
          "name": "price",
          "type": "uint256"
        },
        {
          "indexed": false,
          "internalType": "uint256",
          "name": "duration",
          "type": "uint256"
        },
        {
          "indexed": false,
          "internalType": "uint256",
          "name": "roiPercentage",
          "type": "uint256"
        }
      ],
      "name": "NodePackageAdded",
      "type": "event"
    },
    {
      "anonymous": false,
      "inputs": [
        {
          "indexed": true,
          "internalType": "uint256",
          "name": "id",
          "type": "uint256"
        },
        {
          "indexed": false,
          "internalType": "string",
          "name": "name",
          "type": "string"
        },
        {
          "indexed": false,
          "internalType": "uint256",
          "name": "price",
          "type": "uint256"
        },
        {
          "indexed": false,
          "internalType": "uint256",
          "name": "duration",
          "type": "uint256"
        },
        {
          "indexed": false,
          "internalType": "uint256",
          "name": "roiPercentage",
          "type": "uint256"
        },
        {
          "indexed": false,
          "internalType": "bool",
          "name": "isActive",
          "type": "bool"
        }
      ],
      "name": "NodePackageUpdated",
      "type": "event"
    },
    {
      "anonymous": false,
      "inputs": [
        {
          "indexed": true,
          "internalType": "address",
          "name": "user",
          "type": "address"
        },
        {
          "indexed": true,
          "internalType": "uint256",
          "name": "packageId",
          "type": "uint256"
        },
        {
          "indexed": false,
          "internalType": "uint256",
          "name": "purchaseTime",
          "type": "uint256"
        },
        {
          "indexed": false,
          "internalType": "uint256",
          "name": "expiryTime",
          "type": "uint256"
        },
        {
          "indexed": false,
          "internalType": "uint256",
          "name": "currentNodeId",
          "type": "uint256"
        }
      ],
      "name": "NodePurchased",
      "type": "event"
    },
    {
      "anonymous": false,
      "inputs": [
        {
          "indexed": true,
          "internalType": "address",
          "name": "previousOwner",
          "type": "address"
        },
        {
          "indexed": true,
          "internalType": "address",
          "name": "newOwner",
          "type": "address"
        }
      ],
      "name": "OwnershipTransferred",
      "type": "event"
    },
    {
      "anonymous": false,
      "inputs": [
        {
          "indexed": true,
          "internalType": "uint256",
          "name": "packageId",
          "type": "uint256"
        },
        {
          "indexed": true,
          "internalType": "uint256",
          "name": "cycle",
          "type": "uint256"
        },
        {
          "indexed": false,
          "internalType": "uint256",
          "name": "amount",
          "type": "uint256"
        },
        {
          "indexed": false,
          "internalType": "uint256",
          "name": "newBalance",
          "type": "uint256"
        }
      ],
      "name": "PackageProsperityFundContribution",
      "type": "event"
    },
    {
      "anonymous": false,
      "inputs": [
        {
          "indexed": true,
          "internalType": "uint256",
          "name": "packageId",
          "type": "uint256"
        },
        {
          "indexed": true,
          "internalType": "uint256",
          "name": "cycle",
          "type": "uint256"
        },
        {
          "indexed": false,
          "internalType": "uint256",
          "name": "amount",
          "type": "uint256"
        },
        {
          "indexed": false,
          "internalType": "address",
          "name": "recipient",
          "type": "address"
        }
      ],
      "name": "PackageProsperityFundDistributed",
      "type": "event"
    },
    {
      "anonymous": false,
      "inputs": [
        {
          "indexed": false,
          "internalType": "uint256",
          "name": "amount",
          "type": "uint256"
        },
        {
          "indexed": false,
          "internalType": "uint256",
          "name": "newBalance",
          "type": "uint256"
        }
      ],
      "name": "ProsperityFundContribution",
      "type": "event"
    },
    {
      "anonymous": false,
      "inputs": [
        {
          "indexed": false,
          "internalType": "uint256",
          "name": "amount",
          "type": "uint256"
        },
        {
          "indexed": false,
          "internalType": "address",
          "name": "recipient",
          "type": "address"
        }
      ],
      "name": "ProsperityFundDistributed",
      "type": "event"
    },
    {
      "anonymous": false,
      "inputs": [
        {
          "indexed": false,
          "internalType": "bool",
          "name": "enabled",
          "type": "bool"
        },
        {
          "indexed": false,
          "internalType": "uint256",
          "name": "percentage",
          "type": "uint256"
        },
        {
          "indexed": false,
          "internalType": "uint256",
          "name": "distributionDays",
          "type": "uint256"
        }
      ],
      "name": "ProsperityFundSettingsUpdated",
      "type": "event"
    },
    {
      "anonymous": false,
      "inputs": [
        {
          "indexed": true,
          "internalType": "address",
          "name": "user",
          "type": "address"
        },
        {
          "indexed": true,
          "internalType": "address",
          "name": "referrer",
          "type": "address"
        },
        {
          "indexed": true,
          "internalType": "uint256",
          "name": "packageId",
          "type": "uint256"
        },
        {
          "indexed": false,
          "internalType": "uint256",
          "name": "packageReferralCount",
          "type": "uint256"
        },
        {
          "indexed": false,
          "internalType": "uint256",
          "name": "totalReferralCount",
          "type": "uint256"
        }
      ],
      "name": "ReferralRegistered",
      "type": "event"
    },
    {
      "anonymous": false,
      "inputs": [
        {
          "indexed": true,
          "internalType": "address",
          "name": "referrer",
          "type": "address"
        },
        {
          "indexed": true,
          "internalType": "address",
          "name": "user",
          "type": "address"
        },
        {
          "indexed": true,
          "internalType": "uint256",
          "name": "packageId",
          "type": "uint256"
        },
        {
          "indexed": false,
          "internalType": "uint256",
          "name": "rewardAmount",
          "type": "uint256"
        },
        {
          "indexed": false,
          "internalType": "uint256",
          "name": "level",
          "type": "uint256"
        }
      ],
      "name": "ReferralRegisteredAndRewardDistributed",
      "type": "event"
    },
    {
      "anonymous": false,
      "inputs": [
        {
          "indexed": true,
          "internalType": "address",
          "name": "user",
          "type": "address"
        },
        {
          "indexed": false,
          "internalType": "uint256",
          "name": "amount",
          "type": "uint256"
        },
        {
          "indexed": false,
          "internalType": "uint256",
          "name": "timestamp",
          "type": "uint256"
        }
      ],
      "name": "RewardWithdrawalRequest",
      "type": "event"
    },
    {
      "anonymous": false,
      "inputs": [
        {
          "indexed": true,
          "internalType": "address",
          "name": "user",
          "type": "address"
        },
        {
          "indexed": false,
          "internalType": "uint256",
          "name": "amount",
          "type": "uint256"
        },
        {
          "indexed": false,
          "internalType": "uint256",
          "name": "nodeIndex",
          "type": "uint256"
        }
      ],
      "name": "RewardsClaimed",
      "type": "event"
    },
    {
      "anonymous": false,
      "inputs": [
        {
          "indexed": false,
          "internalType": "bool",
          "name": "enabled",
          "type": "bool"
        },
        {
          "indexed": false,
          "internalType": "uint256",
          "name": "percentage",
          "type": "uint256"
        }
      ],
      "name": "RewardsDiscountSettingsUpdated",
      "type": "event"
    },
    {
      "anonymous": false,
      "inputs": [
        {
          "indexed": true,
          "internalType": "address",
          "name": "user",
          "type": "address"
        },
        {
          "indexed": false,
          "internalType": "uint256",
          "name": "amount",
          "type": "uint256"
        }
      ],
      "name": "RewardsWithdrawn",
      "type": "event"
    },
    {
      "anonymous": false,
      "inputs": [
        {
          "indexed": true,
          "internalType": "uint256",
          "name": "index",
          "type": "uint256"
        },
        {
          "indexed": false,
          "internalType": "uint256",
          "name": "percentage",
          "type": "uint256"
        }
      ],
      "name": "SevenLevelReferralPercentageUpdated",
      "type": "event"
    },
    {
      "anonymous": false,
      "inputs": [
        {
          "indexed": false,
          "internalType": "uint256",
          "name": "boosterPercentage",
          "type": "uint256"
        }
      ],
      "name": "UpdateBoosterPercentage",
      "type": "event"
    },
    {
      "anonymous": false,
      "inputs": [
        {
          "indexed": true,
          "internalType": "address",
          "name": "user",
          "type": "address"
        },
        {
          "indexed": false,
          "internalType": "uint256",
          "name": "amount",
          "type": "uint256"
        },
        {
          "indexed": false,
          "internalType": "uint256",
          "name": "nodeIndex",
          "type": "uint256"
        }
      ],
      "name": "UserHoldReward",
      "type": "event"
    },
    {
      "anonymous": false,
      "inputs": [
        {
          "indexed": true,
          "internalType": "address",
          "name": "user",
          "type": "address"
        },
        {
          "indexed": false,
          "internalType": "uint256",
          "name": "amount",
          "type": "uint256"
        },
        {
          "indexed": false,
          "internalType": "uint256",
          "name": "nodeIndex",
          "type": "uint256"
        },
        {
          "indexed": false,
          "internalType": "address",
          "name": "referral",
          "type": "address"
        },
        {
          "indexed": false,
          "internalType": "uint256",
          "name": "level",
          "type": "uint256"
        }
      ],
      "name": "UserHoldRewardLevel",
      "type": "event"
    },
    {
      "anonymous": false,
      "inputs": [
        {
          "indexed": true,
          "internalType": "address",
          "name": "user",
          "type": "address"
        },
        {
          "indexed": true,
          "internalType": "uint256",
          "name": "packageId",
          "type": "uint256"
        }
      ],
      "name": "UserRegistered",
      "type": "event"
    },
    {
      "anonymous": false,
      "inputs": [
        {
          "indexed": true,
          "internalType": "address",
          "name": "user",
          "type": "address"
        },
        {
          "indexed": false,
          "internalType": "uint256",
          "name": "amount",
          "type": "uint256"
        },
        {
          "indexed": false,
          "internalType": "uint256",
          "name": "nodeIndex",
          "type": "uint256"
        }
      ],
      "name": "UserReleaseReward",
      "type": "event"
    },
    {
      "anonymous": false,
      "inputs": [
        {
          "indexed": true,
          "internalType": "address",
          "name": "user",
          "type": "address"
        },
        {
          "indexed": false,
          "internalType": "uint256",
          "name": "amount",
          "type": "uint256"
        },
        {
          "indexed": false,
          "internalType": "uint256",
          "name": "nodeIndex",
          "type": "uint256"
        },
        {
          "indexed": false,
          "internalType": "address",
          "name": "referral",
          "type": "address"
        },
        {
          "indexed": false,
          "internalType": "uint256",
          "name": "level",
          "type": "uint256"
        }
      ],
      "name": "UserReleaseRewardLevel",
      "type": "event"
    },
    {
      "inputs": [
        {
          "internalType": "string[]",
          "name": "_names",
          "type": "string[]"
        },
        {
          "internalType": "uint256[]",
          "name": "_prices",
          "type": "uint256[]"
        },
        {
          "internalType": "uint256[]",
          "name": "_durationsInDays",
          "type": "uint256[]"
        },
        {
          "internalType": "uint256[]",
          "name": "_roiPercentages",
          "type": "uint256[]"
        }
      ],
      "name": "addMultipleNodePackages",
      "outputs": [],
      "stateMutability": "nonpayable",
      "type": "function"
    },
    {
      "inputs": [
        {
          "internalType": "string",
          "name": "_name",
          "type": "string"
        },
        {
          "internalType": "uint256",
          "name": "_price",
          "type": "uint256"
        },
        {
          "internalType": "uint256",
          "name": "_durationInDays",
          "type": "uint256"
        },
        {
          "internalType": "uint256",
          "name": "_roiPercentage",
          "type": "uint256"
        }
      ],
      "name": "addNodePackage",
      "outputs": [
        {
          "internalType": "uint256",
          "name": "",
          "type": "uint256"
        }
      ],
      "stateMutability": "nonpayable",
      "type": "function"
    },
    {
      "inputs": [],
      "name": "boosterPercentage",
      "outputs": [
        {
          "internalType": "uint256",
          "name": "",
          "type": "uint256"
        }
      ],
      "stateMutability": "view",
      "type": "function"
    },
    {
      "inputs": [],
      "name": "bulkReferralRewardPercentage",
      "outputs": [
        {
          "internalType": "uint256",
          "name": "",
          "type": "uint256"
        }
      ],
      "stateMutability": "view",
      "type": "function"
    },
    {
      "inputs": [],
      "name": "bulkReferralThreshold",
      "outputs": [
        {
          "internalType": "uint256",
          "name": "",
          "type": "uint256"
        }
      ],
      "stateMutability": "view",
      "type": "function"
    },
    {
      "inputs": [],
      "name": "currentNodeId",
      "outputs": [
        {
          "internalType": "uint256",
          "name": "",
          "type": "uint256"
        }
      ],
      "stateMutability": "view",
      "type": "function"
    },
    {
      "inputs": [],
      "name": "currentProsperityFundCycle",
      "outputs": [
        {
          "internalType": "uint256",
          "name": "",
          "type": "uint256"
        }
      ],
      "stateMutability": "view",
      "type": "function"
    },
    {
      "inputs": [
        {
          "internalType": "address",
          "name": "",
          "type": "address"
        },
        {
          "internalType": "uint256",
          "name": "",
          "type": "uint256"
        }
      ],
      "name": "directReferrers",
      "outputs": [
        {
          "internalType": "address",
          "name": "directReferrer",
          "type": "address"
        },
        {
          "internalType": "uint256",
          "name": "level",
          "type": "uint256"
        }
      ],
      "stateMutability": "view",
      "type": "function"
    },
    {
      "inputs": [
        {
          "internalType": "address",
          "name": "_recipient",
          "type": "address"
        }
      ],
      "name": "distributeAllPackageProsperityFunds",
      "outputs": [
        {
          "internalType": "uint256",
          "name": "totalDistributed",
          "type": "uint256"
        }
      ],
      "stateMutability": "nonpayable",
      "type": "function"
    },
    {
      "inputs": [
        {
          "internalType": "uint256",
          "name": "_packageId",
          "type": "uint256"
        },
        {
          "internalType": "address",
          "name": "_recipient",
          "type": "address"
        }
      ],
      "name": "distributePackageProsperityFund",
      "outputs": [],
      "stateMutability": "nonpayable",
      "type": "function"
    },
    {
      "inputs": [],
      "name": "firstTimeUserFee",
      "outputs": [
        {
          "internalType": "uint256",
          "name": "",
          "type": "uint256"
        }
      ],
      "stateMutability": "view",
      "type": "function"
    },
    {
      "inputs": [],
      "name": "firstTimeUserFeeAddress",
      "outputs": [
        {
          "internalType": "address",
          "name": "",
          "type": "address"
        }
      ],
      "stateMutability": "view",
      "type": "function"
    },
    {
      "inputs": [],
      "name": "getAllNodes",
      "outputs": [
        {
          "components": [
            {
              "internalType": "uint256",
              "name": "id",
              "type": "uint256"
            },
            {
              "internalType": "string",
              "name": "name",
              "type": "string"
            },
            {
              "internalType": "uint256",
              "name": "price",
              "type": "uint256"
            },
            {
              "internalType": "uint256",
              "name": "duration",
              "type": "uint256"
            },
            {
              "internalType": "uint256",
              "name": "roiPercentage",
              "type": "uint256"
            },
            {
              "internalType": "bool",
              "name": "isActive",
              "type": "bool"
            }
          ],
          "internalType": "struct NodePackages.NodePackage[]",
          "name": "packages",
          "type": "tuple[]"
        }
      ],
      "stateMutability": "view",
      "type": "function"
    },
    {
      "inputs": [],
      "name": "getAllPackageProsperityFundBalances",
      "outputs": [
        {
          "internalType": "uint256[]",
          "name": "packageIds",
          "type": "uint256[]"
        },
        {
          "internalType": "uint256[]",
          "name": "balances",
          "type": "uint256[]"
        }
      ],
      "stateMutability": "view",
      "type": "function"
    },
    {
      "inputs": [],
      "name": "getContractBalance",
      "outputs": [
        {
          "internalType": "uint256",
          "name": "",
          "type": "uint256"
        }
      ],
      "stateMutability": "view",
      "type": "function"
    },
    {
      "inputs": [
        {
          "internalType": "address",
          "name": "_user",
          "type": "address"
        },
        {
          "internalType": "uint256",
          "name": "_packageId",
          "type": "uint256"
        }
      ],
      "name": "getDirectReferralDetails",
      "outputs": [
        {
          "internalType": "address",
          "name": "referrer",
          "type": "address"
        },
        {
          "internalType": "uint256",
          "name": "level",
          "type": "uint256"
        }
      ],
      "stateMutability": "view",
      "type": "function"
    },
    {
      "inputs": [],
      "name": "getFirstTimeUserFeeSettings",
      "outputs": [
        {
          "internalType": "uint256",
          "name": "fee",
          "type": "uint256"
        },
        {
          "internalType": "address",
          "name": "feeAddr",
          "type": "address"
        },
        {
          "internalType": "uint256",
          "name": "totalCollected",
          "type": "uint256"
        }
      ],
      "stateMutability": "view",
      "type": "function"
    },
    {
      "inputs": [],
      "name": "getLiquidityWithdrawalSettings",
      "outputs": [
        {
          "internalType": "bool",
          "name": "enabled",
          "type": "bool"
        },
        {
          "internalType": "uint256",
          "name": "percentage",
          "type": "uint256"
        },
        {
          "internalType": "address",
          "name": "liquidityAddr",
          "type": "address"
        },
        {
          "internalType": "uint256",
          "name": "totalWithdrawn",
          "type": "uint256"
        }
      ],
      "stateMutability": "view",
      "type": "function"
    },
    {
      "inputs": [
        {
          "internalType": "uint256",
          "name": "_id",
          "type": "uint256"
        }
      ],
      "name": "getNodePackage",
      "outputs": [
        {
          "internalType": "uint256",
          "name": "id",
          "type": "uint256"
        },
        {
          "internalType": "string",
          "name": "name",
          "type": "string"
        },
        {
          "internalType": "uint256",
          "name": "price",
          "type": "uint256"
        },
        {
          "internalType": "uint256",
          "name": "duration",
          "type": "uint256"
        },
        {
          "internalType": "uint256",
          "name": "roiPercentage",
          "type": "uint256"
        },
        {
          "internalType": "bool",
          "name": "isActive",
          "type": "bool"
        }
      ],
      "stateMutability": "view",
      "type": "function"
    },
    {
      "inputs": [
        {
          "internalType": "uint256",
          "name": "_packageId",
          "type": "uint256"
        },
        {
          "internalType": "uint256",
          "name": "_cycle",
          "type": "uint256"
        }
      ],
      "name": "getPackageProsperityFundBalance",
      "outputs": [
        {
          "internalType": "uint256",
          "name": "balance",
          "type": "uint256"
        }
      ],
      "stateMutability": "view",
      "type": "function"
    },
    {
      "inputs": [],
      "name": "getProsperityFundStatus",
      "outputs": [
        {
          "internalType": "bool",
          "name": "enabled",
          "type": "bool"
        },
        {
          "internalType": "uint256",
          "name": "balance",
          "type": "uint256"
        },
        {
          "internalType": "uint256",
          "name": "percentage",
          "type": "uint256"
        },
        {
          "internalType": "uint256",
          "name": "distributionDays",
          "type": "uint256"
        },
        {
          "internalType": "uint256",
          "name": "nextDistribution",
          "type": "uint256"
        },
        {
          "internalType": "bool",
          "name": "isReady",
          "type": "bool"
        }
      ],
      "stateMutability": "view",
      "type": "function"
    },
    {
      "inputs": [
        {
          "internalType": "address",
          "name": "_user",
          "type": "address"
        },
        {
          "internalType": "uint256",
          "name": "_packageId",
          "type": "uint256"
        }
      ],
      "name": "getUserAscensionBonusStats",
      "outputs": [
        {
          "internalType": "uint256",
          "name": "referralCount",
          "type": "uint256"
        },
        {
          "internalType": "uint256",
          "name": "salesTotal",
          "type": "uint256"
        },
        {
          "internalType": "uint256",
          "name": "rewardsClaimed",
          "type": "uint256"
        },
        {
          "internalType": "uint256",
          "name": "referralsToNextReward",
          "type": "uint256"
        }
      ],
      "stateMutability": "view",
      "type": "function"
    },
    {
      "inputs": [
        {
          "internalType": "address",
          "name": "_user",
          "type": "address"
        },
        {
          "internalType": "uint256",
          "name": "_index",
          "type": "uint256"
        }
      ],
      "name": "getUserNode",
      "outputs": [
        {
          "internalType": "uint256",
          "name": "packageId",
          "type": "uint256"
        },
        {
          "internalType": "uint256",
          "name": "purchaseTime",
          "type": "uint256"
        },
        {
          "internalType": "uint256",
          "name": "expiryTime",
          "type": "uint256"
        },
        {
          "internalType": "bool",
          "name": "isActive",
          "type": "bool"
        },
        {
          "internalType": "uint256",
          "name": "nodeId",
          "type": "uint256"
        }
      ],
      "stateMutability": "view",
      "type": "function"
    },
    {
      "inputs": [
        {
          "internalType": "address",
          "name": "_user",
          "type": "address"
        },
        {
          "internalType": "uint256",
          "name": "_packageId",
          "type": "uint256"
        }
      ],
      "name": "getUserPackageClaimedRewards",
      "outputs": [
        {
          "internalType": "uint256",
          "name": "",
          "type": "uint256"
        }
      ],
      "stateMutability": "view",
      "type": "function"
    },
    {
      "inputs": [
        {
          "internalType": "address",
          "name": "_user",
          "type": "address"
        },
        {
          "internalType": "uint256",
          "name": "_packageId",
          "type": "uint256"
        }
      ],
      "name": "getUserPackageReferralCount",
      "outputs": [
        {
          "internalType": "uint256",
          "name": "",
          "type": "uint256"
        }
      ],
      "stateMutability": "view",
      "type": "function"
    },
    {
      "inputs": [
        {
          "internalType": "address",
          "name": "_user",
          "type": "address"
        }
      ],
      "name": "getUserReferralCount",
      "outputs": [
        {
          "internalType": "uint256",
          "name": "",
          "type": "uint256"
        }
      ],
      "stateMutability": "view",
      "type": "function"
    },
    {
      "inputs": [
        {
          "internalType": "address",
          "name": "_user",
          "type": "address"
        },
        {
          "internalType": "uint256",
          "name": "_packageId",
          "type": "uint256"
        }
      ],
      "name": "getUserReferrer",
      "outputs": [
        {
          "internalType": "address",
          "name": "",
          "type": "address"
        }
      ],
      "stateMutability": "view",
      "type": "function"
    },
    {
      "inputs": [
        {
          "internalType": "address",
          "name": "_user",
          "type": "address"
        }
      ],
      "name": "getUserTotalClaimedRewards",
      "outputs": [
        {
          "internalType": "uint256",
          "name": "totalRewards",
          "type": "uint256"
        }
      ],
      "stateMutability": "view",
      "type": "function"
    },
    {
      "inputs": [],
      "name": "getWalletsCount",
      "outputs": [
        {
          "internalType": "uint256",
          "name": "",
          "type": "uint256"
        }
      ],
      "stateMutability": "view",
      "type": "function"
    },
    {
      "inputs": [
        {
          "internalType": "address",
          "name": "user",
          "type": "address"
        }
      ],
      "name": "hasUserMadePurchase",
      "outputs": [
        {
          "internalType": "bool",
          "name": "hasPurchased",
          "type": "bool"
        }
      ],
      "stateMutability": "view",
      "type": "function"
    },
    {
      "inputs": [
        {
          "internalType": "address",
          "name": "",
          "type": "address"
        }
      ],
      "name": "hasUserPurchased",
      "outputs": [
        {
          "internalType": "bool",
          "name": "",
          "type": "bool"
        }
      ],
      "stateMutability": "view",
      "type": "function"
    },
    {
      "inputs": [
        {
          "internalType": "uint256",
          "name": "_packageId",
          "type": "uint256"
        }
      ],
      "name": "isPackageProsperityFundReadyForDistribution",
      "outputs": [
        {
          "internalType": "bool",
          "name": "",
          "type": "bool"
        }
      ],
      "stateMutability": "view",
      "type": "function"
    },
    {
      "inputs": [],
      "name": "isProsperityFundReadyForDistribution",
      "outputs": [
        {
          "internalType": "bool",
          "name": "",
          "type": "bool"
        }
      ],
      "stateMutability": "view",
      "type": "function"
    },
    {
      "inputs": [],
      "name": "lastProsperityFundDistribution",
      "outputs": [
        {
          "internalType": "uint256",
          "name": "",
          "type": "uint256"
        }
      ],
      "stateMutability": "view",
      "type": "function"
    },
    {
      "inputs": [],
      "name": "liquidityAddress",
      "outputs": [
        {
          "internalType": "address",
          "name": "",
          "type": "address"
        }
      ],
      "stateMutability": "view",
      "type": "function"
    },
    {
      "inputs": [
        {
          "internalType": "address",
          "name": "",
          "type": "address"
        }
      ],
      "name": "mainReferrer",
      "outputs": [
        {
          "internalType": "address",
          "name": "",
          "type": "address"
        }
      ],
      "stateMutability": "view",
      "type": "function"
    },
    {
      "inputs": [],
      "name": "minReferralsForRewards",
      "outputs": [
        {
          "internalType": "uint256",
          "name": "",
          "type": "uint256"
        }
      ],
      "stateMutability": "view",
      "type": "function"
    },
    {
      "inputs": [
        {
          "internalType": "uint256",
          "name": "",
          "type": "uint256"
        },
        {
          "internalType": "uint256",
          "name": "",
          "type": "uint256"
        }
      ],
      "name": "monthlyPackageReferrals",
      "outputs": [
        {
          "internalType": "uint256",
          "name": "",
          "type": "uint256"
        }
      ],
      "stateMutability": "view",
      "type": "function"
    },
    {
      "inputs": [],
      "name": "nodePackageCount",
      "outputs": [
        {
          "internalType": "uint256",
          "name": "",
          "type": "uint256"
        }
      ],
      "stateMutability": "view",
      "type": "function"
    },
    {
      "inputs": [
        {
          "internalType": "uint256",
          "name": "",
          "type": "uint256"
        }
      ],
      "name": "nodePackages",
      "outputs": [
        {
          "internalType": "uint256",
          "name": "id",
          "type": "uint256"
        },
        {
          "internalType": "string",
          "name": "name",
          "type": "string"
        },
        {
          "internalType": "uint256",
          "name": "price",
          "type": "uint256"
        },
        {
          "internalType": "uint256",
          "name": "duration",
          "type": "uint256"
        },
        {
          "internalType": "uint256",
          "name": "roiPercentage",
          "type": "uint256"
        },
        {
          "internalType": "bool",
          "name": "isActive",
          "type": "bool"
        }
      ],
      "stateMutability": "view",
      "type": "function"
    },
    {
      "inputs": [],
      "name": "nodeToken",
      "outputs": [
        {
          "internalType": "contract IERC20",
          "name": "",
          "type": "address"
        }
      ],
      "stateMutability": "view",
      "type": "function"
    },
    {
      "inputs": [],
      "name": "owner",
      "outputs": [
        {
          "internalType": "address",
          "name": "",
          "type": "address"
        }
      ],
      "stateMutability": "view",
      "type": "function"
    },
    {
      "inputs": [
        {
          "internalType": "uint256",
          "name": "",
          "type": "uint256"
        },
        {
          "internalType": "uint256",
          "name": "",
          "type": "uint256"
        }
      ],
      "name": "packageLastDistribution",
      "outputs": [
        {
          "internalType": "uint256",
          "name": "",
          "type": "uint256"
        }
      ],
      "stateMutability": "view",
      "type": "function"
    },
    {
      "inputs": [
        {
          "internalType": "uint256",
          "name": "",
          "type": "uint256"
        },
        {
          "internalType": "uint256",
          "name": "",
          "type": "uint256"
        }
      ],
      "name": "packageProsperityFundBalance",
      "outputs": [
        {
          "internalType": "uint256",
          "name": "",
          "type": "uint256"
        }
      ],
      "stateMutability": "view",
      "type": "function"
    },
    {
      "inputs": [
        {
          "internalType": "address",
          "name": "",
          "type": "address"
        },
        {
          "internalType": "uint256",
          "name": "",
          "type": "uint256"
        }
      ],
      "name": "packageReferralsClaimed",
      "outputs": [
        {
          "internalType": "uint256",
          "name": "",
          "type": "uint256"
        }
      ],
      "stateMutability": "view",
      "type": "function"
    },
    {
      "inputs": [
        {
          "internalType": "address",
          "name": "",
          "type": "address"
        },
        {
          "internalType": "uint256",
          "name": "",
          "type": "uint256"
        }
      ],
      "name": "packageReferralsMade",
      "outputs": [
        {
          "internalType": "uint256",
          "name": "",
          "type": "uint256"
        }
      ],
      "stateMutability": "view",
      "type": "function"
    },
    {
      "inputs": [],
      "name": "prosperityFundBalance",
      "outputs": [
        {
          "internalType": "uint256",
          "name": "",
          "type": "uint256"
        }
      ],
      "stateMutability": "view",
      "type": "function"
    },
    {
      "inputs": [
        {
          "internalType": "uint256",
          "name": "",
          "type": "uint256"
        },
        {
          "internalType": "uint256",
          "name": "",
          "type": "uint256"
        }
      ],
      "name": "prosperityFundCyclePackageReferrals",
      "outputs": [
        {
          "internalType": "uint256",
          "name": "",
          "type": "uint256"
        }
      ],
      "stateMutability": "view",
      "type": "function"
    },
    {
      "inputs": [],
      "name": "prosperityFundDistributionDays",
      "outputs": [
        {
          "internalType": "uint256",
          "name": "",
          "type": "uint256"
        }
      ],
      "stateMutability": "view",
      "type": "function"
    },
    {
      "inputs": [],
      "name": "prosperityFundEnabled",
      "outputs": [
        {
          "internalType": "bool",
          "name": "",
          "type": "bool"
        }
      ],
      "stateMutability": "view",
      "type": "function"
    },
    {
      "inputs": [],
      "name": "prosperityFundPercentage",
      "outputs": [
        {
          "internalType": "uint256",
          "name": "",
          "type": "uint256"
        }
      ],
      "stateMutability": "view",
      "type": "function"
    },
    {
      "inputs": [
        {
          "internalType": "uint256",
          "name": "_packageId",
          "type": "uint256"
        },
        {
          "internalType": "address",
          "name": "_referrer",
          "type": "address"
        }
      ],
      "name": "purchaseNode",
      "outputs": [],
      "stateMutability": "nonpayable",
      "type": "function"
    },
    {
      "inputs": [
        {
          "internalType": "uint256",
          "name": "_packageId",
          "type": "uint256"
        },
        {
          "internalType": "address",
          "name": "_referrer",
          "type": "address"
        }
      ],
      "name": "purchaseNodeWithDiscount",
      "outputs": [],
      "stateMutability": "nonpayable",
      "type": "function"
    },
    {
      "inputs": [
        {
          "internalType": "address",
          "name": "",
          "type": "address"
        }
      ],
      "name": "referralSet",
      "outputs": [
        {
          "internalType": "bool",
          "name": "",
          "type": "bool"
        }
      ],
      "stateMutability": "view",
      "type": "function"
    },
    {
      "inputs": [
        {
          "internalType": "address",
          "name": "",
          "type": "address"
        }
      ],
      "name": "referralsMade",
      "outputs": [
        {
          "internalType": "uint256",
          "name": "",
          "type": "uint256"
        }
      ],
      "stateMutability": "view",
      "type": "function"
    },
    {
      "inputs": [
        {
          "internalType": "address",
          "name": "",
          "type": "address"
        },
        {
          "internalType": "uint256",
          "name": "",
          "type": "uint256"
        }
      ],
      "name": "referrers",
      "outputs": [
        {
          "internalType": "address",
          "name": "",
          "type": "address"
        }
      ],
      "stateMutability": "view",
      "type": "function"
    },
    {
      "inputs": [
        {
          "internalType": "address",
          "name": "",
          "type": "address"
        }
      ],
      "name": "registered",
      "outputs": [
        {
          "internalType": "bool",
          "name": "",
          "type": "bool"
        }
      ],
      "stateMutability": "view",
      "type": "function"
    },
    {
      "inputs": [],
      "name": "renounceOwnership",
      "outputs": [],
      "stateMutability": "nonpayable",
      "type": "function"
    },
    {
      "inputs": [],
      "name": "rewardsDiscountEnabled",
      "outputs": [
        {
          "internalType": "bool",
          "name": "",
          "type": "bool"
        }
      ],
      "stateMutability": "view",
      "type": "function"
    },
    {
      "inputs": [],
      "name": "rewardsDiscountPercentage",
      "outputs": [
        {
          "internalType": "uint256",
          "name": "",
          "type": "uint256"
        }
      ],
      "stateMutability": "view",
      "type": "function"
    },
    {
      "inputs": [
        {
          "internalType": "uint256",
          "name": "_minReferrals",
          "type": "uint256"
        }
      ],
      "name": "setMinReferralsForRewards",
      "outputs": [],
      "stateMutability": "nonpayable",
      "type": "function"
    },
    {
      "inputs": [
        {
          "internalType": "uint256",
          "name": "_id",
          "type": "uint256"
        },
        {
          "internalType": "bool",
          "name": "_isActive",
          "type": "bool"
        }
      ],
      "name": "setNodePackageActive",
      "outputs": [],
      "stateMutability": "nonpayable",
      "type": "function"
    },
    {
      "inputs": [
        {
          "internalType": "uint256",
          "name": "",
          "type": "uint256"
        }
      ],
      "name": "sevenLevelReferralPercentages",
      "outputs": [
        {
          "internalType": "uint256",
          "name": "",
          "type": "uint256"
        }
      ],
      "stateMutability": "view",
      "type": "function"
    },
    {
      "inputs": [],
      "name": "totalAdminMarketingBonusCollected",
      "outputs": [
        {
          "internalType": "uint256",
          "name": "",
          "type": "uint256"
        }
      ],
      "stateMutability": "view",
      "type": "function"
    },
    {
      "inputs": [],
      "name": "totalFirstTimeUserFeesCollected",
      "outputs": [
        {
          "internalType": "uint256",
          "name": "",
          "type": "uint256"
        }
      ],
      "stateMutability": "view",
      "type": "function"
    },
    {
      "inputs": [],
      "name": "totalLiquidityWithdrawn",
      "outputs": [
        {
          "internalType": "uint256",
          "name": "",
          "type": "uint256"
        }
      ],
      "stateMutability": "view",
      "type": "function"
    },
    {
      "inputs": [
        {
          "internalType": "address",
          "name": "newOwner",
          "type": "address"
        }
      ],
      "name": "transferOwnership",
      "outputs": [],
      "stateMutability": "nonpayable",
      "type": "function"
    },
    {
      "inputs": [
        {
          "internalType": "uint256",
          "name": "_boosterPercentage",
          "type": "uint256"
        }
      ],
      "name": "updateBoosterPercentage",
      "outputs": [],
      "stateMutability": "nonpayable",
      "type": "function"
    },
    {
      "inputs": [
        {
          "internalType": "uint256",
          "name": "_threshold",
          "type": "uint256"
        },
        {
          "internalType": "uint256",
          "name": "_percentage",
          "type": "uint256"
        }
      ],
      "name": "updateBulkReferralSettings",
      "outputs": [],
      "stateMutability": "nonpayable",
      "type": "function"
    },
    {
      "inputs": [
        {
          "internalType": "uint256",
          "name": "_fee",
          "type": "uint256"
        },
        {
          "internalType": "address",
          "name": "_feeAddress",
          "type": "address"
        }
      ],
      "name": "updateFirstTimeUserFeeSettings",
      "outputs": [],
      "stateMutability": "nonpayable",
      "type": "function"
    },
    {
      "inputs": [
        {
          "internalType": "uint256",
          "name": "_id",
          "type": "uint256"
        },
        {
          "internalType": "string",
          "name": "_name",
          "type": "string"
        },
        {
          "internalType": "uint256",
          "name": "_price",
          "type": "uint256"
        },
        {
          "internalType": "uint256",
          "name": "_durationInDays",
          "type": "uint256"
        },
        {
          "internalType": "uint256",
          "name": "_roiPercentage",
          "type": "uint256"
        },
        {
          "internalType": "bool",
          "name": "_isActive",
          "type": "bool"
        }
      ],
      "name": "updateNodePackage",
      "outputs": [],
      "stateMutability": "nonpayable",
      "type": "function"
    },
    {
      "inputs": [
        {
          "internalType": "bool",
          "name": "_enabled",
          "type": "bool"
        },
        {
          "internalType": "uint256",
          "name": "_percentage",
          "type": "uint256"
        },
        {
          "internalType": "uint256",
          "name": "_distributionDays",
          "type": "uint256"
        }
      ],
      "name": "updateProsperityFundSettings",
      "outputs": [],
      "stateMutability": "nonpayable",
      "type": "function"
    },
    {
      "inputs": [
        {
          "internalType": "bool",
          "name": "_enabled",
          "type": "bool"
        },
        {
          "internalType": "uint256",
          "name": "_percentage",
          "type": "uint256"
        }
      ],
      "name": "updateRewardsDiscountSettings",
      "outputs": [],
      "stateMutability": "nonpayable",
      "type": "function"
    },
    {
      "inputs": [
        {
          "internalType": "uint256",
          "name": "_index",
          "type": "uint256"
        },
        {
          "internalType": "uint256",
          "name": "_percentage",
          "type": "uint256"
        }
      ],
      "name": "updateSevenLevelReferralPercentage",
      "outputs": [],
      "stateMutability": "nonpayable",
      "type": "function"
    },
    {
      "inputs": [
        {
          "internalType": "bool",
          "name": "_withdrawLiquidityEnabled",
          "type": "bool"
        },
        {
          "internalType": "uint256",
          "name": "_withdrawLiquidityPercentage",
          "type": "uint256"
        },
        {
          "internalType": "address",
          "name": "_liquidityAddress",
          "type": "address"
        }
      ],
      "name": "updateWithdrawLiquiditySettings",
      "outputs": [],
      "stateMutability": "nonpayable",
      "type": "function"
    },
    {
      "inputs": [
        {
          "internalType": "address",
          "name": "",
          "type": "address"
        },
        {
          "internalType": "uint256",
          "name": "",
          "type": "uint256"
        }
      ],
      "name": "userAscensionBonusReferralCount",
      "outputs": [
        {
          "internalType": "uint256",
          "name": "",
          "type": "uint256"
        }
      ],
      "stateMutability": "view",
      "type": "function"
    },
    {
      "inputs": [
        {
          "internalType": "address",
          "name": "",
          "type": "address"
        },
        {
          "internalType": "uint256",
          "name": "",
          "type": "uint256"
        }
      ],
      "name": "userAscensionBonusReferralRewardsClaimed",
      "outputs": [
        {
          "internalType": "uint256",
          "name": "",
          "type": "uint256"
        }
      ],
      "stateMutability": "view",
      "type": "function"
    },
    {
      "inputs": [
        {
          "internalType": "address",
          "name": "",
          "type": "address"
        },
        {
          "internalType": "uint256",
          "name": "",
          "type": "uint256"
        }
      ],
      "name": "userAscensionBonusReferralSalesTotal",
      "outputs": [
        {
          "internalType": "uint256",
          "name": "",
          "type": "uint256"
        }
      ],
      "stateMutability": "view",
      "type": "function"
    },
    {
      "inputs": [
        {
          "internalType": "address",
          "name": "",
          "type": "address"
        },
        {
          "internalType": "uint256",
          "name": "",
          "type": "uint256"
        }
      ],
      "name": "userHoldCurrentLevel",
      "outputs": [
        {
          "internalType": "uint256",
          "name": "",
          "type": "uint256"
        }
      ],
      "stateMutability": "view",
      "type": "function"
    },
    {
      "inputs": [
        {
          "internalType": "address",
          "name": "",
          "type": "address"
        },
        {
          "internalType": "uint256",
          "name": "",
          "type": "uint256"
        }
      ],
      "name": "userHoldReward",
      "outputs": [
        {
          "internalType": "uint256",
          "name": "",
          "type": "uint256"
        }
      ],
      "stateMutability": "view",
      "type": "function"
    },
    {
      "inputs": [
        {
          "internalType": "address",
          "name": "",
          "type": "address"
        },
        {
          "internalType": "uint256",
          "name": "",
          "type": "uint256"
        }
      ],
      "name": "userHoldRewardLevel",
      "outputs": [
        {
          "internalType": "uint256",
          "name": "",
          "type": "uint256"
        }
      ],
      "stateMutability": "view",
      "type": "function"
    },
    {
      "inputs": [
        {
          "internalType": "address",
          "name": "",
          "type": "address"
        },
        {
          "internalType": "uint256",
          "name": "",
          "type": "uint256"
        }
      ],
      "name": "userNodeAssigned",
      "outputs": [
        {
          "internalType": "bool",
          "name": "",
          "type": "bool"
        }
      ],
      "stateMutability": "view",
      "type": "function"
    },
    {
      "inputs": [
        {
          "internalType": "address",
          "name": "",
          "type": "address"
        },
        {
          "internalType": "uint256",
          "name": "",
          "type": "uint256"
        }
      ],
      "name": "userNodes",
      "outputs": [
        {
          "internalType": "uint256",
          "name": "packageId",
          "type": "uint256"
        },
        {
          "internalType": "uint256",
          "name": "purchaseTime",
          "type": "uint256"
        },
        {
          "internalType": "uint256",
          "name": "expiryTime",
          "type": "uint256"
        },
        {
          "internalType": "bool",
          "name": "isActive",
          "type": "bool"
        },
        {
          "internalType": "uint256",
          "name": "nodeId",
          "type": "uint256"
        }
      ],
      "stateMutability": "view",
      "type": "function"
    },
    {
      "inputs": [
        {
          "internalType": "address",
          "name": "",
          "type": "address"
        },
        {
          "internalType": "uint256",
          "name": "",
          "type": "uint256"
        }
      ],
      "name": "userReleaseRewardLevelReferrer",
      "outputs": [
        {
          "internalType": "address",
          "name": "",
          "type": "address"
        }
      ],
      "stateMutability": "view",
      "type": "function"
    },
    {
      "inputs": [
        {
          "internalType": "address",
          "name": "",
          "type": "address"
        }
      ],
      "name": "userRewards",
      "outputs": [
        {
          "internalType": "uint256",
          "name": "",
          "type": "uint256"
        }
      ],
      "stateMutability": "view",
      "type": "function"
    },
    {
      "inputs": [
        {
          "internalType": "address",
          "name": "",
          "type": "address"
        },
        {
          "internalType": "uint256",
          "name": "",
          "type": "uint256"
        }
      ],
      "name": "userRewardsClaimed",
      "outputs": [
        {
          "internalType": "uint256",
          "name": "",
          "type": "uint256"
        }
      ],
      "stateMutability": "view",
      "type": "function"
    },
    {
      "inputs": [
        {
          "internalType": "uint256",
          "name": "",
          "type": "uint256"
        }
      ],
      "name": "wallets",
      "outputs": [
        {
          "internalType": "address",
          "name": "",
          "type": "address"
        }
      ],
      "stateMutability": "view",
      "type": "function"
    },
    {
      "inputs": [],
      "name": "withdrawLiquidityEnabled",
      "outputs": [
        {
          "internalType": "bool",
          "name": "",
          "type": "bool"
        }
      ],
      "stateMutability": "view",
      "type": "function"
    },
    {
      "inputs": [],
      "name": "withdrawLiquidityPercentage",
      "outputs": [
        {
          "internalType": "uint256",
          "name": "",
          "type": "uint256"
        }
      ],
      "stateMutability": "view",
      "type": "function"
    },
    {
      "inputs": [
        {
          "internalType": "uint256",
          "name": "_amount",
          "type": "uint256"
        }
      ],
      "name": "withdrawRewards",
      "outputs": [],
      "stateMutability": "nonpayable",
      "type": "function"
    },
    {
      "inputs": [
        {
          "internalType": "uint256",
          "name": "_amount",
          "type": "uint256"
        }
      ],
      "name": "withdrawTokens",
      "outputs": [],
      "stateMutability": "nonpayable",
      "type": "function"
    }
  ],
  "bytecode": "0x60016011819055610160604052600a6080908152600360a052600260c081905260e0526101008290526101208290526101409190915262000045906012906007620001a5565b5060198054600160ff199182168117909255600a601a819055601e601b819055600590556024839055602680548316905560278190556000602a5560318190556032556014603355603480549091169091179055348015620000a657600080fd5b5060405162004a8e38038062004a8e833981016040819052620000c99162000204565b620000d43362000155565b6001600160a01b0381166200012f5760405162461bcd60e51b815260206004820152601c60248201527f546f6b656e20616464726573732063616e6e6f74206265207a65726f00000000604482015260640160405180910390fd5b600180546001600160a01b0319166001600160a01b039290921691909117905562000236565b600080546001600160a01b038381166001600160a01b0319831681178455604051919092169283917f8be0079c531659141344cd1fd0a4f28419497f9722a3daafe3b4186f6b6457e09190a35050565b8260078101928215620001db579160200282015b82811115620001db578251829060ff16905591602001919060010190620001b9565b50620001e9929150620001ed565b5090565b5b80821115620001e95760008155600101620001ee565b6000602082840312156200021757600080fd5b81516001600160a01b03811681146200022f57600080fd5b9392505050565b61484880620002466000396000f3fe608060405234801561001057600080fd5b50600436106104cc5760003560e01c80637cb38c9311610283578063c73e293b1161015c578063da95c0a0116100ce578063e7895b4b11610092578063e7895b4b14610dc6578063e99cd20014610de9578063f17b4ac514610dfc578063f2fde38b14610e27578063f8d9abb214610e3a578063f9f9b4a014610e6557600080fd5b8063da95c0a014610d3f578063db21f91814610d52578063dc3769e614610d65578063df6c69bf14610d8a578063e03b6e8c14610dbd57600080fd5b8063cc6c54ef11610120578063cc6c54ef14610ca3578063cd53d3e914610cb6578063d16c5cab14610cbf578063d20deac614610cc8578063d4a5fe1914610d1f578063d66b4ea214610d2c57600080fd5b8063c73e293b14610c21578063c887357314610c55578063c8a22eb414610c68578063cb6c595514610c91578063cb9b60e914610c9a57600080fd5b8063a70b0a0b116101f5578063b8223e40116101b9578063b8223e4014610b8e578063baf9ea0414610bae578063bd8f6b8714610bd9578063c200052d14610bfc578063c286ab7214610c05578063c5fb69e214610c0e57600080fd5b8063a70b0a0b14610b25578063a97d9e2414610b38578063ad423e0414610b45578063b1c1485214610b58578063b2dd5c0714610b6b57600080fd5b8063909b2da111610247578063909b2da114610a4b5780639342c8f414610ac0578063970fbccd14610ad3578063976b7c6b14610afe5780639c94acef14610b07578063a1174e7d14610b1057600080fd5b80637cb38c93146109b95780637f1689c0146109cc57806381bb8fd8146109f75780638b035c7414610a045780638da5cb5b14610a3a57600080fd5b80634d554316116103b55780636f9fb98a11610327578063798d9e9d116102eb578063798d9e9d1461092f5780637ad71f721461096f5780637b0f8a16146109825780637b741d0b146109955780637bdd884f146109a85780637bf7fb11146109b157600080fd5b80636f9fb98a14610905578063715018a61461090d578063739ac6b214610915578063741a7dc31461091e578063778b5aee1461092757600080fd5b80635d603ada116103795780635d603ada1461083b5780635f0d5e90146108445780635f97cebd1461086f57806363fe1b311461089b578063664983c8146108c95780636e4442a3146108dc57600080fd5b80634d554316146107ca5780634fbb9918146107dd5780635143c6a7146107e657806352371324146107ef57806359eda7971461080257600080fd5b80632705da361161044e5780633221c93f116104125780633221c93f1461070757806337fa9cb9146107325780633ac238ff1461073b5780633ebf6d7c1461074e57806346a93f4f146107795780634a0d3fe71461078c57600080fd5b80632705da361461066a578063271dbdb414610695578063274c1ef1146106be5780632d9e62e6146106e1578063315a095d146106f457600080fd5b8063176732571161049557806317673257146105ee57806319488c2f14610619578063207095651461062c578063213772b8146106425780632673b4571461065757600080fd5b80622eff9a146104d1578063018c17131461051a5780630660f1e81461054557806312adeb6a1461056557806316dace3514610591575b600080fd5b6105076104df366004613ebe565b6001600160a01b03919091166000908152600d60209081526040808320938352929052205490565b6040519081526020015b60405180910390f35b610507610528366004613ebe565b602f60209081526000928352604080842090915290825290205481565b610507610553366004613ee8565b60106020526000908152604090205481565b602a54602b54602c54604080519384526001600160a01b03909216602084015290820152606001610511565b6105cf61059f366004613ebe565b600b602090815260009283526040808420909152908252902080546001909101546001600160a01b039091169082565b604080516001600160a01b039093168352602083019190915201610511565b6105076105fc366004613ebe565b600f60209081526000928352604080842090915290825290205481565b610507610627366004613ee8565b610e6e565b610634611054565b604051610511929190613f3e565b610655610650366004613f7a565b611173565b005b610507610665366004613ee8565b6112b3565b610507610678366004613ebe565b602e60209081526000928352604080842090915290825290205481565b6105076106a3366004613fb8565b60208080526000928352604080842090915290825290205481565b6106d16106cc366004613fda565b611309565b6040519015158152602001610511565b6105076106ef366004613fda565b611395565b610655610702366004613fda565b6113ac565b60285461071a906001600160a01b031681565b6040516001600160a01b039091168152602001610511565b61050760115481565b610655610749366004613ff3565b6114dc565b61050761075c366004613fb8565b602560209081526000928352604080842090915290825290205481565b6106556107873660046140d6565b61159c565b6105cf61079a366004613ebe565b6001600160a01b039182166000908152600b60209081526040808320938352929052208054600190910154911691565b6106556107d836600461414d565b6116bf565b610507602a5481565b61050760325481565b6106556107fd366004613fda565b6117ad565b61080a6117f3565b60408051961515875260208701959095529385019290925260608401526080830152151560a082015260c001610511565b610507601d5481565b610507610852366004613ebe565b600e60209081526000928352604080842090915290825290205481565b6106d161087d366004613ee8565b6001600160a01b03166000908152602d602052604090205460ff1690565b6106d16108a9366004613ebe565b600860209081526000928352604080842090915290825290205460ff1681565b60015461071a906001600160a01b031681565b61071a6108ea366004613ee8565b6009602052600090815260409020546001600160a01b031681565b61050761185a565b6106556118db565b610507601c5481565b61050760245481565b600454610507565b6026546027546028546029546040805160ff9095161515855260208501939093526001600160a01b03909116918301919091526060820152608001610511565b61071a61097d366004613fda565b6118ef565b610655610990366004613ff3565b611919565b6106556109a3366004614211565b611bc5565b610507602c5481565b6106d1611cce565b6105076109c7366004614322565b611d1d565b6105076109da366004613fb8565b6000918252601f6020908152604080842092845291905290205490565b6019546106d19060ff1681565b61071a610a12366004613ebe565b6001600160a01b03918216600090815260076020908152604080832093835292905220541690565b6000546001600160a01b031661071a565b610a96610a59366004613ebe565b60066020908152600092835260408084209091529082529020805460018201546002830154600384015460049094015492939192909160ff169085565b6040805195865260208601949094529284019190915215156060830152608082015260a001610511565b610655610ace366004613fda565b611e3c565b610507610ae1366004613fb8565b601f60209081526000928352604080842090915290825290205481565b61050760225481565b610507601e5481565b610b1861206a565b60405161051191906143ce565b602b5461071a906001600160a01b031681565b6026546106d19060ff1681565b610655610b53366004613fda565b612228565b610655610b6636600461446f565b6122b0565b6106d1610b79366004613ee8565b60056020526000908152604090205460ff1681565b610507610b9c366004613ee8565b600c6020526000908152604090205481565b610507610bbc366004613fb8565b602360209081526000928352604080842090915290825290205481565b6106d1610be7366004613ee8565b600a6020526000908152604090205460ff1681565b61050760335481565b61050760295481565b610655610c1c36600461448d565b612325565b61071a610c2f366004613ebe565b60076020908152600092835260408084209091529082529020546001600160a01b031681565b610507610c63366004613ebe565b6123d3565b610507610c76366004613ee8565b6001600160a01b03166000908152600c602052604090205490565b61050760275481565b61050760315481565b610655610cb1366004613fb8565b61242b565b610507601a5481565b61050760035481565b610a96610cd6366004613ebe565b6001600160a01b0391909116600090815260066020908152604080832093835292905220805460018201546002830154600384015460049094015492949193909260ff90911691565b6034546106d19060ff1681565b610655610d3a366004613ff3565b612521565b610655610d4d366004613fb8565b61279f565b610655610d60366004613ff3565b612823565b610d78610d73366004613fda565b612a51565b604051610511969594939291906144bd565b610d9d610d98366004613ebe565b612b62565b604080519485526020850193909352918301526060820152608001610511565b61050760215481565b6106d1610dd4366004613ee8565b602d6020526000908152604090205460ff1681565b610d78610df7366004613fda565b612bed565b610507610e0a366004613ebe565b600d60209081526000928352604080842090915290825290205481565b610655610e35366004613ee8565b612cae565b610507610e48366004613ebe565b603060209081526000928352604080842090915290825290205481565b610507601b5481565b6000610e78612d24565b60195460ff16610ecf5760405162461bcd60e51b815260206004820152601e60248201527f50726f737065726974792046756e64206973206e6f7420656e61626c6564000060448201526064015b60405180910390fd5b6001600160a01b038216610f255760405162461bcd60e51b815260206004820181905260248201527f526563697069656e742063616e6e6f74206265207a65726f20616464726573736044820152606401610ec6565b50600060015b600354811161101757610f3d81611309565b15611005576000818152601f6020908152604080832060245484529091529020548015611003576000828152601f60209081526040808320602480548552908352818420849055858452828052818420905484529091529020429055610fa38184614513565b925080601d6000828254610fb7919061452b565b9091555050602454604080518381526001600160a01b038716602082015284917fd642c1fe1419d3f0eeb31db86782c6842040a7ffe9c42498844bbba537c7c6a4910160405180910390a35b505b8061100f81614542565b915050610f2b565b50801561103557600154611035906001600160a01b03168383612d7e565b42601c556024805490600061104983614542565b91905055505b919050565b60608060035467ffffffffffffffff8111156110725761107261401f565b60405190808252806020026020018201604052801561109b578160200160208202803683370190505b50915060035467ffffffffffffffff8111156110b9576110b961401f565b6040519080825280602002602001820160405280156110e2578160200160208202803683370190505b50905060015b600354811161116e5780836110fe60018361452b565b8151811061110e5761110e61455d565b6020908102919091018101919091526000828152601f82526040808220602454835290925220548261114160018461452b565b815181106111515761115161455d565b60209081029190910101528061116681614542565b9150506110e8565b509091565b61117b612d24565b6001821015801561118d575060648211155b6111e55760405162461bcd60e51b8152602060048201526024808201527f50657263656e74616765206d757374206265206265747765656e203120616e646044820152630203130360e41b6064820152608401610ec6565b6001600160a01b03811661123b5760405162461bcd60e51b815260206004820181905260248201527f4c697175696469747920616464726573732063616e6e6f74206265207a65726f6044820152606401610ec6565b6026805460ff19168415159081179091556027839055602880546001600160a01b0319166001600160a01b03841690811790915560408051928352602083018590528201527f7fda938382e97065b55999a4f55c4c33120cebdb61b3e26dc46aceec35d78be9906060015b60405180910390a1505050565b600060015b6003548111611303576001600160a01b0383166000908152600f602090815260408083208484529091529020546112ef9083614513565b9150806112fb81614542565b9150506112b8565b50919050565b60195460009060ff16158061133757506000828152601f602090815260408083206024548452909152902054155b1561134457506000919050565b6000828152602080805260408083206024548452909152902054806113685750601c545b6000611374824261452b565b90506000601b54620151806113899190614573565b90911015949350505050565b601281600781106113a557600080fd5b0154905081565b6113b4612d24565b601d546001546040516370a0823160e01b81523060048201526001600160a01b03909116906370a082319060240160206040518083038186803b1580156113fa57600080fd5b505afa15801561140e573d6000803e3d6000fd5b505050506040513d601f19601f820116820180604052508101906114329190614592565b61143c919061452b565b8111156114b15760405162461bcd60e51b815260206004820152603860248201527f496e73756666696369656e7420636f6e74726163742062616c616e6365206f7560448201527f7473696465206f662050726f737065726974792046756e6400000000000000006064820152608401610ec6565b6114d96114c66000546001600160a01b031690565b6001546001600160a01b03169083612d7e565b50565b6114e4612d24565b6001600160a01b03811661153a5760405162461bcd60e51b815260206004820152601a60248201527f46656520616464726573732063616e6e6f74206265207a65726f0000000000006044820152606401610ec6565b602a829055602b80546001600160a01b0319166001600160a01b0383169081179091556040805184815260208101929092527f7e2efaacc1c29094549a749f336e7fe6cde4799f8901ce18c97cc2300bfabcd791015b60405180910390a15050565b6115a4612d24565b6000861180156115b657506003548611155b6115d25760405162461bcd60e51b8152600401610ec6906145ab565b60006115e18462015180614573565b6040805160c08101825289815260208082018a81528284018a9052606083018590526080830188905286151560a084015260008c815260028352939093208251815592518051949550919361163c9260018501920190613e17565b506040828101516002830155606083015160038301556080830151600483015560a0909201516005909101805460ff19169115159190911790555187907f1ce6f34aa8270a22512e6f15094ecccf9a7ab7216eecdf7c325d6103604c42c1906116ae90899089908690899089906145e2565b60405180910390a250505050505050565b6116c7612d24565b60648211156116e85760405162461bcd60e51b8152600401610ec69061461b565b600081116117495760405162461bcd60e51b815260206004820152602860248201527f446973747269627574696f6e2064617973206d75737420626520677265617465604482015267072207468616e20360c41b6064820152608401610ec6565b6019805460ff1916841515179055601a829055601b819055601c5461176d5742601c555b604080518415158152602081018490529081018290527fe569a4dd4b24e278743fb099a078448e31e01fd1ef984d8714508c652c33ab3a906060016112a6565b6117b5612d24565b601180549082905560408051828152602081018490527f8f44220bf31b28c165b50edffbda58d835d8f903f0415727ab5430bdf90a913d9101611590565b6000806000806000806000601b546201518061180f9190614573565b9050600081601c546118219190614513565b9050601960009054906101000a900460ff16601d54601a54601b5484611845611cce565b949d939c50919a509850965090945092505050565b6001546040516370a0823160e01b81523060048201526000916001600160a01b0316906370a082319060240160206040518083038186803b15801561189e57600080fd5b505afa1580156118b2573d6000803e3d6000fd5b505050506040513d601f19601f820116820180604052508101906118d69190614592565b905090565b6118e3612d24565b6118ed6000612de6565b565b600481815481106118ff57600080fd5b6000918252602090912001546001600160a01b0316905081565b611921612d24565b60008211801561193357506003548211155b6119745760405162461bcd60e51b8152602060048201526012602482015271125b9d985b1a59081c1858dad859d948125160721b6044820152606401610ec6565b60195460ff166119c65760405162461bcd60e51b815260206004820152601e60248201527f50726f737065726974792046756e64206973206e6f7420656e61626c656400006044820152606401610ec6565b6001600160a01b038116611a1c5760405162461bcd60e51b815260206004820181905260248201527f526563697069656e742063616e6e6f74206265207a65726f20616464726573736044820152606401610ec6565b611a2582611309565b611a7d5760405162461bcd60e51b8152602060048201526024808201527f5061636b6167652070726f737065726974792066756e64206973206e6f7420726044820152636561647960e01b6064820152608401610ec6565b6000828152601f60209081526040808320602454845290915290205480611af65760405162461bcd60e51b815260206004820152602760248201527f5061636b6167652070726f737065726974792066756e642062616c616e6365206044820152666973207a65726f60c81b6064820152608401610ec6565b80601d6000828254611b08919061452b565b90915550506000838152601f60209081526040808320602480548552908352818420849055868452828052818420905484529091529020429055600154611b59906001600160a01b03168383612d7e565b601d54611b7a5742601c5560248054906000611b7483614542565b91905055505b602454604080518381526001600160a01b038516602082015285917fd642c1fe1419d3f0eeb31db86782c6842040a7ffe9c42498844bbba537c7c6a4910160405180910390a3505050565b611bcd612d24565b82518451148015611bdf575081518351145b8015611bec575080518251145b611c385760405162461bcd60e51b815260206004820152601860248201527f4172726179206c656e67746873206d757374206d6174636800000000000000006044820152606401610ec6565b60005b8451811015611cc757611cb4858281518110611c5957611c5961455d565b6020026020010151858381518110611c7357611c7361455d565b6020026020010151858481518110611c8d57611c8d61455d565b6020026020010151858581518110611ca757611ca761455d565b6020026020010151611d1d565b5080611cbf81614542565b915050611c3b565b5050505050565b60195460009060ff161580611ce35750601d54155b15611cee5750600090565b6000601c5442611cfe919061452b565b90506000601b5462015180611d139190614573565b9091101592915050565b6000611d27612d24565b60038054906000611d3783614542565b9091555060009050611d4c8462015180614573565b6040805160c08101825260035480825260208083018b81528385018b90526060840186905260808401899052600160a0850181905260009384526002835294909220835181559151805195965092949193611dad9390850192910190613e17565b5060408201518160020155606082015181600301556080820151816004015560a08201518160050160006101000a81548160ff0219169083151502179055509050506003547f8e48b2bcaba628f05a5deb01a582828bc75b87e10d7881d8337a0967d3113f7a87878487604051611e27949392919061465f565b60405180910390a25050600354949350505050565b3360009081526010602052604090205481811015611e955760405162461bcd60e51b81526020600482015260166024820152754e6f207265776172647320746f20776974686472617760501b6044820152606401610ec6565b6040805183815242602082015233917f1a89b354dee0f33556d195d004962e8661e46dd51d2bdb77b4c56eba1d8da509910160405180910390a260265460009060ff1615611fd957606460275484611eed9190614573565b611ef791906146a4565b905060008111611f495760405162461bcd60e51b815260206004820152601960248201527f5769746864726177616c20616d6f756e74206973207a65726f000000000000006044820152606401610ec6565b8060296000828254611f5b9190614513565b9091555050602854600154611f7d916001600160a01b03918216911683612d7e565b602854602754602954604080516001600160a01b03909416845260208401859052830191909152606082015233907f835953d4d02b8e17a77dcdf53290deb976950b7470c034ba7678cfde9f813f2a9060800160405180910390a25b33600090815260106020526040902054611ff490849061452b565b3360008181526010602052604090209190915561202890612015838661452b565b6001546001600160a01b03169190612d7e565b337f8a43c4352486ec339f487f64af78ca5cbf06cd47833f073d3baf3a193e503161612054838661452b565b60405190815260200160405180910390a2505050565b606060035467ffffffffffffffff8111156120875761208761401f565b6040519080825280602002602001820160405280156120f357816020015b6120e06040518060c0016040528060008152602001606081526020016000815260200160008152602001600081526020016000151581525090565b8152602001906001900390816120a55790505b50905060015b600354811161222457600260008281526020019081526020016000206040518060c00160405290816000820154815260200160018201805461213a906146b8565b80601f0160208091040260200160405190810160405280929190818152602001828054612166906146b8565b80156121b35780601f10612188576101008083540402835291602001916121b3565b820191906000526020600020905b81548152906001019060200180831161219657829003601f168201915b505050918352505060028201546020820152600382015460408201526004820154606082015260059091015460ff161515608090910152826121f660018461452b565b815181106122065761220661455d565b6020026020010181905250808061221c90614542565b9150506120f9565b5090565b612230612d24565b603281106122755760405162461bcd60e51b8152602060048201526012602482015271496e76616c69642070657263656e7461676560701b6044820152606401610ec6565b601e8190556040518181527f46988ec27899af234e95c8ec7de4449cdd32adc3d09ffdd0b8a3c9ac9f6a88de9060200160405180910390a150565b6122b8612d24565b60648111156122d95760405162461bcd60e51b8152600401610ec69061461b565b6034805460ff1916831515908117909155603382905560408051918252602082018390527f3af31dc7b45f55b5b35e85dc08dcb982d097e69dc6d790d7114fafe2630178889101611590565b61232d612d24565b60008211801561233f57506003548211155b61235b5760405162461bcd60e51b8152600401610ec6906145ab565b60008281526002602081905260409182902060058101805460ff19168515151790559081015460038201546004830154935186947f1ce6f34aa8270a22512e6f15094ecccf9a7ab7216eecdf7c325d6103604c42c1946123c794600190910193909290919088906146ed565b60405180910390a25050565b600080821180156123e657506003548211155b6124025760405162461bcd60e51b8152600401610ec6906145ab565b506001600160a01b03919091166000908152600f60209081526040808320938352929052205490565b612433612d24565b600782106124735760405162461bcd60e51b815260206004820152600d60248201526c092dcecc2d8d2c840d2dcc8caf609b1b6044820152606401610ec6565b60648111156124d95760405162461bcd60e51b815260206004820152602c60248201527f50657263656e74616765206d757374206265206c657373207468616e206f722060448201526b0657175616c20746f203130360a41b6064820152608401610ec6565b80601283600781106124ed576124ed61455d565b015560405181815282907fc37d3359a727b367166872bac1adf21e4ad4fae0085d82b2498c363bd4c46530906020016123c7565b60008211801561253357506003548211155b61254f5760405162461bcd60e51b8152600401610ec6906145ab565b60008281526002602052604090206005015460ff166125b05760405162461bcd60e51b815260206004820152601a60248201527f4e6f6465207061636b616765206973206e6f74206163746976650000000000006044820152606401610ec6565b600082815260026020819052604082200154602a54909190158015906125e05750602b546001600160a01b031615155b80156125fc5750336000908152602d602052604090205460ff16155b1561268c57602a54905080602c60008282546126189190614513565b9091555050602b5460015461263c916001600160a01b039182169133911684612e36565b602a54602c54604080518781526020810185905290810192909252606082015233907f47fb813b8984190a5a3b2982cd198e61ab42999072686e2568db101d994adb979060800160405180910390a25b6000612698828461452b565b905060006126a68385614513565b6001546040516370a0823160e01b815233600482015291925082916001600160a01b03909116906370a082319060240160206040518083038186803b1580156126ee57600080fd5b505afa158015612702573d6000803e3d6000fd5b505050506040513d601f19601f820116820180604052508101906127269190614592565b10156127745760405162461bcd60e51b815260206004820152601a60248201527f496e73756666696369656e7420746f6b656e2062616c616e63650000000000006044820152606401610ec6565b60015461278c906001600160a01b0316333085612e36565b612797868686612e74565b505050505050565b6127a7612d24565b600082116127f75760405162461bcd60e51b815260206004820181905260248201527f5468726573686f6c64206d7573742062652067726561746572207468616e20306044820152606401610ec6565b60648111156128185760405162461bcd60e51b8152600401610ec69061461b565b603191909155603255565b60008211801561283557506003548211155b6128515760405162461bcd60e51b8152600401610ec6906145ab565b60008281526002602052604090206005015460ff166128b25760405162461bcd60e51b815260206004820152601a60248201527f4e6f6465207061636b616765206973206e6f74206163746976650000000000006044820152606401610ec6565b60345460ff166129135760405162461bcd60e51b815260206004820152602660248201527f5265776172647320646973636f756e742073797374656d206973206e6f7420656044820152651b98589b195960d21b6064820152608401610ec6565b336000908152601060205260409020548061297a5760405162461bcd60e51b815260206004820152602160248201527f4e6f207265776172647320617661696c61626c6520666f7220646973636f756e6044820152601d60fa1b6064820152608401610ec6565b60008381526002602081905260408220015460335490919060649061299f9084614573565b6129a991906146a4565b905060008382116129ba57816129bc565b835b905060006129ca828561452b565b336000908152601060205260409020549091506129e890829061452b565b33600090815260106020526040902055612a03878786612e74565b6040805185815260208101839052908101839052879033907fa3ad6596ca56a7fbb23a98762d25608cec00fd2e5ddb681b4c46a1f757482a599060600160405180910390a350505050505050565b60006060600080600080600087118015612a6d57506003548711155b612a895760405162461bcd60e51b8152600401610ec6906145ab565b6000878152600260208190526040909120805491810154600382015460048301546005840154600185018054959695909493929160ff16908590612acc906146b8565b80601f0160208091040260200160405190810160405280929190818152602001828054612af8906146b8565b8015612b455780601f10612b1a57610100808354040283529160200191612b45565b820191906000526020600020905b815481529060010190602001808311612b2857829003601f168201915b505050505094509650965096509650965096505091939550919395565b6001600160a01b0382166000818152602e60209081526040808320858452825280832054848452602f83528184208685528352818420549484526030835281842086855290925282205460315491939290918190612bc081876146a4565b612bcb906001614513565b612bd59190614573565b9050612be1858261452b565b91505092959194509250565b60026020526000908152604090208054600182018054919291612c0f906146b8565b80601f0160208091040260200160405190810160405280929190818152602001828054612c3b906146b8565b8015612c885780601f10612c5d57610100808354040283529160200191612c88565b820191906000526020600020905b815481529060010190602001808311612c6b57829003601f168201915b505050506002830154600384015460048501546005909501549394919390925060ff1686565b612cb6612d24565b6001600160a01b038116612d1b5760405162461bcd60e51b815260206004820152602660248201527f4f776e61626c653a206e6577206f776e657220697320746865207a65726f206160448201526564647265737360d01b6064820152608401610ec6565b6114d981612de6565b6000546001600160a01b031633146118ed5760405162461bcd60e51b815260206004820181905260248201527f4f776e61626c653a2063616c6c6572206973206e6f7420746865206f776e65726044820152606401610ec6565b6040516001600160a01b038316602482015260448101829052612de190849063a9059cbb60e01b906064015b60408051601f198184030181529190526020810180516001600160e01b03166001600160e01b031990931692909217909152613bc2565b505050565b600080546001600160a01b038381166001600160a01b0319831681178455604051919092169283917f8be0079c531659141344cd1fd0a4f28419497f9722a3daafe3b4186f6b6457e09190a35050565b6040516001600160a01b0380851660248301528316604482015260648101829052612e6e9085906323b872dd60e01b90608401612daa565b50505050565b33600090815260086020908152604080832086845290915290205460ff1615612ed25760405162461bcd60e51b815260206004820152601060248201526f105b1c9958591e48185cdcda59db995960821b6044820152606401610ec6565b3360009081526005602052604090205460ff161515600114612f715733600081815260056020526040808220805460ff1916600190811790915560048054918201815583527f8a35acfbc15ff81a39ae7d344fd709f28e8600b4aa8c65c6b64bfe7fe36bd19b0180546001600160a01b03191684179055518592917fe29d35093005f4d575e1003753426b57a7f64378ba73332eef9c6ccc2b8decd691a35b336000908152602d60205260408120805460ff19166001179055601e54606490612f9b9084614573565b612fa591906146a4565b33600090815260106020526040902054909150612fc3908290614513565b33600090815260106020908152604080832093909355600f815282822087835290529081208054839290612ff8908490614513565b9091555050604080518281526020810186905233917f5881e8acf63cc2fc014615242534155f7fd53b6b7dbf35e0523cc2d70c54605c910160405180910390a260195460ff161561313b5760006064601a54846130559190614573565b61305f91906146a4565b905080601d60008282546130739190614513565b90915550506000858152601f602090815260408083206024548452909152812080548392906130a3908490614513565b9091555050601d546040805183815260208101929092527fff9c981d6ee5f1f1a9d5632255ac6411cc89f47401bb6624034da3c5e28ec98d910160405180910390a16024546000868152601f602090815260408083208484528252918290205482518581529182015287917f3f75e11875c2f09c6ebda7ebafd2cab7d2a051fc292f9308d8bf24ff4caccf74910160405180910390a3505b336000908152600a602052604081205460ff16613194575033600090815260096020908152604080832080546001600160a01b0319166001600160a01b038816179055600a9091529020805460ff191660019081179091555b336000908152600960205260409020546001600160a01b0316935083158015906131c757506001600160a01b0384163314155b80156131f457503360009081526007602090815260408083208884529091529020546001600160a01b0316155b1561382357336000908152600760209081526040808320888452909152902080546001600160a01b0319166001600160a01b03861617905580151560011415613353576001600160a01b0384166000908152600c6020526040812080549161325b83614542565b90915550506001600160a01b0384166000908152600d60209081526040808320888452909152812080549161328f83614542565b90915550600090506132a56301e13380426146a4565b6132b1906107b2614513565b9050600062278d006132c76301e13380426147b2565b6132d191906146a4565b6132dc906001614513565b90506000816132ec846064614573565b6132f69190614513565b6000898152602360209081526040808320848452909152812080549293509061331e83614542565b909155505060008881526025602090815260408083206024548452909152812080549161334a83614542565b91905055505050505b6001600160a01b038416600090815260086020908152604080832088845290915290205460ff16151560011415613558576000600260008781526020019081526020016000206040518060c0016040529081600082015481526020016001820180546133be906146b8565b80601f01602080910402602001604051908101604052809291908181526020018280546133ea906146b8565b80156134375780601f1061340c57610100808354040283529160200191613437565b820191906000526020600020905b81548152906001019060200180831161341a57829003601f168201915b50505091835250506002820154602082015260038201546040808301919091526004830154606083015260059092015460ff161515608091820152820151908201519192506000916127109161348c91614573565b61349691906146a4565b6001600160a01b0387166000908152601060205260409020549091506134bd908290614513565b6001600160a01b038716600090815260106020908152604080832093909355600f81528282208a8352905220546134f5908290614513565b6001600160a01b0387166000818152600f602090815260408083208c84528252918290209390935580518481529283018a905290917fdacbdde355ba930696a362ea6738feb9f8bd52dfb3d81947558fd3217e23e325910160405180910390a250505b6001600160a01b0384166000908152602e60209081526040808320888452909152812080549161358783614542565b90915550506001600160a01b0384166000908152602f60209081526040808320888452909152812080548592906135bf908490614513565b90915550506031546001600160a01b0385166000908152602e602090815260408083208984529091529020546135f591906147b2565b15801561362a57506001600160a01b038416600090815260086020908152604080832088845290915290205460ff1615156001145b156137b6576032546001600160a01b0385166000908152602f6020908152604080832089845290915281205490916064916136659190614573565b61366f91906146a4565b6001600160a01b03861660009081526030602090815260408083208a84529091528120805492935083929091906136a7908490614513565b90915550506001600160a01b0385166000908152601060205260409020546136d0908290614513565b6001600160a01b038616600090815260106020908152604080832093909355600f81528282208983529052908120805483929061370e908490614513565b90915550506001600160a01b0385166000818152602f602090815260408083208a8452825280832054848452602e83528184208b855283529281902054815186815292830193909352810191909152606081018890527e74376682160e57c96ed6218755ea952b67b23247e3cadb670d62825f025c199060800160405180910390a2506001600160a01b0384166000908152602f602090815260408083208884529091528120555b6001600160a01b0384166000818152600d60209081526040808320898452825280832054848452600c8352928190205481519384529183019190915287929133917ff0fa5c65c815365f0b6c7cf2237f37772b80a5052d1e202cf286b4151959db45910160405180910390a45b8360005b6001600160a01b0382161580159061383f5750600781105b156139c557600060646012836007811061385b5761385b61455d565b01546138679088614573565b61387191906146a4565b90506000811180156138ab57506001600160a01b03831660009081526008602090815260408083208b845290915290205460ff1615156001145b1561395e576001600160a01b0383166000908152600f602090815260408083208b8452909152812080548392906138e3908490614513565b90915550506001600160a01b03831660009081526010602052604081208054839290613910908490614513565b90915550506040805182815260208101849052899133916001600160a01b038716917f4dc15fbf6829321a6c10874324ce9f6381b5ff8f1af62edc28c136336f754477910160405180910390a45b6001600160a01b0380841660009081526007602090815260408083208c8452909152902054168015806139a25750836001600160a01b0316816001600160a01b0316145b156139ae5750506139c5565b925082826139bb81614542565b9350505050613827565b6001600160a01b03861615613a26576040805180820182526001600160a01b03888116825260016020808401828152336000908152600b83528681208e8252909252949020925183546001600160a01b031916921691909117825591519101555b600087815260026020526040812060030154429190613a459083614513565b602280549192506000613a5783614542565b919050555060006040518060a001604052808b815260200184815260200183815260200160011515815260200160225481525090508060066000336001600160a01b03166001600160a01b0316815260200190815260200160002060008c815260200190815260200160002060008201518160000155602082015181600101556040820151816002015560608201518160030160006101000a81548160ff02191690831515021790555060808201518160040155905050600160086000336001600160a01b03166001600160a01b0316815260200190815260200160002060008c815260200190815260200160002060006101000a81548160ff02191690831515021790555089336001600160a01b03167fbb275ccd4264a28ac9bf32c26091234ff39f91b2a9b7dcacb36ecfc753bb36e68585602254604051613bae939291909283526020830191909152604082015260600190565b60405180910390a350505050505050505050565b6000613c17826040518060400160405280602081526020017f5361666545524332303a206c6f772d6c6576656c2063616c6c206661696c6564815250856001600160a01b0316613c949092919063ffffffff16565b805190915015612de15780806020019051810190613c3591906147c6565b612de15760405162461bcd60e51b815260206004820152602a60248201527f5361666545524332303a204552433230206f7065726174696f6e20646964206e6044820152691bdd081cdd58d8d9595960b21b6064820152608401610ec6565b6060613ca38484600085613cad565b90505b9392505050565b606082471015613d0e5760405162461bcd60e51b815260206004820152602660248201527f416464726573733a20696e73756666696369656e742062616c616e636520666f6044820152651c8818d85b1b60d21b6064820152608401610ec6565b6001600160a01b0385163b613d655760405162461bcd60e51b815260206004820152601d60248201527f416464726573733a2063616c6c20746f206e6f6e2d636f6e74726163740000006044820152606401610ec6565b600080866001600160a01b03168587604051613d8191906147e3565b60006040518083038185875af1925050503d8060008114613dbe576040519150601f19603f3d011682016040523d82523d6000602084013e613dc3565b606091505b5091509150613dd3828286613dde565b979650505050505050565b60608315613ded575081613ca6565b825115613dfd5782518084602001fd5b8160405162461bcd60e51b8152600401610ec691906147ff565b828054613e23906146b8565b90600052602060002090601f016020900481019282613e455760008555613e8b565b82601f10613e5e57805160ff1916838001178555613e8b565b82800160010185558215613e8b579182015b82811115613e8b578251825591602001919060010190613e70565b506122249291505b808211156122245760008155600101613e93565b80356001600160a01b038116811461104f57600080fd5b60008060408385031215613ed157600080fd5b613eda83613ea7565b946020939093013593505050565b600060208284031215613efa57600080fd5b613ca682613ea7565b600081518084526020808501945080840160005b83811015613f3357815187529582019590820190600101613f17565b509495945050505050565b604081526000613f516040830185613f03565b8281036020840152613f638185613f03565b95945050505050565b80151581146114d957600080fd5b600080600060608486031215613f8f57600080fd5b8335613f9a81613f6c565b925060208401359150613faf60408501613ea7565b90509250925092565b60008060408385031215613fcb57600080fd5b50508035926020909101359150565b600060208284031215613fec57600080fd5b5035919050565b6000806040838503121561400657600080fd5b8235915061401660208401613ea7565b90509250929050565b634e487b7160e01b600052604160045260246000fd5b604051601f8201601f1916810167ffffffffffffffff8111828210171561405e5761405e61401f565b604052919050565b600082601f83011261407757600080fd5b813567ffffffffffffffff8111156140915761409161401f565b6140a4601f8201601f1916602001614035565b8181528460208386010111156140b957600080fd5b816020850160208301376000918101602001919091529392505050565b60008060008060008060c087890312156140ef57600080fd5b86359550602087013567ffffffffffffffff81111561410d57600080fd5b61411989828a01614066565b95505060408701359350606087013592506080870135915060a087013561413f81613f6c565b809150509295509295509295565b60008060006060848603121561416257600080fd5b833561416d81613f6c565b95602085013595506040909401359392505050565b600067ffffffffffffffff82111561419c5761419c61401f565b5060051b60200190565b600082601f8301126141b757600080fd5b813560206141cc6141c783614182565b614035565b82815260059290921b840181019181810190868411156141eb57600080fd5b8286015b8481101561420657803583529183019183016141ef565b509695505050505050565b6000806000806080858703121561422757600080fd5b843567ffffffffffffffff8082111561423f57600080fd5b818701915087601f83011261425357600080fd5b813560206142636141c783614182565b82815260059290921b8401810191818101908b84111561428257600080fd5b8286015b848110156142ba5780358681111561429e5760008081fd5b6142ac8e86838b0101614066565b845250918301918301614286565b50985050880135925050808211156142d157600080fd5b6142dd888389016141a6565b945060408701359150808211156142f357600080fd5b6142ff888389016141a6565b9350606087013591508082111561431557600080fd5b50612be1878288016141a6565b6000806000806080858703121561433857600080fd5b843567ffffffffffffffff81111561434f57600080fd5b61435b87828801614066565b97602087013597506040870135966060013595509350505050565b60005b83811015614391578181015183820152602001614379565b83811115612e6e5750506000910152565b600081518084526143ba816020860160208601614376565b601f01601f19169290920160200192915050565b60006020808301818452808551808352604092508286019150828160051b87010184880160005b8381101561446157603f19898403018552815160c08151855288820151818a870152614423828701826143a2565b838a0151878b0152606080850151908801526080808501519088015260a09384015115159390960192909252505093860193908601906001016143f5565b509098975050505050505050565b6000806040838503121561448257600080fd5b8235613eda81613f6c565b600080604083850312156144a057600080fd5b8235915060208301356144b281613f6c565b809150509250929050565b86815260c0602082015260006144d660c08301886143a2565b905085604083015284606083015283608083015282151560a0830152979650505050505050565b634e487b7160e01b600052601160045260246000fd5b60008219821115614526576145266144fd565b500190565b60008282101561453d5761453d6144fd565b500390565b6000600019821415614556576145566144fd565b5060010190565b634e487b7160e01b600052603260045260246000fd5b600081600019048311821515161561458d5761458d6144fd565b500290565b6000602082840312156145a457600080fd5b5051919050565b60208082526017908201527f496e76616c6964206e6f6465207061636b616765204944000000000000000000604082015260600190565b60a0815260006145f560a08301886143a2565b905085602083015284604083015283606083015282151560808301529695505050505050565b60208082526024908201527f50657263656e74616765206d757374206265206265747765656e203020616e646040820152630203130360e41b606082015260800190565b60808152600061467260808301876143a2565b6020830195909552506040810192909252606090910152919050565b634e487b7160e01b600052601260045260246000fd5b6000826146b3576146b361468e565b500490565b600181811c908216806146cc57607f821691505b6020821081141561130357634e487b7160e01b600052602260045260246000fd5b60a08152600080875481600182811c91508083168061470d57607f831692505b602080841082141561472d57634e487b7160e01b86526022600452602486fd5b60a0880184905260c0880182801561474c576001811461475d57614788565b60ff19871682528282019750614788565b60008f81526020902060005b8781101561478257815484820152908601908401614769565b83019850505b505087019a909a525050506040830195909552506060810192909252151560809091015292915050565b6000826147c1576147c161468e565b500690565b6000602082840312156147d857600080fd5b8151613ca681613f6c565b600082516147f5818460208701614376565b9190910192915050565b602081526000613ca660208301846143a256fea26469706673582212201a8d04e0c64795e2c45271855971341576f978a6208a4bb5933ef6fdcfd224ab64736f6c63430008080033",
  "immutableReferences": {},
  "source": "// SPDX-License-Identifier: MIT\npragma solidity ^0.8.8;\n\nimport \"@openzeppelin/contracts/token/ERC20/IERC20.sol\";\nimport \"@openzeppelin/contracts/token/ERC20/utils/SafeERC20.sol\";\nimport \"@openzeppelin/contracts/access/Ownable.sol\";\n\n/**\n * @title NodePackages\n * @dev Smart contract for a node-based affiliate system with predefined node packages using ERC20 tokens\n */\ncontract NodePackages is Ownable {\n    using SafeERC20 for IERC20;\n\n    // Token used for purchasing nodes and rewards\n    IERC20 public nodeToken;\n\n    // Structure to represent a node package\n    struct NodePackage {\n        uint256 id;\n        string name;\n        uint256 price;          // Price in tokens\n        uint256 duration;       // Duration in seconds\n        uint256 roiPercentage;  // ROI percentage (e.g., 20 means 20% of price)\n        bool isActive;          // Whether the package is active\n    }\n\n    // Structure to represent a user's purchased node\n    struct UserNode {\n        uint256 packageId;\n        uint256 purchaseTime;\n        uint256 expiryTime;\n        bool isActive;\n        uint256 nodeId;\n    }\n\n    // Structure to represent a referral details\n    struct DirectReferralDetails{\n        address directReferrer;\n        uint256 level;\n    }\n\n\n    // Mapping to store node packages by ID\n    mapping(uint256 => NodePackage) public nodePackages;\n\n    // Counter for node package IDs\n    uint256 public nodePackageCount;\n    address[] public wallets;\n    mapping(address => bool) public registered;\n\n    // Mapping of user address to their nodes\n    mapping(address => mapping(uint256 => UserNode)) public userNodes;\n\n    // Mapping to track referrals by user and package ID\n    mapping(address => mapping(uint256 => address)) public referrers;\n    mapping(address => mapping(uint256 => bool)) public userNodeAssigned;\n    mapping(address => address) public mainReferrer;\n    mapping(address => bool) public referralSet;\n    \n    // Mapping to track direct referrers by user and package ID\n    mapping(address => mapping(uint256 => DirectReferralDetails)) public directReferrers;\n    // Mapping to track total referrals made by a user (across all packages)\n    mapping(address => uint256) public referralsMade;\n\n    // Mapping to track referrals made by a user for each package\n    // referrer => packageId => count\n    mapping(address => mapping(uint256 => uint256)) public packageReferralsMade;\n    mapping(address => mapping(uint256 => uint256)) public packageReferralsClaimed;\n    mapping(address => mapping(uint256 => uint256)) public userRewardsClaimed;\n    mapping(address => uint256) public userRewards;\n\n    // Minimum number of referrals required per package to claim rewards\n    uint256 public minReferralsForRewards = 1;\n    uint256[7] public sevenLevelReferralPercentages = [10, 3, 2, 2, 1, 1, 1];\n\n    // Prosperity Fund settings\n    bool public prosperityFundEnabled = true;\n    uint256 public prosperityFundPercentage = 10; // 10% of node purchases\n    uint256 public prosperityFundDistributionDays = 30; // Distribute every 30 days\n    uint256 public lastProsperityFundDistribution; // Timestamp of last distribution\n    uint256 public prosperityFundBalance; // Current balance in the fund (legacy)\n    uint256 public boosterPercentage = 5;\n    \n    // Package-wise Prosperity Fund tracking\n    // packageId => cycle number => fund balance\n    mapping(uint256 => mapping(uint256 => uint256)) public packageProsperityFundBalance;\n    // packageId => cycle number => last distribution timestamp\n    mapping(uint256 => mapping(uint256 => uint256)) public packageLastDistribution;\n\n    // Admin Marketing Bonus settings\n    // bool public adminMarketingBonusEnabled = true;\n    // uint256 public adminMarketingBonus = 5 * 10**18; // 5 default (1%-10% range)\n    // address public adminWallet; // Admin wallet to receive marketing bonus\n    uint256 public totalAdminMarketingBonusCollected; // Total bonus collected by admin\n\n    uint256 public currentNodeId; // token id\n\n    // Monthly referral tracking\n    // packageId => year-month (YYYYMM format) => referral count\n    mapping(uint256 => mapping(uint256 => uint256)) public monthlyPackageReferrals;\n    \n    // Prosperity Fund cycle tracking\n    uint256 public currentProsperityFundCycle = 1; // Current cycle number\n    // packageId => cycle number => referral count\n    mapping(uint256 => mapping(uint256 => uint256)) public prosperityFundCyclePackageReferrals;\n\n    // Liquidity withdrawal settings\n    bool public withdrawLiquidityEnabled = false;\n    uint256 public withdrawLiquidityPercentage = 10; // Default 10%\n    address public liquidityAddress; // Address to receive liquidity withdrawals\n    uint256 public totalLiquidityWithdrawn; // Total amount withdrawn\n    \n    // First-time user fee settings\n    uint256 public firstTimeUserFee = 0; // Default 0% (disabled)\n    address public firstTimeUserFeeAddress; // Address to receive first-time user fees\n    uint256 public totalFirstTimeUserFeesCollected; // Total fees collected\n    mapping(address => bool) public hasUserPurchased; // Track if user has made any purchase\n \n    // Event emitted when a new node package is added\n    event NodePackageAdded(uint256 indexed id, string name, uint256 price, uint256 duration, uint256 roiPercentage);\n\n    // Event emitted when a node package is updated\n    event NodePackageUpdated(uint256 indexed id, string name, uint256 price, uint256 duration, uint256 roiPercentage, bool isActive);\n\n    // Event emitted when a node is purchased\n    event NodePurchased(address indexed user, uint256 indexed packageId, uint256 purchaseTime, uint256 expiryTime, uint256 currentNodeId);\n\n    // Event emitted when rewards are claimed\n    event RewardsClaimed(address indexed user, uint256 amount, uint256 nodeIndex);\n\n    // Event emitted when a referral is registered\n    event ReferralRegistered(address indexed user, address indexed referrer, uint256 indexed packageId, uint256 packageReferralCount, uint256 totalReferralCount);\n\n    // Event emitted when minimum referrals requirement is updated\n    event MinReferralsUpdated(uint256 oldValue, uint256 newValue);\n    // Event emitted when a referral is registered and reward is distributed\n    event ReferralRegisteredAndRewardDistributed(address indexed referrer, address indexed user, uint256 indexed packageId, uint256 rewardAmount, uint256 level);\n    // Event to emitted booster percentage\n    event UpdateBoosterPercentage(uint256 boosterPercentage);\n    event AddBoosterReward(address indexed user, uint256 boosterReward, uint256 packageId);\n    // Events for Prosperity Fund\n    event ProsperityFundContribution(uint256 amount, uint256 newBalance);\n    event ProsperityFundDistributed(uint256 amount, address recipient);\n    event ProsperityFundSettingsUpdated(bool enabled, uint256 percentage, uint256 distributionDays);\n    \n    // Events for Package-wise Prosperity Fund\n    event PackageProsperityFundContribution(uint256 indexed packageId, uint256 indexed cycle, uint256 amount, uint256 newBalance);\n    event PackageProsperityFundDistributed(uint256 indexed packageId, uint256 indexed cycle, uint256 amount, address recipient);\n    \n    // Events for Admin Marketing Bonus\n    event AdminMarketingBonusCollected(address indexed adminWallet, uint256 amount, uint256 totalCollected);\n    event AdminMarketingBonusSettingsUpdated(bool enabled, uint256 percentage, address adminWallet);\n       \n    // Events for Liquidity Withdrawal\n    event LiquidityWithdrawn(address indexed user, address liquidityAddress, uint256 amount, uint256 percentage, uint256 totalWithdrawn);\n    event LiquidityWithdrawalSettingsUpdated(bool enabled, uint256 percentage, address liquidityAddress);\n    \n    // Events for First-time User Fee\n    event FirstTimeUserFeeCollected(address indexed user, uint256 packageId, uint256 feeAmount, uint256 percentage, uint256 totalCollected);\n    event FirstTimeUserFeeSettingsUpdated(uint256 percentage, address feeAddress);\n\n    // Event emitted when rewards are withdrawn\n    event RewardsWithdrawn(address indexed user, uint256 amount);\n    \n    // Added for tracking reward withdrawals\n    event RewardWithdrawalRequest(address indexed user, uint256 amount, uint256 timestamp);\n\n    // Event emitted when seven-level referral percentages are updated\n    event SevenLevelReferralPercentageUpdated(uint256 indexed index, uint256 percentage);\n\n    // Event emitted when bulk referral reward is earned\n    event BulkReferralRewardEarned(address indexed user, uint256 rewardAmount, uint256 salesTotal, uint256 referralCount, uint256 _packageId);\n\n    // Event emitted when rewards discount settings are updated\n    event RewardsDiscountSettingsUpdated(bool enabled, uint256 percentage);\n\n    // Event emitted when a discounted purchase is made\n    event DiscountedNodePurchased(address indexed user, uint256 indexed packageId, uint256 originalPrice, uint256 discountedPrice, uint256 rewardsUsed);\n    event UserRegistered(address indexed user, uint256 indexed packageId);\n    // Mapping to track ascension bonus metrics\n    mapping(address => mapping(uint256 => uint256) ) public userAscensionBonusReferralCount;\n    mapping(address => mapping(uint256 => uint256)) public userAscensionBonusReferralSalesTotal;\n    mapping(address => mapping(uint256 => uint256)) public userAscensionBonusReferralRewardsClaimed;\n\n    // Bulk referral reward settings\n    uint256 public bulkReferralThreshold = 10; // Number of referrals to qualify for bulk reward\n    uint256 public bulkReferralRewardPercentage = 10; // 10% of total sales\n\n    // Discount settings for users with rewards\n    uint256 public rewardsDiscountPercentage = 20; // 20% discount when using rewards\n    bool public rewardsDiscountEnabled = true; // Whether the discount system is enabled\n\n    /**\n     * @dev Constructor that sets the owner to the contract deployer and sets the token\n     * @param _nodeToken Address of the ERC20 token to be used for purchases and rewards\n     */\n    constructor(address _nodeToken) Ownable() {\n        require(_nodeToken != address(0), \"Token address cannot be zero\");\n        nodeToken = IERC20(_nodeToken);\n        // adminWallet = msg.sender; // Set deployer as initial admin wallet\n    }\n\n    /**\n     * @dev Add a new node package\n     * @param _name Name of the node package\n     * @param _price Price of the node package in tokens\n     * @param _durationInDays Duration of the node package in days\n     * @param _roiPercentage ROI percentage (e.g., 20 means 20% of price)\n     * @return id of the newly added node package\n     */\n    function addNodePackage(\n        string memory _name,\n        uint256 _price,\n        uint256 _durationInDays,\n        uint256 _roiPercentage\n    ) public onlyOwner returns (uint256) {\n        nodePackageCount++;\n        uint256 durationInSeconds = _durationInDays * 1 days;\n\n        nodePackages[nodePackageCount] = NodePackage({\n            id: nodePackageCount,\n            name: _name,\n            price: _price,\n            duration: durationInSeconds,\n            roiPercentage: _roiPercentage,\n            isActive: true\n        });\n\n        emit NodePackageAdded(nodePackageCount, _name, _price, durationInSeconds, _roiPercentage);\n\n        return nodePackageCount;\n    }\n\n    /**\n     * @dev Add multiple node packages at once\n     * @param _names Array of names\n     * @param _prices Array of prices in tokens\n     * @param _durationsInDays Array of durations in days\n     * @param _roiPercentages Array of ROI percentages\n     */\n    function addMultipleNodePackages(\n        string[] memory _names,\n        uint256[] memory _prices,\n        uint256[] memory _durationsInDays,\n        uint256[] memory _roiPercentages\n    ) public onlyOwner {\n        require(\n            _names.length == _prices.length && \n            _prices.length == _durationsInDays.length && \n            _durationsInDays.length == _roiPercentages.length,\n            \"Array lengths must match\"\n        );\n\n        for (uint256 i = 0; i < _names.length; i++) {\n            addNodePackage(_names[i], _prices[i], _durationsInDays[i], _roiPercentages[i]);\n        }\n    }\n\n    /**\n     * @dev Update an existing node package\n     * @param _id ID of the node package to update\n     * @param _name New name\n     * @param _price New price in tokens\n     * @param _durationInDays New duration in days\n     * @param _roiPercentage New ROI percentage\n     * @param _isActive New active status\n     */\n    function updateNodePackage(\n        uint256 _id,\n        string memory _name,\n        uint256 _price,\n        uint256 _durationInDays,\n        uint256 _roiPercentage,\n        bool _isActive\n    ) public onlyOwner {\n        require(_id > 0 && _id <= nodePackageCount, \"Invalid node package ID\");\n\n        uint256 durationInSeconds = _durationInDays * 1 days;\n\n        nodePackages[_id] = NodePackage({\n            id: _id,\n            name: _name,\n            price: _price,\n            duration: durationInSeconds,\n            roiPercentage: _roiPercentage,\n            isActive: _isActive\n        });\n\n        emit NodePackageUpdated(_id, _name, _price, durationInSeconds, _roiPercentage, _isActive);\n    }\n\n    function updateBoosterPercentage(uint256 _boosterPercentage) external onlyOwner {\n        require(_boosterPercentage >= 0 && _boosterPercentage < 50, \"Invalid percentage\");\n        boosterPercentage = _boosterPercentage;\n        emit UpdateBoosterPercentage(boosterPercentage);\n    }\n\n    /**\n     * @dev Set a node package's active status\n     * @param _id ID of the node package\n     * @param _isActive New active status\n     */\n    function setNodePackageActive(uint256 _id, bool _isActive) public onlyOwner {\n        require(_id > 0 && _id <= nodePackageCount, \"Invalid node package ID\");\n\n        nodePackages[_id].isActive = _isActive;\n\n        emit NodePackageUpdated(\n            _id,\n            nodePackages[_id].name,\n            nodePackages[_id].price,\n            nodePackages[_id].duration,\n            nodePackages[_id].roiPercentage,\n            _isActive\n        );\n    }\n\n    // /**\n    //  * @dev Update the admin marketing bonus settings (owner only)\n    //  * @param _enabled Whether the admin marketing bonus is enabled\n    //  * @param _bonus Marketing bonus of each purchase allocated to admin (1-10)\n    //  * @param _adminWallet Admin wallet address to receive bonuses\n    //  */\n    // function updateAdminMarketingBonusSettings(\n    //     bool _enabled, \n    //     uint256 _bonus, \n    //     address _adminWallet\n    // ) public onlyOwner {\n    //     // require(_bonus >= 1 && _bonus <= 10, \"Percentage must be between 1 and 10\");\n    //     require(_adminWallet != address(0), \"Admin wallet cannot be zero address\");\n\n    //     adminMarketingBonusEnabled = _enabled;\n    //     adminMarketingBonus = _bonus;\n    //     adminWallet = _adminWallet;\n\n    //     emit AdminMarketingBonusSettingsUpdated(_enabled, _bonus, _adminWallet);\n    // }\n\n    // /**\n    //  * @dev Get the current admin marketing bonus settings\n    //  * @return enabled Whether the bonus is enabled\n    //  * @return bonus Marketing bonus of each purchase allocated to admin\n    //  * @return wallet Admin wallet address\n    //  * @return totalCollected Total amount collected by admin\n    //  */\n    // function getAdminMarketingBonusSettings() public view returns (\n    //     bool enabled,\n    //     uint256 bonus,\n    //     address wallet,\n    //     uint256 totalCollected\n    // ) {\n    //     return (\n    //         adminMarketingBonusEnabled,\n    //         adminMarketingBonus,\n    //         adminWallet,\n    //         totalAdminMarketingBonusCollected\n    //     );\n    // }\n\n    /**\n     * @dev Get all node packages\n     * @return packages Array of all node packages\n     */\n    function getAllNodes() public view returns (NodePackage[] memory packages) {\n        packages = new NodePackage[](nodePackageCount);\n        \n        for (uint256 i = 1; i <= nodePackageCount; i++) {\n            packages[i - 1] = nodePackages[i];\n        }\n        \n        return packages;\n    }\n\n    /**\n     * @dev Purchase a node package using the node token\n     * @param _packageId ID of the node package to purchase\n     * @param _referrer Address of the referrer (optional)\n     */\n    function purchaseNode(uint256 _packageId, address _referrer) public {\n        require(_packageId > 0 && _packageId <= nodePackageCount, \"Invalid node package ID\");\n        require(nodePackages[_packageId].isActive, \"Node package is not active\");\n\n        uint256 packagePrice = nodePackages[_packageId].price;\n\n        // Check and handle first-time user fee\n        uint256 firstTimeFee = 0;\n        if (firstTimeUserFee > 0 && firstTimeUserFeeAddress != address(0) && !hasUserPurchased[msg.sender]) {\n            firstTimeFee = firstTimeUserFee;\n            totalFirstTimeUserFeesCollected += firstTimeFee;\n            \n            // Transfer first-time user fee to designated address\n            nodeToken.safeTransferFrom(msg.sender, firstTimeUserFeeAddress, firstTimeFee);\n            emit FirstTimeUserFeeCollected(msg.sender, _packageId, firstTimeFee, firstTimeUserFee, totalFirstTimeUserFeesCollected);\n        }\n\n        // Calculate remaining amount after first-time fee\n        uint256 remainingAmount = packagePrice - firstTimeFee;\n        \n        // Check total balance needed (package price + first-time fee if applicable)\n        uint256 totalNeeded = packagePrice + firstTimeFee;\n        require(nodeToken.balanceOf(msg.sender) >= totalNeeded, \"Insufficient token balance\");\n        \n        // Transfer remaining tokens from user to contract\n        nodeToken.safeTransferFrom(msg.sender, address(this), remainingAmount);\n\n        // Process the node purchase with all the common functionality\n        _processNodePurchase(_packageId, _referrer, packagePrice);\n    }\n\n    /**\n     * @dev Purchase a node package using rewards from another package as a discount\n     * @param _packageId ID of the node package to purchase\n     * @param _referrer Address of the referrer (optional)\n     */\n    function purchaseNodeWithDiscount(uint256 _packageId, address _referrer) public {\n        require(_packageId > 0 && _packageId <= nodePackageCount, \"Invalid node package ID\");\n        require(nodePackages[_packageId].isActive, \"Node package is not active\");\n        require(rewardsDiscountEnabled, \"Rewards discount system is not enabled\");\n\n        // Get the source package rewards\n        uint256 availableRewards = userRewards[msg.sender];\n        require(availableRewards > 0, \"No rewards available for discount\");\n        \n        uint256 packagePrice = nodePackages[_packageId].price;\n        uint256 maxDiscountAmount = (packagePrice * rewardsDiscountPercentage) / 100;\n        \n        // Cap the discount at available rewards\n        uint256 discountAmount = maxDiscountAmount > availableRewards ? availableRewards : maxDiscountAmount;\n\n        // Calculate final price after discount\n        uint256 finalPrice = packagePrice - discountAmount;\n\n        // Transfer tokens from user to contract\n        // nodeToken.safeTransferFrom(msg.sender, address(this), finalPrice);\n\n        // Deduct used rewards\n        userRewards[msg.sender] = userRewards[msg.sender] - finalPrice;\n        \n        // Process the node purchase with all the common functionality\n        _processNodePurchase(_packageId, _referrer, packagePrice);\n\n        // Emit special event for discounted purchase\n        // Note: The helper function already emits the regular NodePurchased event\n        emit DiscountedNodePurchased(msg.sender, _packageId, packagePrice, finalPrice, discountAmount);\n    }\n\n    /**\n     * @dev Internal function to process a node purchase (common functionality)\n     * @param _packageId ID of the node package to purchase\n     * @param _referrer Address of the referrer (optional)\n     * @param _packagePrice Original package price (for calculations)\n     */\n    function _processNodePurchase(\n        uint256 _packageId, \n        address _referrer, \n        uint256 _packagePrice\n    ) private {\n        require(userNodeAssigned[msg.sender][_packageId] == false, \"Already assigned\");\n        if(registered[msg.sender] != true) {\n            registered[msg.sender] = true;\n            wallets.push(msg.sender);\n            emit UserRegistered(msg.sender, _packageId);\n            // Collect Admin Marketing Bonus if enabled\n            // if (adminMarketingBonusEnabled && adminWallet != address(0)) {\n            //     uint256 adminBonus =  adminMarketingBonus;\n            //     nodeToken.safeTransfer(adminWallet, adminBonus);\n            //     totalAdminMarketingBonusCollected += adminBonus;\n            //     emit AdminMarketingBonusCollected(adminWallet, adminBonus, totalAdminMarketingBonusCollected);\n            // }\n        }\n        \n        // Mark user as having made a purchase (for first-time fee tracking)\n        hasUserPurchased[msg.sender] = true;\n\n        uint256 boosterReward = (_packagePrice * boosterPercentage) / 100;\n        userRewards[msg.sender] = userRewards[msg.sender] + boosterReward;\n        userRewardsClaimed[msg.sender][_packageId] += boosterReward;\n\n        emit AddBoosterReward(msg.sender, boosterReward, _packageId);\n        \n        // Contribute to Package-wise Prosperity Fund if enabled\n        if (prosperityFundEnabled) {\n            uint256 fundContribution = (_packagePrice * prosperityFundPercentage) / 100;\n            // Add to legacy global fund for backward compatibility\n            prosperityFundBalance += fundContribution;\n            // Add to package-specific fund for current cycle\n            packageProsperityFundBalance[_packageId][currentProsperityFundCycle] += fundContribution;\n            \n            emit ProsperityFundContribution(fundContribution, prosperityFundBalance);\n            emit PackageProsperityFundContribution(_packageId, currentProsperityFundCycle, fundContribution, packageProsperityFundBalance[_packageId][currentProsperityFundCycle]);\n            }\n\n        bool newReferral = false;    \n        if(referralSet[msg.sender] == false) {\n            mainReferrer[msg.sender] = _referrer;\n            referralSet[msg.sender] = true;\n            newReferral = true;\n        }\n        _referrer = mainReferrer[msg.sender];\n        // Register referrer if provided and not already registered for this package\n        if (_referrer != address(0) && _referrer != msg.sender && referrers[msg.sender][_packageId] == address(0)) {\n\n            referrers[msg.sender][_packageId] = _referrer;\n\n            // Increment direct referral counts\n            if(newReferral == true) {\n                referralsMade[_referrer]++;\n                packageReferralsMade[_referrer][_packageId]++;\n                // Track monthly referral count for package\n                // Calculate current year and month properly\n                uint256 currentYear = 1970 + (block.timestamp / 365 days);\n                uint256 currentMonth = ((block.timestamp % 365 days) / 30 days) + 1;\n                uint256 currentYearMonth = currentYear * 100 + currentMonth;\n                monthlyPackageReferrals[_packageId][currentYearMonth]++;\n\n                // Track prosperity fund cycle referral count for package\n                prosperityFundCyclePackageReferrals[_packageId][currentProsperityFundCycle]++;\n\n            }\n\n            if(userNodeAssigned[_referrer][_packageId] == true) {\n                NodePackage memory package = nodePackages[_packageId];\n                uint256 reward = (package.price * package.roiPercentage) / 10000;\n                userRewards[_referrer] = userRewards[_referrer] + reward;\n                userRewardsClaimed[_referrer][_packageId] = userRewardsClaimed[_referrer][_packageId] + reward;\n                emit RewardsClaimed(_referrer, reward, _packageId);\n            }\n\n            \n            // Track ascension bonus metrics\n            userAscensionBonusReferralCount[_referrer][_packageId]++;\n            userAscensionBonusReferralSalesTotal[_referrer][_packageId] += _packagePrice; // Use original price for referral tracking\n\n            // Check if user has reached the ascension bonus threshold\n            if (userAscensionBonusReferralCount[_referrer][_packageId] % bulkReferralThreshold == 0 && userNodeAssigned[_referrer][_packageId] == true) {\n                // Calculate the ascension bonus reward based on the last 10 referrals' sales\n                uint256 rewardAmount = (userAscensionBonusReferralSalesTotal[_referrer][_packageId] * bulkReferralRewardPercentage) / 100;\n\n                // Update claimed rewards\n                userAscensionBonusReferralRewardsClaimed[_referrer][_packageId] += rewardAmount;\n\n                // Send instant reward to the referrer\n                // nodeToken.safeTransfer(_referrer, rewardAmount);\n                userRewards[_referrer] = userRewards[_referrer] + rewardAmount;\n                userRewardsClaimed[_referrer][_packageId] += rewardAmount;\n\n                emit BulkReferralRewardEarned(\n                    _referrer,\n                    rewardAmount,\n                    userAscensionBonusReferralSalesTotal[_referrer][_packageId],\n                    userAscensionBonusReferralCount[_referrer][_packageId],\n                    _packageId\n                );\n\n                // Reset the sales total for the next batch\n                userAscensionBonusReferralSalesTotal[_referrer][_packageId] = 0;\n            }\n\n            // Calculate and distribute referral reward to direct referrer\n            // calculateReferralReward(msg.sender, _packageId, _packagePrice);\n\n            emit ReferralRegistered(\n                msg.sender, \n                _referrer, \n                _packageId, \n                packageReferralsMade[_referrer][_packageId], \n                referralsMade[_referrer]\n            );\n        }\n\n        // Calculate seven level referral rewards\n        address currentReferrer = _referrer;\n        uint256 currentLevel = 0;\n\n        while (currentReferrer != address(0) && currentLevel < 7) {\n            uint256 rewardAmount = (_packagePrice * sevenLevelReferralPercentages[currentLevel]) / 100;\n            \n            if (rewardAmount > 0 && userNodeAssigned[currentReferrer][_packageId] == true) {\n                \n                userRewardsClaimed[currentReferrer][_packageId] += rewardAmount;\n                userRewards[currentReferrer] += rewardAmount;\n                emit ReferralRegisteredAndRewardDistributed(currentReferrer, msg.sender, _packageId, rewardAmount, currentLevel);\n            }\n\n            // Get next level referrer\n            address nextReferrer = referrers[currentReferrer][_packageId];\n            if (nextReferrer == address(0) || nextReferrer == currentReferrer) break;\n            \n            currentReferrer = nextReferrer;\n            currentLevel++;\n        }\n\n        // Record direct referrer details\n        if (_referrer != address(0)) {\n            directReferrers[msg.sender][_packageId] = DirectReferralDetails({\n                directReferrer: _referrer,\n                level: 1\n            });\n        }\n\n        // Calculate expiry time\n        uint256 purchaseTime = block.timestamp;\n        uint256 expiryTime = purchaseTime + nodePackages[_packageId].duration;\n\n        currentNodeId++;\n        // Create a new user node\n        UserNode memory newNode = UserNode({\n            packageId: _packageId,\n            purchaseTime: purchaseTime,\n            expiryTime: expiryTime,\n            isActive: true,\n            nodeId: currentNodeId\n        });\n\n        // Add the node to the user's list\n        userNodes[msg.sender][_packageId] = newNode;\n        userNodeAssigned[msg.sender][_packageId] = true;\n\n        emit NodePurchased(msg.sender, _packageId, purchaseTime, expiryTime, currentNodeId);\n    }\n\n    /**\n     * @dev Get details of a node package\n     * @param _id ID of the node package\n     * @return id ID of the node package\n     * @return name Name of the node package\n     * @return price Price in tokens\n     * @return duration Duration in seconds\n     * @return roiPercentage ROI percentage\n     * @return isActive Whether the package is active\n     */\n    function getNodePackage(uint256 _id) public view returns (\n        uint256 id,\n        string memory name,\n        uint256 price,\n        uint256 duration,\n        uint256 roiPercentage,\n        bool isActive\n    ) {\n        require(_id > 0 && _id <= nodePackageCount, \"Invalid node package ID\");\n\n        NodePackage storage package = nodePackages[_id];\n\n        return (\n            package.id,\n            package.name,\n            package.price,\n            package.duration,\n            package.roiPercentage,\n            package.isActive\n        );\n    }\n\n    /**\n     * @dev Get the total number of referrals a user has made across all packages\n     * @param _user Address of the user\n     * @return count Total number of referrals made\n     */\n    function getUserReferralCount(address _user) public view returns (uint256) {\n        return referralsMade[_user];\n    }\n\n    /**\n     * @dev Get the total number of users\n     * @return count Total number of user\n     */\n    function getWalletsCount() public view returns (uint256) {\n        return wallets.length;\n    }\n\n    /**\n     * @dev Get the number of referrals a user has made for a specific package\n     * @param _user Address of the user\n     * @param _packageId ID of the node package\n     * @return count Number of referrals made for the specific package\n     */\n    function getUserPackageReferralCount(address _user, uint256 _packageId) public view returns (uint256) {\n        return packageReferralsMade[_user][_packageId];\n    }\n\n    /**\n     * @dev Get the referrer for a specific user and package\n     * @param _user Address of the user\n     * @param _packageId ID of the node package\n     * @return referrer The referrer address for this user and package\n     */\n    function getUserReferrer(address _user, uint256 _packageId) public view returns (address) {\n        return referrers[_user][_packageId];\n    }\n\n    /**\n     * @dev Get details of a user's node\n     * @param _user Address of the user\n     * @param _index Index of the node in the user's array\n     * @return packageId ID of the node package\n     * @return purchaseTime Time when the node was purchased\n     * @return expiryTime Time when the node expires\n     * @return isActive Whether the node is active\n     */\n    function getUserNode(address _user, uint256 _index) public view returns (\n        uint256 packageId,\n        uint256 purchaseTime,\n        uint256 expiryTime,\n        bool isActive,\n        uint256 nodeId\n    ) {\n        UserNode storage node = userNodes[_user][_index];\n\n        return (\n            node.packageId,\n            node.purchaseTime,\n            node.expiryTime,\n            node.isActive,\n            node.nodeId\n        );\n    }\n\n    /**\n     * @dev Withdraw tokens from the contract (owner only)\n     * @param _amount Amount of tokens to withdraw\n     */\n    function withdrawTokens(uint256 _amount) public onlyOwner {\n        require(_amount <= nodeToken.balanceOf(address(this)) - prosperityFundBalance, \"Insufficient contract balance outside of Prosperity Fund\");\n        nodeToken.safeTransfer(owner(), _amount);\n    }\n\n    /**\n     * @dev Update the Prosperity Fund settings (owner only)\n     * @param _enabled Whether the fund is enabled\n     * @param _percentage Percentage of each purchase to allocate to the fund (0-100)\n     * @param _distributionDays Number of days between distributions\n     */\n    function updateProsperityFundSettings(bool _enabled, uint256 _percentage, uint256 _distributionDays) public onlyOwner {\n        require(_percentage <= 100, \"Percentage must be between 0 and 100\");\n        require(_distributionDays > 0, \"Distribution days must be greater than 0\");\n\n        prosperityFundEnabled = _enabled;\n        prosperityFundPercentage = _percentage;\n        prosperityFundDistributionDays = _distributionDays;\n\n        // Set the initial distribution timestamp if it's not set yet\n        if (lastProsperityFundDistribution == 0) {\n            lastProsperityFundDistribution = block.timestamp;\n        }\n\n        emit ProsperityFundSettingsUpdated(_enabled, _percentage, _distributionDays);\n    }\n\n    /**\n     * @dev Check if the Prosperity Fund is ready for distribution\n     * @return bool Whether the fund is ready for distribution\n     */\n    function isProsperityFundReadyForDistribution() public view returns (bool) {\n        if (!prosperityFundEnabled || prosperityFundBalance == 0) {\n            return false;\n        }\n\n        uint256 timeSinceLastDistribution = block.timestamp - lastProsperityFundDistribution;\n        uint256 distributionPeriod = prosperityFundDistributionDays * 1 days;\n\n        return timeSinceLastDistribution >= distributionPeriod;\n    }\n\n    // /**\n    //  * @dev Distribute the Prosperity Fund to a specified address (owner only)\n    //  * @param _recipient Address to receive the distribution\n    //  */\n    // function distributeProsperityFund(address _recipient) public onlyOwner {\n    //     require(prosperityFundEnabled, \"Prosperity Fund is not enabled\");\n    //     require(prosperityFundBalance > 0, \"Prosperity Fund balance is zero\");\n    //     require(_recipient != address(0), \"Recipient cannot be zero address\");\n\n    //     require(isProsperityFundReadyForDistribution(), \"Prosperity Fund is not ready\");\n\n    //     uint256 amountToDistribute = prosperityFundBalance;\n    //     prosperityFundBalance = 0;\n    //     lastProsperityFundDistribution = block.timestamp;\n\n    //     // Increment to next prosperity fund cycle for new tracking period\n    //     currentProsperityFundCycle++;\n\n    //     // Transfer the tokens to the recipient\n    //     nodeToken.safeTransfer(_recipient, amountToDistribute);\n\n    //     emit ProsperityFundDistributed(amountToDistribute, _recipient);\n    // }\n\n    /**\n     * @dev Get package prosperity fund balance for a specific package and cycle\n     * @param _packageId Package ID\n     * @param _cycle Cycle number\n     * @return balance Fund balance for the package in the specified cycle\n     */\n    function getPackageProsperityFundBalance(uint256 _packageId, uint256 _cycle) public view returns (uint256 balance) {\n        return packageProsperityFundBalance[_packageId][_cycle];\n    }\n\n    /**\n     * @dev Get all package prosperity fund balances for current cycle\n     * @return packageIds Array of package IDs\n     * @return balances Array of corresponding balances\n     */\n    function getAllPackageProsperityFundBalances() public view returns (uint256[] memory packageIds, uint256[] memory balances) {\n        packageIds = new uint256[](nodePackageCount);\n        balances = new uint256[](nodePackageCount);\n        \n        for (uint256 i = 1; i <= nodePackageCount; i++) {\n            packageIds[i - 1] = i;\n            balances[i - 1] = packageProsperityFundBalance[i][currentProsperityFundCycle];\n        }\n        \n        return (packageIds, balances);\n    }\n\n    /**\n     * @dev Check if a package prosperity fund is ready for distribution\n     * @param _packageId Package ID to check\n     * @return bool Whether the package fund is ready for distribution\n     */\n    function isPackageProsperityFundReadyForDistribution(uint256 _packageId) public view returns (bool) {\n        if (!prosperityFundEnabled || packageProsperityFundBalance[_packageId][currentProsperityFundCycle] == 0) {\n            return false;\n        }\n\n        uint256 lastDistribution = packageLastDistribution[_packageId][currentProsperityFundCycle];\n        if (lastDistribution == 0) {\n            // If never distributed, use global last distribution time\n            lastDistribution = lastProsperityFundDistribution;\n        }\n\n        uint256 timeSinceLastDistribution = block.timestamp - lastDistribution;\n        uint256 distributionPeriod = prosperityFundDistributionDays * 1 days;\n\n        return timeSinceLastDistribution >= distributionPeriod;\n    }\n\n    /**\n     * @dev Distribute prosperity fund for a specific package (owner only)\n     * @param _packageId Package ID to distribute\n     * @param _recipient Address to receive the distribution\n     */\n    function distributePackageProsperityFund(uint256 _packageId, address _recipient) public onlyOwner {\n        require(_packageId > 0 && _packageId <= nodePackageCount, \"Invalid package ID\");\n        require(prosperityFundEnabled, \"Prosperity Fund is not enabled\");\n        require(_recipient != address(0), \"Recipient cannot be zero address\");\n        require(isPackageProsperityFundReadyForDistribution(_packageId), \"Package prosperity fund is not ready\");\n\n        uint256 amountToDistribute = packageProsperityFundBalance[_packageId][currentProsperityFundCycle];\n        require(amountToDistribute > 0, \"Package prosperity fund balance is zero\");\n        prosperityFundBalance -= amountToDistribute;\n\n        // Reset the package fund balance\n        packageProsperityFundBalance[_packageId][currentProsperityFundCycle] = 0;\n        packageLastDistribution[_packageId][currentProsperityFundCycle] = block.timestamp;\n        \n\n        // Transfer the tokens to the recipient\n        nodeToken.safeTransfer(_recipient, amountToDistribute);\n\n        if(prosperityFundBalance == 0) {\n            lastProsperityFundDistribution = block.timestamp;\n\n            currentProsperityFundCycle++;\n        }\n\n        emit PackageProsperityFundDistributed(_packageId, currentProsperityFundCycle, amountToDistribute, _recipient);\n    }\n\n    /**\n     * @dev Distribute all ready package prosperity funds (owner only)\n     * @param _recipient Address to receive all distributions\n     * @return totalDistributed Total amount distributed across all packages\n     */\n    function distributeAllPackageProsperityFunds(address _recipient) public onlyOwner returns (uint256 totalDistributed) {\n        require(prosperityFundEnabled, \"Prosperity Fund is not enabled\");\n        require(_recipient != address(0), \"Recipient cannot be zero address\");\n\n        totalDistributed = 0;\n\n        for (uint256 i = 1; i <= nodePackageCount; i++) {\n            if (isPackageProsperityFundReadyForDistribution(i)) {\n                uint256 amountToDistribute = packageProsperityFundBalance[i][currentProsperityFundCycle];\n                if (amountToDistribute > 0) {\n                    // Reset the package fund balance\n                    packageProsperityFundBalance[i][currentProsperityFundCycle] = 0;\n                    packageLastDistribution[i][currentProsperityFundCycle] = block.timestamp;\n\n                    totalDistributed += amountToDistribute;\n                    prosperityFundBalance -= amountToDistribute;\n\n\n                    emit PackageProsperityFundDistributed(i, currentProsperityFundCycle, amountToDistribute, _recipient);\n                }\n            }\n        }\n\n        if (totalDistributed > 0) {\n            // Transfer the total tokens to the recipient\n            nodeToken.safeTransfer(_recipient, totalDistributed);\n        }\n\n        lastProsperityFundDistribution = block.timestamp;\n\n        currentProsperityFundCycle++;\n\n        return totalDistributed;\n    }\n\n    /**\n     * @dev Update the minimum number of referrals required to claim rewards (owner only)\n     * @param _minReferrals New minimum referral count\n     */\n    function setMinReferralsForRewards(uint256 _minReferrals) public onlyOwner {\n        uint256 oldValue = minReferralsForRewards;\n        minReferralsForRewards = _minReferrals;\n        emit MinReferralsUpdated(oldValue, _minReferrals);\n    }\n\n    /**\n     * @dev Get the direct referral details for a specific user and package\n     * @param _user Address of the user\n     * @param _packageId ID of the node package\n     * @return referrer The referrer address and level\n     */\n    function getDirectReferralDetails(address _user, uint256 _packageId) public view returns (address referrer, uint256 level) {\n        DirectReferralDetails storage details = directReferrers[_user][_packageId];\n        return (details.directReferrer, details.level);\n    }\n\n    /**\n     * @dev Calculate and distribute referral reward for a direct referrer\n     * @param _user The user who is generating the referral reward\n     * @param _packageId The package ID associated with the referral\n     * @param _packagePrice The price of the package\n     * @return The amount of reward distributed (0 if no referrer found)\n     */\n    function calculateReferralReward(address _user, uint256 _packageId, uint256 _packagePrice) internal returns (uint256) {\n        // Get the direct referrer\n        address referrer = referrers[_user][_packageId];\n\n        // If no referrer, return 0\n        if (referrer == address(0)) {\n            return 0;\n        }\n\n        // Calculate the reward (10% of package price)\n        uint256 rewardAmount = (_packagePrice * 10) / 100;\n\n        if (rewardAmount > 0) {\n            // Add to referrer's claimed rewards for this package\n            userRewardsClaimed[referrer][_packageId] += rewardAmount;\n            userRewards[referrer] += rewardAmount;\n        }\n\n        return rewardAmount;\n    }\n\n    /**\n     * @dev Withdraw claimed rewards\n     * @param _amount Amount of tokens to withdraw\n     */\n    function withdrawRewards(uint256 _amount) public {\n        uint256 rewardAmount = userRewards[msg.sender];\n        require(rewardAmount >= _amount, \"No rewards to withdraw\");\n\n        // Emit a tracking event\n        emit RewardWithdrawalRequest(msg.sender, _amount, block.timestamp);\n        \n        // Execute withdrawal if enabled\n        uint256 withdrawalAmount;\n        if (withdrawLiquidityEnabled) {\n            withdrawalAmount = (_amount * withdrawLiquidityPercentage) / 100;\n            require(withdrawalAmount > 0, \"Withdrawal amount is zero\");\n\n            totalLiquidityWithdrawn += withdrawalAmount;\n\n            // Transfer tokens to liquidity address\n            nodeToken.safeTransfer(liquidityAddress, withdrawalAmount);\n\n            emit LiquidityWithdrawn(msg.sender, liquidityAddress, withdrawalAmount, withdrawLiquidityPercentage, totalLiquidityWithdrawn);\n        }\n        // Deduct the amount from user's rewards\n        userRewards[msg.sender] = userRewards[msg.sender] - _amount;\n\n        // Transfer tokens to the user\n        nodeToken.safeTransfer(msg.sender, _amount - withdrawalAmount);\n\n        emit RewardsWithdrawn(msg.sender, _amount - withdrawalAmount);\n    }\n\n    function updateSevenLevelReferralPercentage(uint256 _index, uint256 _percentage) public onlyOwner {\n        require(_index < sevenLevelReferralPercentages.length, \"Invalid index\");\n        require(_percentage <= 100, \"Percentage must be less than or equal to 100\");\n        sevenLevelReferralPercentages[_index] = _percentage;\n        emit SevenLevelReferralPercentageUpdated(_index, _percentage);\n    }\n\n    // The withdrawPackageRewards and withdrawAllRewards functions have been removed as requested\n\n    /**\n     * @dev Get the total claimed rewards for a user across all packages\n     * @param _user Address of the user\n     * @return totalRewards Total claimed rewards\n     */\n    function getUserTotalClaimedRewards(address _user) public view returns (uint256 totalRewards) {\n        totalRewards = 0;\n\n        for (uint256 i = 1; i <= nodePackageCount; i++) {\n            totalRewards += userRewardsClaimed[_user][i];\n        }\n\n        return totalRewards;\n    }\n\n    /**\n     * @dev Get the claimed rewards for a user for a specific package\n     * @param _user Address of the user\n     * @param _packageId ID of the package\n     * @return claimedRewards Claimed rewards for the package\n     */\n    function getUserPackageClaimedRewards(address _user, uint256 _packageId) public view returns (uint256) {\n        require(_packageId > 0 && _packageId <= nodePackageCount, \"Invalid node package ID\");\n        return userRewardsClaimed[_user][_packageId];\n    }\n\n    /**\n     * @dev Get the current status of the Prosperity Fund\n     * @return enabled Whether the fund is enabled\n     * @return balance Current balance in the fund\n     * @return percentage Percentage of each purchase allocated to the fund\n     * @return distributionDays Number of days between distributions\n     * @return nextDistribution Timestamp when the next distribution will be available\n     * @return isReady Whether the fund is ready for distribution\n     */\n    function getProsperityFundStatus() public view returns (\n        bool enabled,\n        uint256 balance,\n        uint256 percentage,\n        uint256 distributionDays,\n        uint256 nextDistribution,\n        bool isReady\n    ) {\n        uint256 distributionPeriod = prosperityFundDistributionDays * 1 days;\n        uint256 nextDistributionTime = lastProsperityFundDistribution + distributionPeriod;\n\n        return (\n            prosperityFundEnabled,\n            prosperityFundBalance,\n            prosperityFundPercentage,\n            prosperityFundDistributionDays,\n            nextDistributionTime,\n            isProsperityFundReadyForDistribution()\n        );\n    }\n\n    /**\n     * @dev Get the ascension bonus stats for a user\n     * @param _user Address of the user\n     * @return referralCount Total number of referrals made\n     * @return salesTotal Current sales total since last reward\n     * @return rewardsClaimed Total rewards claimed through ascension bonus\n     * @return referralsToNextReward Number of referrals needed for next reward\n     */\n    function getUserAscensionBonusStats(address _user, uint256 _packageId) public view returns (\n        uint256 referralCount,\n        uint256 salesTotal,\n        uint256 rewardsClaimed,\n        uint256 referralsToNextReward\n    ) {\n        referralCount = userAscensionBonusReferralCount[_user][_packageId];\n        salesTotal = userAscensionBonusReferralSalesTotal[_user][_packageId];\n        rewardsClaimed = userAscensionBonusReferralRewardsClaimed[_user][_packageId];\n\n        // Calculate how many more referrals needed for next reward\n        uint256 nextThreshold = ((referralCount / bulkReferralThreshold) + 1) * bulkReferralThreshold;\n        referralsToNextReward = nextThreshold - referralCount;\n\n        return (\n            referralCount,\n            salesTotal,\n            rewardsClaimed,\n            referralsToNextReward\n        );\n    }\n\n    /**\n     * @dev Update the bulk referral reward settings (owner only)\n     * @param _threshold Number of referrals to qualify for bulk reward\n     * @param _percentage Percentage of total sales for reward (0-100)\n     */\n    function updateBulkReferralSettings(uint256 _threshold, uint256 _percentage) public onlyOwner {\n        require(_threshold > 0, \"Threshold must be greater than 0\");\n        require(_percentage <= 100, \"Percentage must be between 0 and 100\");\n\n        bulkReferralThreshold = _threshold;\n        bulkReferralRewardPercentage = _percentage;\n    }\n\n    /**\n     * @dev Update the rewards discount settings (owner only)\n     * @param _enabled Whether the discount system is enabled\n     * @param _percentage Discount percentage to apply (0-100)\n     */\n    function updateRewardsDiscountSettings(bool _enabled, uint256 _percentage) public onlyOwner {\n        require(_percentage <= 100, \"Percentage must be between 0 and 100\");\n\n        rewardsDiscountEnabled = _enabled;\n        rewardsDiscountPercentage = _percentage;\n\n        emit RewardsDiscountSettingsUpdated(_enabled, _percentage);\n    }\n\n    /**\n     * @dev Configure liquidity withdrawal settings for withdrawRewards function (owner only)\n     * @param _withdrawLiquidityEnabled Whether liquidity withdrawal is enabled for rewards\n     * @param _withdrawLiquidityPercentage Percentage of reward withdrawals to redirect to liquidity (1-100)\n     * @param _liquidityAddress Address to receive the liquidity portion from rewards\n     */\n    function updateWithdrawLiquiditySettings(bool _withdrawLiquidityEnabled, uint256 _withdrawLiquidityPercentage, address _liquidityAddress) public onlyOwner {\n        require(_withdrawLiquidityPercentage >= 1 && _withdrawLiquidityPercentage <= 100, \"Percentage must be between 1 and 100\");\n        require(_liquidityAddress != address(0), \"Liquidity address cannot be zero\");\n\n        // Update settings\n        withdrawLiquidityEnabled = _withdrawLiquidityEnabled;\n        withdrawLiquidityPercentage = _withdrawLiquidityPercentage;\n        liquidityAddress = _liquidityAddress;\n\n        emit LiquidityWithdrawalSettingsUpdated(_withdrawLiquidityEnabled, _withdrawLiquidityPercentage, _liquidityAddress);\n    }\n\n    /**\n     * @dev Get current contract token balance\n     * @return Current balance of tokens held by the contract\n     */\n    function getContractBalance() public view returns (uint256) {\n        return nodeToken.balanceOf(address(this));\n    }\n\n    /**\n     * @dev Get liquidity withdrawal settings\n     * @return enabled Whether withdrawal is enabled\n     * @return percentage Withdrawal percentage\n     * @return liquidityAddr Address to receive withdrawals\n     * @return totalWithdrawn Total amount withdrawn so far\n     */\n    function getLiquidityWithdrawalSettings() public view returns (bool enabled, uint256 percentage, address liquidityAddr, uint256 totalWithdrawn) {\n        return (withdrawLiquidityEnabled, withdrawLiquidityPercentage, liquidityAddress, totalLiquidityWithdrawn);\n    }\n\n    /**\n     * @dev Update first-time user fee settings (owner only)\n     * @param _fee Fee percentage (0-100, 0 disables the feature)\n     * @param _feeAddress Address to receive first-time user fees\n     */\n    function updateFirstTimeUserFeeSettings(uint256 _fee, address _feeAddress) public onlyOwner {\n        require(_feeAddress != address(0), \"Fee address cannot be zero\");\n\n        firstTimeUserFee = _fee;\n        firstTimeUserFeeAddress = _feeAddress;\n\n        emit FirstTimeUserFeeSettingsUpdated(_fee, _feeAddress);\n    }\n\n    /**\n     * @dev Get first-time user fee settings\n     * @return fee Fee \n     * @return feeAddr Address to receive fees\n     * @return totalCollected Total fees collected so far\n     */\n    function getFirstTimeUserFeeSettings() public view returns (uint256 fee, address feeAddr, uint256 totalCollected) {\n        return (firstTimeUserFee, firstTimeUserFeeAddress, totalFirstTimeUserFeesCollected);\n    }\n\n    /**\n     * @dev Check if a user has made any purchase before\n     * @param user Address of the user to check\n     * @return hasPurchased Whether the user has made any purchase\n     */\n    function hasUserMadePurchase(address user) public view returns (bool hasPurchased) {\n        return hasUserPurchased[user];\n    }\n}\n",
  "sourcePath": "/Users/mudaseriqbal/Documents/bsl/alffilateNetwork1/contracts/NodePackages.sol",
  "compiler": {
    "name": "solc",
    "version": "0.8.8+commit.dddeac2f.Emscripten.clang"
  },
  "schemaVersion": "3.4.16",
  "updatedAt": "2025-07-07T07:54:34.837Z",
  "networkType": "ethereum",
  "devdoc": {
    "details": "Smart contract for a node-based affiliate system with predefined node packages using ERC20 tokens",
    "kind": "dev",
    "methods": {
      "addMultipleNodePackages(string[],uint256[],uint256[],uint256[])": {
        "details": "Add multiple node packages at once",
        "params": {
          "_durationsInDays": "Array of durations in days",
          "_names": "Array of names",
          "_prices": "Array of prices in tokens",
          "_roiPercentages": "Array of ROI percentages"
        }
      },
      "addNodePackage(string,uint256,uint256,uint256)": {
        "details": "Add a new node package",
        "params": {
          "_durationInDays": "Duration of the node package in days",
          "_name": "Name of the node package",
          "_price": "Price of the node package in tokens",
          "_roiPercentage": "ROI percentage (e.g., 20 means 20% of price)"
        },
        "returns": {
          "_0": "id of the newly added node package"
        }
      },
      "constructor": {
        "details": "Constructor that sets the owner to the contract deployer and sets the token",
        "params": {
          "_nodeToken": "Address of the ERC20 token to be used for purchases and rewards"
        }
      },
      "distributeAllPackageProsperityFunds(address)": {
        "details": "Distribute all ready package prosperity funds (owner only)",
        "params": {
          "_recipient": "Address to receive all distributions"
        },
        "returns": {
          "totalDistributed": "Total amount distributed across all packages"
        }
      },
      "distributePackageProsperityFund(uint256,address)": {
        "details": "Distribute prosperity fund for a specific package (owner only)",
        "params": {
          "_packageId": "Package ID to distribute",
          "_recipient": "Address to receive the distribution"
        }
      },
      "getAllNodes()": {
        "details": "Get all node packages",
        "returns": {
          "packages": "Array of all node packages"
        }
      },
      "getAllPackageProsperityFundBalances()": {
        "details": "Get all package prosperity fund balances for current cycle",
        "returns": {
          "balances": "Array of corresponding balances",
          "packageIds": "Array of package IDs"
        }
      },
      "getContractBalance()": {
        "details": "Get current contract token balance",
        "returns": {
          "_0": "Current balance of tokens held by the contract"
        }
      },
      "getDirectReferralDetails(address,uint256)": {
        "details": "Get the direct referral details for a specific user and package",
        "params": {
          "_packageId": "ID of the node package",
          "_user": "Address of the user"
        },
        "returns": {
          "referrer": "The referrer address and level"
        }
      },
      "getFirstTimeUserFeeSettings()": {
        "details": "Get first-time user fee settings",
        "returns": {
          "fee": "Fee ",
          "feeAddr": "Address to receive fees",
          "totalCollected": "Total fees collected so far"
        }
      },
      "getLiquidityWithdrawalSettings()": {
        "details": "Get liquidity withdrawal settings",
        "returns": {
          "enabled": "Whether withdrawal is enabled",
          "liquidityAddr": "Address to receive withdrawals",
          "percentage": "Withdrawal percentage",
          "totalWithdrawn": "Total amount withdrawn so far"
        }
      },
      "getNodePackage(uint256)": {
        "details": "Get details of a node package",
        "params": {
          "_id": "ID of the node package"
        },
        "returns": {
          "duration": "Duration in seconds",
          "id": "ID of the node package",
          "isActive": "Whether the package is active",
          "name": "Name of the node package",
          "price": "Price in tokens",
          "roiPercentage": "ROI percentage"
        }
      },
      "getPackageProsperityFundBalance(uint256,uint256)": {
        "details": "Get package prosperity fund balance for a specific package and cycle",
        "params": {
          "_cycle": "Cycle number",
          "_packageId": "Package ID"
        },
        "returns": {
          "balance": "Fund balance for the package in the specified cycle"
        }
      },
      "getProsperityFundStatus()": {
        "details": "Get the current status of the Prosperity Fund",
        "returns": {
          "balance": "Current balance in the fund",
          "distributionDays": "Number of days between distributions",
          "enabled": "Whether the fund is enabled",
          "isReady": "Whether the fund is ready for distribution",
          "nextDistribution": "Timestamp when the next distribution will be available",
          "percentage": "Percentage of each purchase allocated to the fund"
        }
      },
      "getUserAscensionBonusStats(address,uint256)": {
        "details": "Get the ascension bonus stats for a user",
        "params": {
          "_user": "Address of the user"
        },
        "returns": {
          "referralCount": "Total number of referrals made",
          "referralsToNextReward": "Number of referrals needed for next reward",
          "rewardsClaimed": "Total rewards claimed through ascension bonus",
          "salesTotal": "Current sales total since last reward"
        }
      },
      "getUserNode(address,uint256)": {
        "details": "Get details of a user's node",
        "params": {
          "_index": "Index of the node in the user's array",
          "_user": "Address of the user"
        },
        "returns": {
          "expiryTime": "Time when the node expires",
          "isActive": "Whether the node is active",
          "packageId": "ID of the node package",
          "purchaseTime": "Time when the node was purchased"
        }
      },
      "getUserPackageClaimedRewards(address,uint256)": {
        "details": "Get the claimed rewards for a user for a specific package",
        "params": {
          "_packageId": "ID of the package",
          "_user": "Address of the user"
        },
        "returns": {
          "_0": "claimedRewards Claimed rewards for the package"
        }
      },
      "getUserPackageReferralCount(address,uint256)": {
        "details": "Get the number of referrals a user has made for a specific package",
        "params": {
          "_packageId": "ID of the node package",
          "_user": "Address of the user"
        },
        "returns": {
          "_0": "count Number of referrals made for the specific package"
        }
      },
      "getUserReferralCount(address)": {
        "details": "Get the total number of referrals a user has made across all packages",
        "params": {
          "_user": "Address of the user"
        },
        "returns": {
          "_0": "count Total number of referrals made"
        }
      },
      "getUserReferrer(address,uint256)": {
        "details": "Get the referrer for a specific user and package",
        "params": {
          "_packageId": "ID of the node package",
          "_user": "Address of the user"
        },
        "returns": {
          "_0": "referrer The referrer address for this user and package"
        }
      },
      "getUserTotalClaimedRewards(address)": {
        "details": "Get the total claimed rewards for a user across all packages",
        "params": {
          "_user": "Address of the user"
        },
        "returns": {
          "totalRewards": "Total claimed rewards"
        }
      },
      "getWalletsCount()": {
        "details": "Get the total number of users",
        "returns": {
          "_0": "count Total number of user"
        }
      },
      "hasUserMadePurchase(address)": {
        "details": "Check if a user has made any purchase before",
        "params": {
          "user": "Address of the user to check"
        },
        "returns": {
          "hasPurchased": "Whether the user has made any purchase"
        }
      },
      "isPackageProsperityFundReadyForDistribution(uint256)": {
        "details": "Check if a package prosperity fund is ready for distribution",
        "params": {
          "_packageId": "Package ID to check"
        },
        "returns": {
          "_0": "bool Whether the package fund is ready for distribution"
        }
      },
      "userHoldReward(address,uint256)": {
        "details": "Get the hold reward for a specific user and package",
        "params": {
          "_packageId": "ID of the node package",
          "_user": "Address of the user"
        },
        "returns": {
          "_0": "holdReward The hold reward for this user and package"
        }
      },
      "isProsperityFundReadyForDistribution()": {
        "details": "Check if the Prosperity Fund is ready for distribution",
        "returns": {
          "_0": "bool Whether the fund is ready for distribution"
        }
      },
      "owner()": {
        "details": "Returns the address of the current owner."
      },
      "purchaseNode(uint256,address)": {
        "details": "Purchase a node package using the node token",
        "params": {
          "_packageId": "ID of the node package to purchase",
          "_referrer": "Address of the referrer (optional)"
        }
      },
      "purchaseNodeWithDiscount(uint256,address)": {
        "details": "Purchase a node package using rewards from another package as a discount",
        "params": {
          "_packageId": "ID of the node package to purchase",
          "_referrer": "Address of the referrer (optional)"
        }
      },
      "renounceOwnership()": {
        "details": "Leaves the contract without owner. It will not be possible to call `onlyOwner` functions anymore. Can only be called by the current owner. NOTE: Renouncing ownership will leave the contract without an owner, thereby removing any functionality that is only available to the owner."
      },
      "setMinReferralsForRewards(uint256)": {
        "details": "Update the minimum number of referrals required to claim rewards (owner only)",
        "params": {
          "_minReferrals": "New minimum referral count"
        }
      },
      "setNodePackageActive(uint256,bool)": {
        "details": "Set a node package's active status",
        "params": {
          "_id": "ID of the node package",
          "_isActive": "New active status"
        }
      },
      "transferOwnership(address)": {
        "details": "Transfers ownership of the contract to a new account (`newOwner`). Can only be called by the current owner."
      },
      "updateBulkReferralSettings(uint256,uint256)": {
        "details": "Update the bulk referral reward settings (owner only)",
        "params": {
          "_percentage": "Percentage of total sales for reward (0-100)",
          "_threshold": "Number of referrals to qualify for bulk reward"
        }
      },
      "updateFirstTimeUserFeeSettings(uint256,address)": {
        "details": "Update first-time user fee settings (owner only)",
        "params": {
          "_fee": "Fee percentage (0-100, 0 disables the feature)",
          "_feeAddress": "Address to receive first-time user fees"
        }
      },
      "updateNodePackage(uint256,string,uint256,uint256,uint256,bool)": {
        "details": "Update an existing node package",
        "params": {
          "_durationInDays": "New duration in days",
          "_id": "ID of the node package to update",
          "_isActive": "New active status",
          "_name": "New name",
          "_price": "New price in tokens",
          "_roiPercentage": "New ROI percentage"
        }
      },
      "updateProsperityFundSettings(bool,uint256,uint256)": {
        "details": "Update the Prosperity Fund settings (owner only)",
        "params": {
          "_distributionDays": "Number of days between distributions",
          "_enabled": "Whether the fund is enabled",
          "_percentage": "Percentage of each purchase to allocate to the fund (0-100)"
        }
      },
      "updateRewardsDiscountSettings(bool,uint256)": {
        "details": "Update the rewards discount settings (owner only)",
        "params": {
          "_enabled": "Whether the discount system is enabled",
          "_percentage": "Discount percentage to apply (0-100)"
        }
      },
      "updateWithdrawLiquiditySettings(bool,uint256,address)": {
        "details": "Configure liquidity withdrawal settings for withdrawRewards function (owner only)",
        "params": {
          "_liquidityAddress": "Address to receive the liquidity portion from rewards",
          "_withdrawLiquidityEnabled": "Whether liquidity withdrawal is enabled for rewards",
          "_withdrawLiquidityPercentage": "Percentage of reward withdrawals to redirect to liquidity (1-100)"
        }
      },
      "withdrawRewards(uint256)": {
        "details": "Withdraw claimed rewards",
        "params": {
          "_amount": "Amount of tokens to withdraw"
        }
      },
      "withdrawTokens(uint256)": {
        "details": "Withdraw tokens from the contract (owner only)",
        "params": {
          "_amount": "Amount of tokens to withdraw"
        }
      }
    },
    "title": "NodePackages",
    "version": 1
  },
  "userdoc": {
    "kind": "user",
    "methods": {},
    "version": 1
  }
}